{
	"LogTriggerAutomation/LogTrigger.sol": {
		"LogTrigger": {
			"abi": [
				{
					"inputs": [],
					"stateMutability": "nonpayable",
					"type": "constructor"
				},
				{
					"anonymous": false,
					"inputs": [
						{
							"indexed": true,
							"internalType": "address",
							"name": "msgSender",
							"type": "address"
						}
					],
					"name": "CountedBy",
					"type": "event"
				},
				{
					"inputs": [
						{
							"internalType": "bytes32",
							"name": "_address",
							"type": "bytes32"
						}
					],
					"name": "bytes32ToAddress",
					"outputs": [
						{
							"internalType": "address",
							"name": "",
							"type": "address"
						}
					],
					"stateMutability": "pure",
					"type": "function"
				},
				{
					"inputs": [
						{
							"components": [
								{
									"internalType": "uint256",
									"name": "index",
									"type": "uint256"
								},
								{
									"internalType": "uint256",
									"name": "timestamp",
									"type": "uint256"
								},
								{
									"internalType": "bytes32",
									"name": "txHash",
									"type": "bytes32"
								},
								{
									"internalType": "uint256",
									"name": "blockNumber",
									"type": "uint256"
								},
								{
									"internalType": "bytes32",
									"name": "blockHash",
									"type": "bytes32"
								},
								{
									"internalType": "address",
									"name": "source",
									"type": "address"
								},
								{
									"internalType": "bytes32[]",
									"name": "topics",
									"type": "bytes32[]"
								},
								{
									"internalType": "bytes",
									"name": "data",
									"type": "bytes"
								}
							],
							"internalType": "struct Log",
							"name": "log",
							"type": "tuple"
						},
						{
							"internalType": "bytes",
							"name": "",
							"type": "bytes"
						}
					],
					"name": "checkLog",
					"outputs": [
						{
							"internalType": "bool",
							"name": "upkeepNeeded",
							"type": "bool"
						},
						{
							"internalType": "bytes",
							"name": "performData",
							"type": "bytes"
						}
					],
					"stateMutability": "pure",
					"type": "function"
				},
				{
					"inputs": [],
					"name": "counted",
					"outputs": [
						{
							"internalType": "uint256",
							"name": "",
							"type": "uint256"
						}
					],
					"stateMutability": "view",
					"type": "function"
				},
				{
					"inputs": [
						{
							"internalType": "bytes",
							"name": "performData",
							"type": "bytes"
						}
					],
					"name": "performUpkeep",
					"outputs": [],
					"stateMutability": "nonpayable",
					"type": "function"
				}
			],
			"devdoc": {
				"kind": "dev",
				"methods": {
					"performUpkeep(bytes)": {
						"details": "The input to this method should not be trusted, and the caller of the method should not even be restricted to any single registry. Anyone should be able call it, and the input should be validated, there is no guarantee that the data passed in is the performData returned from checkUpkeep. This could happen due to malicious keepers, racing keepers, or simply a state change while the performUpkeep transaction is waiting for confirmation. Always validate the data passed in.",
						"params": {
							"performData": "is the data which was passed back from the checkData simulation. If it is encoded, it can easily be decoded into other types by calling `abi.decode`. This data should not be trusted, and should be validated against the contract's current state."
						}
					}
				},
				"version": 1
			},
			"evm": {
				"assembly": "    /* \"LogTriggerAutomation/LogTrigger.sol\":182:1007  contract LogTrigger is ILogAutomation {  ... */\n  mstore(0x40, 0x80)\n    /* \"LogTriggerAutomation/LogTrigger.sol\":311:327  constructor() {} */\n  callvalue\n  dup1\n  iszero\n  tag_1\n  jumpi\n  revert(0x00, 0x00)\ntag_1:\n  pop\n    /* \"LogTriggerAutomation/LogTrigger.sol\":182:1007  contract LogTrigger is ILogAutomation {  ... */\n  dataSize(sub_0)\n  dup1\n  dataOffset(sub_0)\n  0x00\n  codecopy\n  0x00\n  return\nstop\n\nsub_0: assembly {\n        /* \"LogTriggerAutomation/LogTrigger.sol\":182:1007  contract LogTrigger is ILogAutomation {  ... */\n      mstore(0x40, 0x80)\n      callvalue\n      dup1\n      iszero\n      tag_1\n      jumpi\n      revert(0x00, 0x00)\n    tag_1:\n      pop\n      jumpi(tag_2, lt(calldatasize, 0x04))\n      shr(0xe0, calldataload(0x00))\n      dup1\n      0x40691db4\n      eq\n      tag_3\n      jumpi\n      dup1\n      0x4585e33b\n      eq\n      tag_4\n      jumpi\n      dup1\n      0x5ced058e\n      eq\n      tag_5\n      jumpi\n      dup1\n      0xf937f910\n      eq\n      tag_6\n      jumpi\n    tag_2:\n      revert(0x00, 0x00)\n        /* \"LogTriggerAutomation/LogTrigger.sol\":335:638  function checkLog(  ... */\n    tag_3:\n      tag_7\n      0x04\n      dup1\n      calldatasize\n      sub\n      dup2\n      add\n      swap1\n      tag_8\n      swap2\n      swap1\n      tag_9\n      jump\t// in\n    tag_8:\n      tag_10\n      jump\t// in\n    tag_7:\n      mload(0x40)\n      tag_11\n      swap3\n      swap2\n      swap1\n      tag_12\n      jump\t// in\n    tag_11:\n      mload(0x40)\n      dup1\n      swap2\n      sub\n      swap1\n      return\n        /* \"LogTriggerAutomation/LogTrigger.sol\":646:855  function performUpkeep(bytes calldata performData) external override {  ... */\n    tag_4:\n      tag_13\n      0x04\n      dup1\n      calldatasize\n      sub\n      dup2\n      add\n      swap1\n      tag_14\n      swap2\n      swap1\n      tag_15\n      jump\t// in\n    tag_14:\n      tag_16\n      jump\t// in\n    tag_13:\n      stop\n        /* \"LogTriggerAutomation/LogTrigger.sol\":863:1002  function bytes32ToAddress(bytes32 _address) public pure returns (address) {  ... */\n    tag_5:\n      tag_17\n      0x04\n      dup1\n      calldatasize\n      sub\n      dup2\n      add\n      swap1\n      tag_18\n      swap2\n      swap1\n      tag_19\n      jump\t// in\n    tag_18:\n      tag_20\n      jump\t// in\n    tag_17:\n      mload(0x40)\n      tag_21\n      swap2\n      swap1\n      tag_22\n      jump\t// in\n    tag_21:\n      mload(0x40)\n      dup1\n      swap2\n      sub\n      swap1\n      return\n        /* \"LogTriggerAutomation/LogTrigger.sol\":280:302  uint256 public counted */\n    tag_6:\n      tag_23\n      tag_24\n      jump\t// in\n    tag_23:\n      mload(0x40)\n      tag_25\n      swap2\n      swap1\n      tag_26\n      jump\t// in\n    tag_25:\n      mload(0x40)\n      dup1\n      swap2\n      sub\n      swap1\n      return\n        /* \"LogTriggerAutomation/LogTrigger.sol\":335:638  function checkLog(  ... */\n    tag_10:\n        /* \"LogTriggerAutomation/LogTrigger.sol\":439:456  bool upkeepNeeded */\n      0x00\n        /* \"LogTriggerAutomation/LogTrigger.sol\":458:482  bytes memory performData */\n      0x60\n        /* \"LogTriggerAutomation/LogTrigger.sol\":512:516  true */\n      0x01\n        /* \"LogTriggerAutomation/LogTrigger.sol\":497:516  upkeepNeeded = true */\n      swap2\n      pop\n        /* \"LogTriggerAutomation/LogTrigger.sol\":529:546  address logSender */\n      0x00\n        /* \"LogTriggerAutomation/LogTrigger.sol\":549:580  bytes32ToAddress(log.topics[1]) */\n      tag_28\n        /* \"LogTriggerAutomation/LogTrigger.sol\":566:569  log */\n      dup6\n        /* \"LogTriggerAutomation/LogTrigger.sol\":566:576  log.topics */\n      dup1\n      0xc0\n      add\n      swap1\n      tag_29\n      swap2\n      swap1\n      tag_30\n      jump\t// in\n    tag_29:\n        /* \"LogTriggerAutomation/LogTrigger.sol\":577:578  1 */\n      0x01\n        /* \"LogTriggerAutomation/LogTrigger.sol\":566:579  log.topics[1] */\n      dup2\n      dup2\n      lt\n      tag_31\n      jumpi\n      tag_32\n      tag_33\n      jump\t// in\n    tag_32:\n    tag_31:\n      swap1\n      pop\n      0x20\n      mul\n      add\n      calldataload\n        /* \"LogTriggerAutomation/LogTrigger.sol\":549:565  bytes32ToAddress */\n      tag_20\n        /* \"LogTriggerAutomation/LogTrigger.sol\":549:580  bytes32ToAddress(log.topics[1]) */\n      jump\t// in\n    tag_28:\n        /* \"LogTriggerAutomation/LogTrigger.sol\":529:580  address logSender = bytes32ToAddress(log.topics[1]) */\n      swap1\n      pop\n        /* \"LogTriggerAutomation/LogTrigger.sol\":618:627  logSender */\n      dup1\n        /* \"LogTriggerAutomation/LogTrigger.sol\":607:628  abi.encode(logSender) */\n      add(0x20, mload(0x40))\n      tag_34\n      swap2\n      swap1\n      tag_22\n      jump\t// in\n    tag_34:\n      mload(0x40)\n      0x20\n      dup2\n      dup4\n      sub\n      sub\n      dup2\n      mstore\n      swap1\n      0x40\n      mstore\n        /* \"LogTriggerAutomation/LogTrigger.sol\":593:628  performData = abi.encode(logSender) */\n      swap2\n      pop\n        /* \"LogTriggerAutomation/LogTrigger.sol\":484:638  {  ... */\n      pop\n        /* \"LogTriggerAutomation/LogTrigger.sol\":335:638  function checkLog(  ... */\n      swap3\n      pop\n      swap3\n      swap1\n      pop\n      jump\t// out\n        /* \"LogTriggerAutomation/LogTrigger.sol\":646:855  function performUpkeep(bytes calldata performData) external override {  ... */\n    tag_16:\n        /* \"LogTriggerAutomation/LogTrigger.sol\":739:740  1 */\n      0x01\n        /* \"LogTriggerAutomation/LogTrigger.sol\":728:735  counted */\n      0x00\n      0x00\n        /* \"LogTriggerAutomation/LogTrigger.sol\":728:740  counted += 1 */\n      dup3\n      dup3\n      sload\n      tag_36\n      swap2\n      swap1\n      tag_37\n      jump\t// in\n    tag_36:\n      swap3\n      pop\n      pop\n      dup2\n      swap1\n      sstore\n      pop\n        /* \"LogTriggerAutomation/LogTrigger.sol\":753:770  address logSender */\n      0x00\n        /* \"LogTriggerAutomation/LogTrigger.sol\":784:795  performData */\n      dup3\n      dup3\n        /* \"LogTriggerAutomation/LogTrigger.sol\":773:807  abi.decode(performData, (address)) */\n      dup2\n      add\n      swap1\n      tag_38\n      swap2\n      swap1\n      tag_39\n      jump\t// in\n    tag_38:\n        /* \"LogTriggerAutomation/LogTrigger.sol\":753:807  address logSender = abi.decode(performData, (address)) */\n      swap1\n      pop\n        /* \"LogTriggerAutomation/LogTrigger.sol\":835:844  logSender */\n      dup1\n        /* \"LogTriggerAutomation/LogTrigger.sol\":825:845  CountedBy(logSender) */\n      0xffffffffffffffffffffffffffffffffffffffff\n      and\n      0x9dc7dc9b337aa2897cc3559260e1bf9eae7db329f1121de7c27a28fca8b2eed1\n      mload(0x40)\n      mload(0x40)\n      dup1\n      swap2\n      sub\n      swap1\n      log2\n        /* \"LogTriggerAutomation/LogTrigger.sol\":715:855  {  ... */\n      pop\n        /* \"LogTriggerAutomation/LogTrigger.sol\":646:855  function performUpkeep(bytes calldata performData) external override {  ... */\n      pop\n      pop\n      jump\t// out\n        /* \"LogTriggerAutomation/LogTrigger.sol\":863:1002  function bytes32ToAddress(bytes32 _address) public pure returns (address) {  ... */\n    tag_20:\n        /* \"LogTriggerAutomation/LogTrigger.sol\":928:935  address */\n      0x00\n        /* \"LogTriggerAutomation/LogTrigger.sol\":981:989  _address */\n      dup2\n        /* \"LogTriggerAutomation/LogTrigger.sol\":973:990  uint256(_address) */\n      0x00\n      shr\n        /* \"LogTriggerAutomation/LogTrigger.sol\":950:992  return address(uint160(uint256(_address))) */\n      swap1\n      pop\n        /* \"LogTriggerAutomation/LogTrigger.sol\":863:1002  function bytes32ToAddress(bytes32 _address) public pure returns (address) {  ... */\n      swap2\n      swap1\n      pop\n      jump\t// out\n        /* \"LogTriggerAutomation/LogTrigger.sol\":280:302  uint256 public counted */\n    tag_24:\n      sload(0x00)\n      dup2\n      jump\t// out\n        /* \"#utility.yul\":7:82   */\n    tag_41:\n        /* \"#utility.yul\":40:46   */\n      0x00\n        /* \"#utility.yul\":73:75   */\n      0x40\n        /* \"#utility.yul\":67:76   */\n      mload\n        /* \"#utility.yul\":57:76   */\n      swap1\n      pop\n        /* \"#utility.yul\":7:82   */\n      swap1\n      jump\t// out\n        /* \"#utility.yul\":88:205   */\n    tag_42:\n        /* \"#utility.yul\":197:198   */\n      0x00\n        /* \"#utility.yul\":194:195   */\n      0x00\n        /* \"#utility.yul\":187:199   */\n      revert\n        /* \"#utility.yul\":211:328   */\n    tag_43:\n        /* \"#utility.yul\":320:321   */\n      0x00\n        /* \"#utility.yul\":317:318   */\n      0x00\n        /* \"#utility.yul\":310:322   */\n      revert\n        /* \"#utility.yul\":334:451   */\n    tag_44:\n        /* \"#utility.yul\":443:444   */\n      0x00\n        /* \"#utility.yul\":440:441   */\n      0x00\n        /* \"#utility.yul\":433:445   */\n      revert\n        /* \"#utility.yul\":475:701   */\n    tag_45:\n        /* \"#utility.yul\":542:547   */\n      0x00\n        /* \"#utility.yul\":583:586   */\n      0x0100\n        /* \"#utility.yul\":574:580   */\n      dup3\n        /* \"#utility.yul\":569:572   */\n      dup5\n        /* \"#utility.yul\":565:581   */\n      sub\n        /* \"#utility.yul\":561:587   */\n      slt\n        /* \"#utility.yul\":558:671   */\n      iszero\n      tag_86\n      jumpi\n        /* \"#utility.yul\":590:669   */\n      tag_87\n      tag_44\n      jump\t// in\n    tag_87:\n        /* \"#utility.yul\":558:671   */\n    tag_86:\n        /* \"#utility.yul\":689:695   */\n      dup2\n        /* \"#utility.yul\":680:695   */\n      swap1\n      pop\n        /* \"#utility.yul\":475:701   */\n      swap3\n      swap2\n      pop\n      pop\n      jump\t// out\n        /* \"#utility.yul\":707:824   */\n    tag_46:\n        /* \"#utility.yul\":816:817   */\n      0x00\n        /* \"#utility.yul\":813:814   */\n      0x00\n        /* \"#utility.yul\":806:818   */\n      revert\n        /* \"#utility.yul\":830:947   */\n    tag_47:\n        /* \"#utility.yul\":939:940   */\n      0x00\n        /* \"#utility.yul\":936:937   */\n      0x00\n        /* \"#utility.yul\":929:941   */\n      revert\n        /* \"#utility.yul\":953:1055   */\n    tag_48:\n        /* \"#utility.yul\":994:1000   */\n      0x00\n        /* \"#utility.yul\":1045:1047   */\n      0x1f\n        /* \"#utility.yul\":1041:1048   */\n      not\n        /* \"#utility.yul\":1036:1038   */\n      0x1f\n        /* \"#utility.yul\":1029:1034   */\n      dup4\n        /* \"#utility.yul\":1025:1039   */\n      add\n        /* \"#utility.yul\":1021:1049   */\n      and\n        /* \"#utility.yul\":1011:1049   */\n      swap1\n      pop\n        /* \"#utility.yul\":953:1055   */\n      swap2\n      swap1\n      pop\n      jump\t// out\n        /* \"#utility.yul\":1061:1241   */\n    tag_49:\n        /* \"#utility.yul\":1109:1186   */\n      0x4e487b7100000000000000000000000000000000000000000000000000000000\n        /* \"#utility.yul\":1106:1107   */\n      0x00\n        /* \"#utility.yul\":1099:1187   */\n      mstore\n        /* \"#utility.yul\":1206:1210   */\n      0x41\n        /* \"#utility.yul\":1203:1204   */\n      0x04\n        /* \"#utility.yul\":1196:1211   */\n      mstore\n        /* \"#utility.yul\":1230:1234   */\n      0x24\n        /* \"#utility.yul\":1227:1228   */\n      0x00\n        /* \"#utility.yul\":1220:1235   */\n      revert\n        /* \"#utility.yul\":1247:1528   */\n    tag_50:\n        /* \"#utility.yul\":1330:1357   */\n      tag_93\n        /* \"#utility.yul\":1352:1356   */\n      dup3\n        /* \"#utility.yul\":1330:1357   */\n      tag_48\n      jump\t// in\n    tag_93:\n        /* \"#utility.yul\":1322:1328   */\n      dup2\n        /* \"#utility.yul\":1318:1358   */\n      add\n        /* \"#utility.yul\":1460:1466   */\n      dup2\n        /* \"#utility.yul\":1448:1458   */\n      dup2\n        /* \"#utility.yul\":1445:1467   */\n      lt\n        /* \"#utility.yul\":1424:1442   */\n      0xffffffffffffffff\n        /* \"#utility.yul\":1412:1422   */\n      dup3\n        /* \"#utility.yul\":1409:1443   */\n      gt\n        /* \"#utility.yul\":1406:1468   */\n      or\n        /* \"#utility.yul\":1403:1491   */\n      iszero\n      tag_94\n      jumpi\n        /* \"#utility.yul\":1471:1489   */\n      tag_95\n      tag_49\n      jump\t// in\n    tag_95:\n        /* \"#utility.yul\":1403:1491   */\n    tag_94:\n        /* \"#utility.yul\":1511:1521   */\n      dup1\n        /* \"#utility.yul\":1507:1509   */\n      0x40\n        /* \"#utility.yul\":1500:1522   */\n      mstore\n        /* \"#utility.yul\":1290:1528   */\n      pop\n        /* \"#utility.yul\":1247:1528   */\n      pop\n      pop\n      jump\t// out\n        /* \"#utility.yul\":1534:1663   */\n    tag_51:\n        /* \"#utility.yul\":1568:1574   */\n      0x00\n        /* \"#utility.yul\":1595:1615   */\n      tag_97\n      tag_41\n      jump\t// in\n    tag_97:\n        /* \"#utility.yul\":1585:1615   */\n      swap1\n      pop\n        /* \"#utility.yul\":1624:1657   */\n      tag_98\n        /* \"#utility.yul\":1652:1656   */\n      dup3\n        /* \"#utility.yul\":1644:1650   */\n      dup3\n        /* \"#utility.yul\":1624:1657   */\n      tag_50\n      jump\t// in\n    tag_98:\n        /* \"#utility.yul\":1534:1663   */\n      swap2\n      swap1\n      pop\n      jump\t// out\n        /* \"#utility.yul\":1669:1976   */\n    tag_52:\n        /* \"#utility.yul\":1730:1734   */\n      0x00\n        /* \"#utility.yul\":1820:1838   */\n      0xffffffffffffffff\n        /* \"#utility.yul\":1812:1818   */\n      dup3\n        /* \"#utility.yul\":1809:1839   */\n      gt\n        /* \"#utility.yul\":1806:1862   */\n      iszero\n      tag_100\n      jumpi\n        /* \"#utility.yul\":1842:1860   */\n      tag_101\n      tag_49\n      jump\t// in\n    tag_101:\n        /* \"#utility.yul\":1806:1862   */\n    tag_100:\n        /* \"#utility.yul\":1880:1909   */\n      tag_102\n        /* \"#utility.yul\":1902:1908   */\n      dup3\n        /* \"#utility.yul\":1880:1909   */\n      tag_48\n      jump\t// in\n    tag_102:\n        /* \"#utility.yul\":1872:1909   */\n      swap1\n      pop\n        /* \"#utility.yul\":1964:1968   */\n      0x20\n        /* \"#utility.yul\":1958:1962   */\n      dup2\n        /* \"#utility.yul\":1954:1969   */\n      add\n        /* \"#utility.yul\":1946:1969   */\n      swap1\n      pop\n        /* \"#utility.yul\":1669:1976   */\n      swap2\n      swap1\n      pop\n      jump\t// out\n        /* \"#utility.yul\":1982:2130   */\n    tag_53:\n        /* \"#utility.yul\":2080:2086   */\n      dup3\n        /* \"#utility.yul\":2075:2078   */\n      dup2\n        /* \"#utility.yul\":2070:2073   */\n      dup4\n        /* \"#utility.yul\":2057:2087   */\n      calldatacopy\n        /* \"#utility.yul\":2121:2122   */\n      0x00\n        /* \"#utility.yul\":2112:2118   */\n      dup4\n        /* \"#utility.yul\":2107:2110   */\n      dup4\n        /* \"#utility.yul\":2103:2119   */\n      add\n        /* \"#utility.yul\":2096:2123   */\n      mstore\n        /* \"#utility.yul\":1982:2130   */\n      pop\n      pop\n      pop\n      jump\t// out\n        /* \"#utility.yul\":2136:2559   */\n    tag_54:\n        /* \"#utility.yul\":2213:2218   */\n      0x00\n        /* \"#utility.yul\":2238:2303   */\n      tag_105\n        /* \"#utility.yul\":2254:2302   */\n      tag_106\n        /* \"#utility.yul\":2295:2301   */\n      dup5\n        /* \"#utility.yul\":2254:2302   */\n      tag_52\n      jump\t// in\n    tag_106:\n        /* \"#utility.yul\":2238:2303   */\n      tag_51\n      jump\t// in\n    tag_105:\n        /* \"#utility.yul\":2229:2303   */\n      swap1\n      pop\n        /* \"#utility.yul\":2326:2332   */\n      dup3\n        /* \"#utility.yul\":2319:2324   */\n      dup2\n        /* \"#utility.yul\":2312:2333   */\n      mstore\n        /* \"#utility.yul\":2364:2368   */\n      0x20\n        /* \"#utility.yul\":2357:2362   */\n      dup2\n        /* \"#utility.yul\":2353:2369   */\n      add\n        /* \"#utility.yul\":2402:2405   */\n      dup5\n        /* \"#utility.yul\":2393:2399   */\n      dup5\n        /* \"#utility.yul\":2388:2391   */\n      dup5\n        /* \"#utility.yul\":2384:2400   */\n      add\n        /* \"#utility.yul\":2381:2406   */\n      gt\n        /* \"#utility.yul\":2378:2490   */\n      iszero\n      tag_107\n      jumpi\n        /* \"#utility.yul\":2409:2488   */\n      tag_108\n      tag_47\n      jump\t// in\n    tag_108:\n        /* \"#utility.yul\":2378:2490   */\n    tag_107:\n        /* \"#utility.yul\":2499:2553   */\n      tag_109\n        /* \"#utility.yul\":2546:2552   */\n      dup5\n        /* \"#utility.yul\":2541:2544   */\n      dup3\n        /* \"#utility.yul\":2536:2539   */\n      dup6\n        /* \"#utility.yul\":2499:2553   */\n      tag_53\n      jump\t// in\n    tag_109:\n        /* \"#utility.yul\":2219:2559   */\n      pop\n        /* \"#utility.yul\":2136:2559   */\n      swap4\n      swap3\n      pop\n      pop\n      pop\n      jump\t// out\n        /* \"#utility.yul\":2578:2916   */\n    tag_55:\n        /* \"#utility.yul\":2633:2638   */\n      0x00\n        /* \"#utility.yul\":2682:2685   */\n      dup3\n        /* \"#utility.yul\":2675:2679   */\n      0x1f\n        /* \"#utility.yul\":2667:2673   */\n      dup4\n        /* \"#utility.yul\":2663:2680   */\n      add\n        /* \"#utility.yul\":2659:2686   */\n      slt\n        /* \"#utility.yul\":2649:2771   */\n      tag_111\n      jumpi\n        /* \"#utility.yul\":2690:2769   */\n      tag_112\n      tag_46\n      jump\t// in\n    tag_112:\n        /* \"#utility.yul\":2649:2771   */\n    tag_111:\n        /* \"#utility.yul\":2807:2813   */\n      dup2\n        /* \"#utility.yul\":2794:2814   */\n      calldataload\n        /* \"#utility.yul\":2832:2910   */\n      tag_113\n        /* \"#utility.yul\":2906:2909   */\n      dup5\n        /* \"#utility.yul\":2898:2904   */\n      dup3\n        /* \"#utility.yul\":2891:2895   */\n      0x20\n        /* \"#utility.yul\":2883:2889   */\n      dup7\n        /* \"#utility.yul\":2879:2896   */\n      add\n        /* \"#utility.yul\":2832:2910   */\n      tag_54\n      jump\t// in\n    tag_113:\n        /* \"#utility.yul\":2823:2910   */\n      swap2\n      pop\n        /* \"#utility.yul\":2639:2916   */\n      pop\n        /* \"#utility.yul\":2578:2916   */\n      swap3\n      swap2\n      pop\n      pop\n      jump\t// out\n        /* \"#utility.yul\":2922:3776   */\n    tag_9:\n        /* \"#utility.yul\":3020:3026   */\n      0x00\n        /* \"#utility.yul\":3028:3034   */\n      0x00\n        /* \"#utility.yul\":3077:3079   */\n      0x40\n        /* \"#utility.yul\":3065:3074   */\n      dup4\n        /* \"#utility.yul\":3056:3063   */\n      dup6\n        /* \"#utility.yul\":3052:3075   */\n      sub\n        /* \"#utility.yul\":3048:3080   */\n      slt\n        /* \"#utility.yul\":3045:3164   */\n      iszero\n      tag_115\n      jumpi\n        /* \"#utility.yul\":3083:3162   */\n      tag_116\n      tag_42\n      jump\t// in\n    tag_116:\n        /* \"#utility.yul\":3045:3164   */\n    tag_115:\n        /* \"#utility.yul\":3231:3232   */\n      0x00\n        /* \"#utility.yul\":3220:3229   */\n      dup4\n        /* \"#utility.yul\":3216:3233   */\n      add\n        /* \"#utility.yul\":3203:3234   */\n      calldataload\n        /* \"#utility.yul\":3261:3279   */\n      0xffffffffffffffff\n        /* \"#utility.yul\":3253:3259   */\n      dup2\n        /* \"#utility.yul\":3250:3280   */\n      gt\n        /* \"#utility.yul\":3247:3364   */\n      iszero\n      tag_117\n      jumpi\n        /* \"#utility.yul\":3283:3362   */\n      tag_118\n      tag_43\n      jump\t// in\n    tag_118:\n        /* \"#utility.yul\":3247:3364   */\n    tag_117:\n        /* \"#utility.yul\":3388:3462   */\n      tag_119\n        /* \"#utility.yul\":3454:3461   */\n      dup6\n        /* \"#utility.yul\":3445:3451   */\n      dup3\n        /* \"#utility.yul\":3434:3443   */\n      dup7\n        /* \"#utility.yul\":3430:3452   */\n      add\n        /* \"#utility.yul\":3388:3462   */\n      tag_45\n      jump\t// in\n    tag_119:\n        /* \"#utility.yul\":3378:3462   */\n      swap3\n      pop\n        /* \"#utility.yul\":3174:3472   */\n      pop\n        /* \"#utility.yul\":3539:3541   */\n      0x20\n        /* \"#utility.yul\":3528:3537   */\n      dup4\n        /* \"#utility.yul\":3524:3542   */\n      add\n        /* \"#utility.yul\":3511:3543   */\n      calldataload\n        /* \"#utility.yul\":3570:3588   */\n      0xffffffffffffffff\n        /* \"#utility.yul\":3562:3568   */\n      dup2\n        /* \"#utility.yul\":3559:3589   */\n      gt\n        /* \"#utility.yul\":3556:3673   */\n      iszero\n      tag_120\n      jumpi\n        /* \"#utility.yul\":3592:3671   */\n      tag_121\n      tag_43\n      jump\t// in\n    tag_121:\n        /* \"#utility.yul\":3556:3673   */\n    tag_120:\n        /* \"#utility.yul\":3697:3759   */\n      tag_122\n        /* \"#utility.yul\":3751:3758   */\n      dup6\n        /* \"#utility.yul\":3742:3748   */\n      dup3\n        /* \"#utility.yul\":3731:3740   */\n      dup7\n        /* \"#utility.yul\":3727:3749   */\n      add\n        /* \"#utility.yul\":3697:3759   */\n      tag_55\n      jump\t// in\n    tag_122:\n        /* \"#utility.yul\":3687:3759   */\n      swap2\n      pop\n        /* \"#utility.yul\":3482:3769   */\n      pop\n        /* \"#utility.yul\":2922:3776   */\n      swap3\n      pop\n      swap3\n      swap1\n      pop\n      jump\t// out\n        /* \"#utility.yul\":3782:3872   */\n    tag_56:\n        /* \"#utility.yul\":3816:3823   */\n      0x00\n        /* \"#utility.yul\":3859:3864   */\n      dup2\n        /* \"#utility.yul\":3852:3865   */\n      iszero\n        /* \"#utility.yul\":3845:3866   */\n      iszero\n        /* \"#utility.yul\":3834:3866   */\n      swap1\n      pop\n        /* \"#utility.yul\":3782:3872   */\n      swap2\n      swap1\n      pop\n      jump\t// out\n        /* \"#utility.yul\":3878:3987   */\n    tag_57:\n        /* \"#utility.yul\":3959:3980   */\n      tag_125\n        /* \"#utility.yul\":3974:3979   */\n      dup2\n        /* \"#utility.yul\":3959:3980   */\n      tag_56\n      jump\t// in\n    tag_125:\n        /* \"#utility.yul\":3954:3957   */\n      dup3\n        /* \"#utility.yul\":3947:3981   */\n      mstore\n        /* \"#utility.yul\":3878:3987   */\n      pop\n      pop\n      jump\t// out\n        /* \"#utility.yul\":3993:4091   */\n    tag_58:\n        /* \"#utility.yul\":4044:4050   */\n      0x00\n        /* \"#utility.yul\":4078:4083   */\n      dup2\n        /* \"#utility.yul\":4072:4084   */\n      mload\n        /* \"#utility.yul\":4062:4084   */\n      swap1\n      pop\n        /* \"#utility.yul\":3993:4091   */\n      swap2\n      swap1\n      pop\n      jump\t// out\n        /* \"#utility.yul\":4097:4265   */\n    tag_59:\n        /* \"#utility.yul\":4180:4191   */\n      0x00\n        /* \"#utility.yul\":4214:4220   */\n      dup3\n        /* \"#utility.yul\":4209:4212   */\n      dup3\n        /* \"#utility.yul\":4202:4221   */\n      mstore\n        /* \"#utility.yul\":4254:4258   */\n      0x20\n        /* \"#utility.yul\":4249:4252   */\n      dup3\n        /* \"#utility.yul\":4245:4259   */\n      add\n        /* \"#utility.yul\":4230:4259   */\n      swap1\n      pop\n        /* \"#utility.yul\":4097:4265   */\n      swap3\n      swap2\n      pop\n      pop\n      jump\t// out\n        /* \"#utility.yul\":4271:4410   */\n    tag_60:\n        /* \"#utility.yul\":4360:4366   */\n      dup3\n        /* \"#utility.yul\":4355:4358   */\n      dup2\n        /* \"#utility.yul\":4350:4353   */\n      dup4\n        /* \"#utility.yul\":4344:4367   */\n      mcopy\n        /* \"#utility.yul\":4401:4402   */\n      0x00\n        /* \"#utility.yul\":4392:4398   */\n      dup4\n        /* \"#utility.yul\":4387:4390   */\n      dup4\n        /* \"#utility.yul\":4383:4399   */\n      add\n        /* \"#utility.yul\":4376:4403   */\n      mstore\n        /* \"#utility.yul\":4271:4410   */\n      pop\n      pop\n      pop\n      jump\t// out\n        /* \"#utility.yul\":4416:4789   */\n    tag_61:\n        /* \"#utility.yul\":4502:4505   */\n      0x00\n        /* \"#utility.yul\":4530:4568   */\n      tag_130\n        /* \"#utility.yul\":4562:4567   */\n      dup3\n        /* \"#utility.yul\":4530:4568   */\n      tag_58\n      jump\t// in\n    tag_130:\n        /* \"#utility.yul\":4584:4654   */\n      tag_131\n        /* \"#utility.yul\":4647:4653   */\n      dup2\n        /* \"#utility.yul\":4642:4645   */\n      dup6\n        /* \"#utility.yul\":4584:4654   */\n      tag_59\n      jump\t// in\n    tag_131:\n        /* \"#utility.yul\":4577:4654   */\n      swap4\n      pop\n        /* \"#utility.yul\":4663:4728   */\n      tag_132\n        /* \"#utility.yul\":4721:4727   */\n      dup2\n        /* \"#utility.yul\":4716:4719   */\n      dup6\n        /* \"#utility.yul\":4709:4713   */\n      0x20\n        /* \"#utility.yul\":4702:4707   */\n      dup7\n        /* \"#utility.yul\":4698:4714   */\n      add\n        /* \"#utility.yul\":4663:4728   */\n      tag_60\n      jump\t// in\n    tag_132:\n        /* \"#utility.yul\":4753:4782   */\n      tag_133\n        /* \"#utility.yul\":4775:4781   */\n      dup2\n        /* \"#utility.yul\":4753:4782   */\n      tag_48\n      jump\t// in\n    tag_133:\n        /* \"#utility.yul\":4748:4751   */\n      dup5\n        /* \"#utility.yul\":4744:4783   */\n      add\n        /* \"#utility.yul\":4737:4783   */\n      swap2\n      pop\n        /* \"#utility.yul\":4506:4789   */\n      pop\n        /* \"#utility.yul\":4416:4789   */\n      swap3\n      swap2\n      pop\n      pop\n      jump\t// out\n        /* \"#utility.yul\":4795:5202   */\n    tag_12:\n        /* \"#utility.yul\":4928:4932   */\n      0x00\n        /* \"#utility.yul\":4966:4968   */\n      0x40\n        /* \"#utility.yul\":4955:4964   */\n      dup3\n        /* \"#utility.yul\":4951:4969   */\n      add\n        /* \"#utility.yul\":4943:4969   */\n      swap1\n      pop\n        /* \"#utility.yul\":4979:5044   */\n      tag_135\n        /* \"#utility.yul\":5041:5042   */\n      0x00\n        /* \"#utility.yul\":5030:5039   */\n      dup4\n        /* \"#utility.yul\":5026:5043   */\n      add\n        /* \"#utility.yul\":5017:5023   */\n      dup6\n        /* \"#utility.yul\":4979:5044   */\n      tag_57\n      jump\t// in\n    tag_135:\n        /* \"#utility.yul\":5091:5100   */\n      dup2\n        /* \"#utility.yul\":5085:5089   */\n      dup2\n        /* \"#utility.yul\":5081:5101   */\n      sub\n        /* \"#utility.yul\":5076:5078   */\n      0x20\n        /* \"#utility.yul\":5065:5074   */\n      dup4\n        /* \"#utility.yul\":5061:5079   */\n      add\n        /* \"#utility.yul\":5054:5102   */\n      mstore\n        /* \"#utility.yul\":5119:5195   */\n      tag_136\n        /* \"#utility.yul\":5190:5194   */\n      dup2\n        /* \"#utility.yul\":5181:5187   */\n      dup5\n        /* \"#utility.yul\":5119:5195   */\n      tag_61\n      jump\t// in\n    tag_136:\n        /* \"#utility.yul\":5111:5195   */\n      swap1\n      pop\n        /* \"#utility.yul\":4795:5202   */\n      swap4\n      swap3\n      pop\n      pop\n      pop\n      jump\t// out\n        /* \"#utility.yul\":5208:5325   */\n    tag_62:\n        /* \"#utility.yul\":5317:5318   */\n      0x00\n        /* \"#utility.yul\":5314:5315   */\n      0x00\n        /* \"#utility.yul\":5307:5319   */\n      revert\n        /* \"#utility.yul\":5331:5448   */\n    tag_63:\n        /* \"#utility.yul\":5440:5441   */\n      0x00\n        /* \"#utility.yul\":5437:5438   */\n      0x00\n        /* \"#utility.yul\":5430:5442   */\n      revert\n        /* \"#utility.yul\":5467:6019   */\n    tag_64:\n        /* \"#utility.yul\":5524:5532   */\n      0x00\n        /* \"#utility.yul\":5534:5540   */\n      0x00\n        /* \"#utility.yul\":5584:5587   */\n      dup4\n        /* \"#utility.yul\":5577:5581   */\n      0x1f\n        /* \"#utility.yul\":5569:5575   */\n      dup5\n        /* \"#utility.yul\":5565:5582   */\n      add\n        /* \"#utility.yul\":5561:5588   */\n      slt\n        /* \"#utility.yul\":5551:5673   */\n      tag_140\n      jumpi\n        /* \"#utility.yul\":5592:5671   */\n      tag_141\n      tag_46\n      jump\t// in\n    tag_141:\n        /* \"#utility.yul\":5551:5673   */\n    tag_140:\n        /* \"#utility.yul\":5705:5711   */\n      dup3\n        /* \"#utility.yul\":5692:5712   */\n      calldataload\n        /* \"#utility.yul\":5682:5712   */\n      swap1\n      pop\n        /* \"#utility.yul\":5735:5753   */\n      0xffffffffffffffff\n        /* \"#utility.yul\":5727:5733   */\n      dup2\n        /* \"#utility.yul\":5724:5754   */\n      gt\n        /* \"#utility.yul\":5721:5838   */\n      iszero\n      tag_142\n      jumpi\n        /* \"#utility.yul\":5757:5836   */\n      tag_143\n      tag_62\n      jump\t// in\n    tag_143:\n        /* \"#utility.yul\":5721:5838   */\n    tag_142:\n        /* \"#utility.yul\":5871:5875   */\n      0x20\n        /* \"#utility.yul\":5863:5869   */\n      dup4\n        /* \"#utility.yul\":5859:5876   */\n      add\n        /* \"#utility.yul\":5847:5876   */\n      swap2\n      pop\n        /* \"#utility.yul\":5925:5928   */\n      dup4\n        /* \"#utility.yul\":5917:5921   */\n      0x01\n        /* \"#utility.yul\":5909:5915   */\n      dup3\n        /* \"#utility.yul\":5905:5922   */\n      mul\n        /* \"#utility.yul\":5895:5903   */\n      dup4\n        /* \"#utility.yul\":5891:5923   */\n      add\n        /* \"#utility.yul\":5888:5929   */\n      gt\n        /* \"#utility.yul\":5885:6013   */\n      iszero\n      tag_144\n      jumpi\n        /* \"#utility.yul\":5932:6011   */\n      tag_145\n      tag_63\n      jump\t// in\n    tag_145:\n        /* \"#utility.yul\":5885:6013   */\n    tag_144:\n        /* \"#utility.yul\":5467:6019   */\n      swap3\n      pop\n      swap3\n      swap1\n      pop\n      jump\t// out\n        /* \"#utility.yul\":6025:6552   */\n    tag_15:\n        /* \"#utility.yul\":6095:6101   */\n      0x00\n        /* \"#utility.yul\":6103:6109   */\n      0x00\n        /* \"#utility.yul\":6152:6154   */\n      0x20\n        /* \"#utility.yul\":6140:6149   */\n      dup4\n        /* \"#utility.yul\":6131:6138   */\n      dup6\n        /* \"#utility.yul\":6127:6150   */\n      sub\n        /* \"#utility.yul\":6123:6155   */\n      slt\n        /* \"#utility.yul\":6120:6239   */\n      iszero\n      tag_147\n      jumpi\n        /* \"#utility.yul\":6158:6237   */\n      tag_148\n      tag_42\n      jump\t// in\n    tag_148:\n        /* \"#utility.yul\":6120:6239   */\n    tag_147:\n        /* \"#utility.yul\":6306:6307   */\n      0x00\n        /* \"#utility.yul\":6295:6304   */\n      dup4\n        /* \"#utility.yul\":6291:6308   */\n      add\n        /* \"#utility.yul\":6278:6309   */\n      calldataload\n        /* \"#utility.yul\":6336:6354   */\n      0xffffffffffffffff\n        /* \"#utility.yul\":6328:6334   */\n      dup2\n        /* \"#utility.yul\":6325:6355   */\n      gt\n        /* \"#utility.yul\":6322:6439   */\n      iszero\n      tag_149\n      jumpi\n        /* \"#utility.yul\":6358:6437   */\n      tag_150\n      tag_43\n      jump\t// in\n    tag_150:\n        /* \"#utility.yul\":6322:6439   */\n    tag_149:\n        /* \"#utility.yul\":6471:6535   */\n      tag_151\n        /* \"#utility.yul\":6527:6534   */\n      dup6\n        /* \"#utility.yul\":6518:6524   */\n      dup3\n        /* \"#utility.yul\":6507:6516   */\n      dup7\n        /* \"#utility.yul\":6503:6525   */\n      add\n        /* \"#utility.yul\":6471:6535   */\n      tag_64\n      jump\t// in\n    tag_151:\n        /* \"#utility.yul\":6453:6535   */\n      swap3\n      pop\n      swap3\n      pop\n        /* \"#utility.yul\":6249:6545   */\n      pop\n        /* \"#utility.yul\":6025:6552   */\n      swap3\n      pop\n      swap3\n      swap1\n      pop\n      jump\t// out\n        /* \"#utility.yul\":6558:6635   */\n    tag_65:\n        /* \"#utility.yul\":6595:6602   */\n      0x00\n        /* \"#utility.yul\":6624:6629   */\n      dup2\n        /* \"#utility.yul\":6613:6629   */\n      swap1\n      pop\n        /* \"#utility.yul\":6558:6635   */\n      swap2\n      swap1\n      pop\n      jump\t// out\n        /* \"#utility.yul\":6641:6763   */\n    tag_66:\n        /* \"#utility.yul\":6714:6738   */\n      tag_154\n        /* \"#utility.yul\":6732:6737   */\n      dup2\n        /* \"#utility.yul\":6714:6738   */\n      tag_65\n      jump\t// in\n    tag_154:\n        /* \"#utility.yul\":6707:6712   */\n      dup2\n        /* \"#utility.yul\":6704:6739   */\n      eq\n        /* \"#utility.yul\":6694:6757   */\n      tag_155\n      jumpi\n        /* \"#utility.yul\":6753:6754   */\n      0x00\n        /* \"#utility.yul\":6750:6751   */\n      0x00\n        /* \"#utility.yul\":6743:6755   */\n      revert\n        /* \"#utility.yul\":6694:6757   */\n    tag_155:\n        /* \"#utility.yul\":6641:6763   */\n      pop\n      jump\t// out\n        /* \"#utility.yul\":6769:6908   */\n    tag_67:\n        /* \"#utility.yul\":6815:6820   */\n      0x00\n        /* \"#utility.yul\":6853:6859   */\n      dup2\n        /* \"#utility.yul\":6840:6860   */\n      calldataload\n        /* \"#utility.yul\":6831:6860   */\n      swap1\n      pop\n        /* \"#utility.yul\":6869:6902   */\n      tag_157\n        /* \"#utility.yul\":6896:6901   */\n      dup2\n        /* \"#utility.yul\":6869:6902   */\n      tag_66\n      jump\t// in\n    tag_157:\n        /* \"#utility.yul\":6769:6908   */\n      swap3\n      swap2\n      pop\n      pop\n      jump\t// out\n        /* \"#utility.yul\":6914:7243   */\n    tag_19:\n        /* \"#utility.yul\":6973:6979   */\n      0x00\n        /* \"#utility.yul\":7022:7024   */\n      0x20\n        /* \"#utility.yul\":7010:7019   */\n      dup3\n        /* \"#utility.yul\":7001:7008   */\n      dup5\n        /* \"#utility.yul\":6997:7020   */\n      sub\n        /* \"#utility.yul\":6993:7025   */\n      slt\n        /* \"#utility.yul\":6990:7109   */\n      iszero\n      tag_159\n      jumpi\n        /* \"#utility.yul\":7028:7107   */\n      tag_160\n      tag_42\n      jump\t// in\n    tag_160:\n        /* \"#utility.yul\":6990:7109   */\n    tag_159:\n        /* \"#utility.yul\":7148:7149   */\n      0x00\n        /* \"#utility.yul\":7173:7226   */\n      tag_161\n        /* \"#utility.yul\":7218:7225   */\n      dup5\n        /* \"#utility.yul\":7209:7215   */\n      dup3\n        /* \"#utility.yul\":7198:7207   */\n      dup6\n        /* \"#utility.yul\":7194:7216   */\n      add\n        /* \"#utility.yul\":7173:7226   */\n      tag_67\n      jump\t// in\n    tag_161:\n        /* \"#utility.yul\":7163:7226   */\n      swap2\n      pop\n        /* \"#utility.yul\":7119:7236   */\n      pop\n        /* \"#utility.yul\":6914:7243   */\n      swap3\n      swap2\n      pop\n      pop\n      jump\t// out\n        /* \"#utility.yul\":7249:7375   */\n    tag_68:\n        /* \"#utility.yul\":7286:7293   */\n      0x00\n        /* \"#utility.yul\":7326:7368   */\n      0xffffffffffffffffffffffffffffffffffffffff\n        /* \"#utility.yul\":7319:7324   */\n      dup3\n        /* \"#utility.yul\":7315:7369   */\n      and\n        /* \"#utility.yul\":7304:7369   */\n      swap1\n      pop\n        /* \"#utility.yul\":7249:7375   */\n      swap2\n      swap1\n      pop\n      jump\t// out\n        /* \"#utility.yul\":7381:7477   */\n    tag_69:\n        /* \"#utility.yul\":7418:7425   */\n      0x00\n        /* \"#utility.yul\":7447:7471   */\n      tag_164\n        /* \"#utility.yul\":7465:7470   */\n      dup3\n        /* \"#utility.yul\":7447:7471   */\n      tag_68\n      jump\t// in\n    tag_164:\n        /* \"#utility.yul\":7436:7471   */\n      swap1\n      pop\n        /* \"#utility.yul\":7381:7477   */\n      swap2\n      swap1\n      pop\n      jump\t// out\n        /* \"#utility.yul\":7483:7601   */\n    tag_70:\n        /* \"#utility.yul\":7570:7594   */\n      tag_166\n        /* \"#utility.yul\":7588:7593   */\n      dup2\n        /* \"#utility.yul\":7570:7594   */\n      tag_69\n      jump\t// in\n    tag_166:\n        /* \"#utility.yul\":7565:7568   */\n      dup3\n        /* \"#utility.yul\":7558:7595   */\n      mstore\n        /* \"#utility.yul\":7483:7601   */\n      pop\n      pop\n      jump\t// out\n        /* \"#utility.yul\":7607:7829   */\n    tag_22:\n        /* \"#utility.yul\":7700:7704   */\n      0x00\n        /* \"#utility.yul\":7738:7740   */\n      0x20\n        /* \"#utility.yul\":7727:7736   */\n      dup3\n        /* \"#utility.yul\":7723:7741   */\n      add\n        /* \"#utility.yul\":7715:7741   */\n      swap1\n      pop\n        /* \"#utility.yul\":7751:7822   */\n      tag_168\n        /* \"#utility.yul\":7819:7820   */\n      0x00\n        /* \"#utility.yul\":7808:7817   */\n      dup4\n        /* \"#utility.yul\":7804:7821   */\n      add\n        /* \"#utility.yul\":7795:7801   */\n      dup5\n        /* \"#utility.yul\":7751:7822   */\n      tag_70\n      jump\t// in\n    tag_168:\n        /* \"#utility.yul\":7607:7829   */\n      swap3\n      swap2\n      pop\n      pop\n      jump\t// out\n        /* \"#utility.yul\":7835:7912   */\n    tag_71:\n        /* \"#utility.yul\":7872:7879   */\n      0x00\n        /* \"#utility.yul\":7901:7906   */\n      dup2\n        /* \"#utility.yul\":7890:7906   */\n      swap1\n      pop\n        /* \"#utility.yul\":7835:7912   */\n      swap2\n      swap1\n      pop\n      jump\t// out\n        /* \"#utility.yul\":7918:8036   */\n    tag_72:\n        /* \"#utility.yul\":8005:8029   */\n      tag_171\n        /* \"#utility.yul\":8023:8028   */\n      dup2\n        /* \"#utility.yul\":8005:8029   */\n      tag_71\n      jump\t// in\n    tag_171:\n        /* \"#utility.yul\":8000:8003   */\n      dup3\n        /* \"#utility.yul\":7993:8030   */\n      mstore\n        /* \"#utility.yul\":7918:8036   */\n      pop\n      pop\n      jump\t// out\n        /* \"#utility.yul\":8042:8264   */\n    tag_26:\n        /* \"#utility.yul\":8135:8139   */\n      0x00\n        /* \"#utility.yul\":8173:8175   */\n      0x20\n        /* \"#utility.yul\":8162:8171   */\n      dup3\n        /* \"#utility.yul\":8158:8176   */\n      add\n        /* \"#utility.yul\":8150:8176   */\n      swap1\n      pop\n        /* \"#utility.yul\":8186:8257   */\n      tag_173\n        /* \"#utility.yul\":8254:8255   */\n      0x00\n        /* \"#utility.yul\":8243:8252   */\n      dup4\n        /* \"#utility.yul\":8239:8256   */\n      add\n        /* \"#utility.yul\":8230:8236   */\n      dup5\n        /* \"#utility.yul\":8186:8257   */\n      tag_72\n      jump\t// in\n    tag_173:\n        /* \"#utility.yul\":8042:8264   */\n      swap3\n      swap2\n      pop\n      pop\n      jump\t// out\n        /* \"#utility.yul\":8270:8387   */\n    tag_73:\n        /* \"#utility.yul\":8379:8380   */\n      0x00\n        /* \"#utility.yul\":8376:8377   */\n      0x00\n        /* \"#utility.yul\":8369:8381   */\n      revert\n        /* \"#utility.yul\":8393:8510   */\n    tag_74:\n        /* \"#utility.yul\":8502:8503   */\n      0x00\n        /* \"#utility.yul\":8499:8500   */\n      0x00\n        /* \"#utility.yul\":8492:8504   */\n      revert\n        /* \"#utility.yul\":8516:8633   */\n    tag_75:\n        /* \"#utility.yul\":8625:8626   */\n      0x00\n        /* \"#utility.yul\":8622:8623   */\n      0x00\n        /* \"#utility.yul\":8615:8627   */\n      revert\n        /* \"#utility.yul\":8639:9379   */\n    tag_30:\n        /* \"#utility.yul\":8732:8736   */\n      0x00\n        /* \"#utility.yul\":8738:8744   */\n      0x00\n        /* \"#utility.yul\":8794:8805   */\n      dup4\n        /* \"#utility.yul\":8781:8806   */\n      calldataload\n        /* \"#utility.yul\":8894:8895   */\n      0x01\n        /* \"#utility.yul\":8888:8892   */\n      0x20\n        /* \"#utility.yul\":8884:8896   */\n      sub\n        /* \"#utility.yul\":8873:8881   */\n      dup5\n        /* \"#utility.yul\":8857:8871   */\n      calldatasize\n        /* \"#utility.yul\":8853:8882   */\n      sub\n        /* \"#utility.yul\":8849:8897   */\n      sub\n        /* \"#utility.yul\":8829:8847   */\n      dup2\n        /* \"#utility.yul\":8825:8898   */\n      slt\n        /* \"#utility.yul\":8815:8983   */\n      tag_178\n      jumpi\n        /* \"#utility.yul\":8902:8981   */\n      tag_179\n      tag_73\n      jump\t// in\n    tag_179:\n        /* \"#utility.yul\":8815:8983   */\n    tag_178:\n        /* \"#utility.yul\":9014:9032   */\n      dup1\n        /* \"#utility.yul\":9004:9012   */\n      dup5\n        /* \"#utility.yul\":9000:9033   */\n      add\n        /* \"#utility.yul\":8992:9033   */\n      swap3\n      pop\n        /* \"#utility.yul\":9066:9070   */\n      dup3\n        /* \"#utility.yul\":9053:9071   */\n      calldataload\n        /* \"#utility.yul\":9043:9071   */\n      swap2\n      pop\n        /* \"#utility.yul\":9094:9112   */\n      0xffffffffffffffff\n        /* \"#utility.yul\":9086:9092   */\n      dup3\n        /* \"#utility.yul\":9083:9113   */\n      gt\n        /* \"#utility.yul\":9080:9197   */\n      iszero\n      tag_180\n      jumpi\n        /* \"#utility.yul\":9116:9195   */\n      tag_181\n      tag_74\n      jump\t// in\n    tag_181:\n        /* \"#utility.yul\":9080:9197   */\n    tag_180:\n        /* \"#utility.yul\":9224:9226   */\n      0x20\n        /* \"#utility.yul\":9218:9222   */\n      dup4\n        /* \"#utility.yul\":9214:9227   */\n      add\n        /* \"#utility.yul\":9206:9227   */\n      swap3\n      pop\n        /* \"#utility.yul\":9281:9285   */\n      0x20\n        /* \"#utility.yul\":9273:9279   */\n      dup3\n        /* \"#utility.yul\":9269:9286   */\n      mul\n        /* \"#utility.yul\":9253:9267   */\n      calldatasize\n        /* \"#utility.yul\":9249:9287   */\n      sub\n        /* \"#utility.yul\":9243:9247   */\n      dup4\n        /* \"#utility.yul\":9239:9288   */\n      sgt\n        /* \"#utility.yul\":9236:9372   */\n      iszero\n      tag_182\n      jumpi\n        /* \"#utility.yul\":9291:9370   */\n      tag_183\n      tag_75\n      jump\t// in\n    tag_183:\n        /* \"#utility.yul\":9236:9372   */\n    tag_182:\n        /* \"#utility.yul\":8745:9379   */\n      pop\n        /* \"#utility.yul\":8639:9379   */\n      swap3\n      pop\n      swap3\n      swap1\n      pop\n      jump\t// out\n        /* \"#utility.yul\":9385:9565   */\n    tag_33:\n        /* \"#utility.yul\":9433:9510   */\n      0x4e487b7100000000000000000000000000000000000000000000000000000000\n        /* \"#utility.yul\":9430:9431   */\n      0x00\n        /* \"#utility.yul\":9423:9511   */\n      mstore\n        /* \"#utility.yul\":9530:9534   */\n      0x32\n        /* \"#utility.yul\":9527:9528   */\n      0x04\n        /* \"#utility.yul\":9520:9535   */\n      mstore\n        /* \"#utility.yul\":9554:9558   */\n      0x24\n        /* \"#utility.yul\":9551:9552   */\n      0x00\n        /* \"#utility.yul\":9544:9559   */\n      revert\n        /* \"#utility.yul\":9571:9751   */\n    tag_76:\n        /* \"#utility.yul\":9619:9696   */\n      0x4e487b7100000000000000000000000000000000000000000000000000000000\n        /* \"#utility.yul\":9616:9617   */\n      0x00\n        /* \"#utility.yul\":9609:9697   */\n      mstore\n        /* \"#utility.yul\":9716:9720   */\n      0x11\n        /* \"#utility.yul\":9713:9714   */\n      0x04\n        /* \"#utility.yul\":9706:9721   */\n      mstore\n        /* \"#utility.yul\":9740:9744   */\n      0x24\n        /* \"#utility.yul\":9737:9738   */\n      0x00\n        /* \"#utility.yul\":9730:9745   */\n      revert\n        /* \"#utility.yul\":9757:9948   */\n    tag_37:\n        /* \"#utility.yul\":9797:9800   */\n      0x00\n        /* \"#utility.yul\":9816:9836   */\n      tag_187\n        /* \"#utility.yul\":9834:9835   */\n      dup3\n        /* \"#utility.yul\":9816:9836   */\n      tag_71\n      jump\t// in\n    tag_187:\n        /* \"#utility.yul\":9811:9836   */\n      swap2\n      pop\n        /* \"#utility.yul\":9850:9870   */\n      tag_188\n        /* \"#utility.yul\":9868:9869   */\n      dup4\n        /* \"#utility.yul\":9850:9870   */\n      tag_71\n      jump\t// in\n    tag_188:\n        /* \"#utility.yul\":9845:9870   */\n      swap3\n      pop\n        /* \"#utility.yul\":9893:9894   */\n      dup3\n        /* \"#utility.yul\":9890:9891   */\n      dup3\n        /* \"#utility.yul\":9886:9895   */\n      add\n        /* \"#utility.yul\":9879:9895   */\n      swap1\n      pop\n        /* \"#utility.yul\":9914:9917   */\n      dup1\n        /* \"#utility.yul\":9911:9912   */\n      dup3\n        /* \"#utility.yul\":9908:9918   */\n      gt\n        /* \"#utility.yul\":9905:9941   */\n      iszero\n      tag_189\n      jumpi\n        /* \"#utility.yul\":9921:9939   */\n      tag_190\n      tag_76\n      jump\t// in\n    tag_190:\n        /* \"#utility.yul\":9905:9941   */\n    tag_189:\n        /* \"#utility.yul\":9757:9948   */\n      swap3\n      swap2\n      pop\n      pop\n      jump\t// out\n        /* \"#utility.yul\":9954:10058   */\n    tag_77:\n        /* \"#utility.yul\":9999:10006   */\n      0x00\n        /* \"#utility.yul\":10028:10052   */\n      tag_192\n        /* \"#utility.yul\":10046:10051   */\n      dup3\n        /* \"#utility.yul\":10028:10052   */\n      tag_68\n      jump\t// in\n    tag_192:\n        /* \"#utility.yul\":10017:10052   */\n      swap1\n      pop\n        /* \"#utility.yul\":9954:10058   */\n      swap2\n      swap1\n      pop\n      jump\t// out\n        /* \"#utility.yul\":10064:10202   */\n    tag_78:\n        /* \"#utility.yul\":10145:10177   */\n      tag_194\n        /* \"#utility.yul\":10171:10176   */\n      dup2\n        /* \"#utility.yul\":10145:10177   */\n      tag_77\n      jump\t// in\n    tag_194:\n        /* \"#utility.yul\":10138:10143   */\n      dup2\n        /* \"#utility.yul\":10135:10178   */\n      eq\n        /* \"#utility.yul\":10125:10196   */\n      tag_195\n      jumpi\n        /* \"#utility.yul\":10192:10193   */\n      0x00\n        /* \"#utility.yul\":10189:10190   */\n      0x00\n        /* \"#utility.yul\":10182:10194   */\n      revert\n        /* \"#utility.yul\":10125:10196   */\n    tag_195:\n        /* \"#utility.yul\":10064:10202   */\n      pop\n      jump\t// out\n        /* \"#utility.yul\":10208:10363   */\n    tag_79:\n        /* \"#utility.yul\":10262:10267   */\n      0x00\n        /* \"#utility.yul\":10300:10306   */\n      dup2\n        /* \"#utility.yul\":10287:10307   */\n      calldataload\n        /* \"#utility.yul\":10278:10307   */\n      swap1\n      pop\n        /* \"#utility.yul\":10316:10357   */\n      tag_197\n        /* \"#utility.yul\":10351:10356   */\n      dup2\n        /* \"#utility.yul\":10316:10357   */\n      tag_78\n      jump\t// in\n    tag_197:\n        /* \"#utility.yul\":10208:10363   */\n      swap3\n      swap2\n      pop\n      pop\n      jump\t// out\n        /* \"#utility.yul\":10369:10714   */\n    tag_39:\n        /* \"#utility.yul\":10436:10442   */\n      0x00\n        /* \"#utility.yul\":10485:10487   */\n      0x20\n        /* \"#utility.yul\":10473:10482   */\n      dup3\n        /* \"#utility.yul\":10464:10471   */\n      dup5\n        /* \"#utility.yul\":10460:10483   */\n      sub\n        /* \"#utility.yul\":10456:10488   */\n      slt\n        /* \"#utility.yul\":10453:10572   */\n      iszero\n      tag_199\n      jumpi\n        /* \"#utility.yul\":10491:10570   */\n      tag_200\n      tag_42\n      jump\t// in\n    tag_200:\n        /* \"#utility.yul\":10453:10572   */\n    tag_199:\n        /* \"#utility.yul\":10611:10612   */\n      0x00\n        /* \"#utility.yul\":10636:10697   */\n      tag_201\n        /* \"#utility.yul\":10689:10696   */\n      dup5\n        /* \"#utility.yul\":10680:10686   */\n      dup3\n        /* \"#utility.yul\":10669:10678   */\n      dup6\n        /* \"#utility.yul\":10665:10687   */\n      add\n        /* \"#utility.yul\":10636:10697   */\n      tag_79\n      jump\t// in\n    tag_201:\n        /* \"#utility.yul\":10626:10697   */\n      swap2\n      pop\n        /* \"#utility.yul\":10582:10707   */\n      pop\n        /* \"#utility.yul\":10369:10714   */\n      swap3\n      swap2\n      pop\n      pop\n      jump\t// out\n\n    auxdata: 0xa264697066735822122059c80b13d03aefc562df1598201787ed52611b8014422f03fa959c2621d4995764736f6c634300081e0033\n}\n",
				"bytecode": {
					"linkReferences": {},
					"object": "6080604052348015600e575f5ffd5b506107848061001c5f395ff3fe608060405234801561000f575f5ffd5b506004361061004a575f3560e01c806340691db41461004e5780634585e33b1461007f5780635ced058e1461009b578063f937f910146100cb575b5f5ffd5b61006860048036038101906100639190610340565b6100e9565b604051610076929190610430565b60405180910390f35b610099600480360381019061009491906104bb565b61014e565b005b6100b560048036038101906100b09190610539565b6101c0565b6040516100c291906105a3565b60405180910390f35b6100d36101cb565b6040516100e091906105d4565b60405180910390f35b5f6060600191505f610122858060c0019061010491906105f9565b60018181106101165761011561065b565b5b905060200201356101c0565b90508060405160200161013591906105a3565b6040516020818303038152906040529150509250929050565b60015f5f82825461015f91906106b5565b925050819055505f82828101906101769190610723565b90508073ffffffffffffffffffffffffffffffffffffffff167f9dc7dc9b337aa2897cc3559260e1bf9eae7db329f1121de7c27a28fca8b2eed160405160405180910390a2505050565b5f815f1c9050919050565b5f5481565b5f604051905090565b5f5ffd5b5f5ffd5b5f5ffd5b5f61010082840312156101fb576101fa6101e1565b5b81905092915050565b5f5ffd5b5f5ffd5b5f601f19601f8301169050919050565b7f4e487b71000000000000000000000000000000000000000000000000000000005f52604160045260245ffd5b6102528261020c565b810181811067ffffffffffffffff821117156102715761027061021c565b5b80604052505050565b5f6102836101d0565b905061028f8282610249565b919050565b5f67ffffffffffffffff8211156102ae576102ad61021c565b5b6102b78261020c565b9050602081019050919050565b828183375f83830152505050565b5f6102e46102df84610294565b61027a565b905082815260208101848484011115610300576102ff610208565b5b61030b8482856102c4565b509392505050565b5f82601f83011261032757610326610204565b5b81356103378482602086016102d2565b91505092915050565b5f5f60408385031215610356576103556101d9565b5b5f83013567ffffffffffffffff811115610373576103726101dd565b5b61037f858286016101e5565b925050602083013567ffffffffffffffff8111156103a05761039f6101dd565b5b6103ac85828601610313565b9150509250929050565b5f8115159050919050565b6103ca816103b6565b82525050565b5f81519050919050565b5f82825260208201905092915050565b8281835e5f83830152505050565b5f610402826103d0565b61040c81856103da565b935061041c8185602086016103ea565b6104258161020c565b840191505092915050565b5f6040820190506104435f8301856103c1565b818103602083015261045581846103f8565b90509392505050565b5f5ffd5b5f5ffd5b5f5f83601f84011261047b5761047a610204565b5b8235905067ffffffffffffffff8111156104985761049761045e565b5b6020830191508360018202830111156104b4576104b3610462565b5b9250929050565b5f5f602083850312156104d1576104d06101d9565b5b5f83013567ffffffffffffffff8111156104ee576104ed6101dd565b5b6104fa85828601610466565b92509250509250929050565b5f819050919050565b61051881610506565b8114610522575f5ffd5b50565b5f813590506105338161050f565b92915050565b5f6020828403121561054e5761054d6101d9565b5b5f61055b84828501610525565b91505092915050565b5f73ffffffffffffffffffffffffffffffffffffffff82169050919050565b5f61058d82610564565b9050919050565b61059d81610583565b82525050565b5f6020820190506105b65f830184610594565b92915050565b5f819050919050565b6105ce816105bc565b82525050565b5f6020820190506105e75f8301846105c5565b92915050565b5f5ffd5b5f5ffd5b5f5ffd5b5f5f83356001602003843603038112610615576106146105ed565b5b80840192508235915067ffffffffffffffff821115610637576106366105f1565b5b602083019250602082023603831315610653576106526105f5565b5b509250929050565b7f4e487b71000000000000000000000000000000000000000000000000000000005f52603260045260245ffd5b7f4e487b71000000000000000000000000000000000000000000000000000000005f52601160045260245ffd5b5f6106bf826105bc565b91506106ca836105bc565b92508282019050808211156106e2576106e1610688565b5b92915050565b5f6106f282610564565b9050919050565b610702816106e8565b811461070c575f5ffd5b50565b5f8135905061071d816106f9565b92915050565b5f60208284031215610738576107376101d9565b5b5f6107458482850161070f565b9150509291505056fea264697066735822122059c80b13d03aefc562df1598201787ed52611b8014422f03fa959c2621d4995764736f6c634300081e0033",
					"opcodes": "PUSH1 0x80 PUSH1 0x40 MSTORE CALLVALUE DUP1 ISZERO PUSH1 0xE JUMPI PUSH0 PUSH0 REVERT JUMPDEST POP PUSH2 0x784 DUP1 PUSH2 0x1C PUSH0 CODECOPY PUSH0 RETURN INVALID PUSH1 0x80 PUSH1 0x40 MSTORE CALLVALUE DUP1 ISZERO PUSH2 0xF JUMPI PUSH0 PUSH0 REVERT JUMPDEST POP PUSH1 0x4 CALLDATASIZE LT PUSH2 0x4A JUMPI PUSH0 CALLDATALOAD PUSH1 0xE0 SHR DUP1 PUSH4 0x40691DB4 EQ PUSH2 0x4E JUMPI DUP1 PUSH4 0x4585E33B EQ PUSH2 0x7F JUMPI DUP1 PUSH4 0x5CED058E EQ PUSH2 0x9B JUMPI DUP1 PUSH4 0xF937F910 EQ PUSH2 0xCB JUMPI JUMPDEST PUSH0 PUSH0 REVERT JUMPDEST PUSH2 0x68 PUSH1 0x4 DUP1 CALLDATASIZE SUB DUP2 ADD SWAP1 PUSH2 0x63 SWAP2 SWAP1 PUSH2 0x340 JUMP JUMPDEST PUSH2 0xE9 JUMP JUMPDEST PUSH1 0x40 MLOAD PUSH2 0x76 SWAP3 SWAP2 SWAP1 PUSH2 0x430 JUMP JUMPDEST PUSH1 0x40 MLOAD DUP1 SWAP2 SUB SWAP1 RETURN JUMPDEST PUSH2 0x99 PUSH1 0x4 DUP1 CALLDATASIZE SUB DUP2 ADD SWAP1 PUSH2 0x94 SWAP2 SWAP1 PUSH2 0x4BB JUMP JUMPDEST PUSH2 0x14E JUMP JUMPDEST STOP JUMPDEST PUSH2 0xB5 PUSH1 0x4 DUP1 CALLDATASIZE SUB DUP2 ADD SWAP1 PUSH2 0xB0 SWAP2 SWAP1 PUSH2 0x539 JUMP JUMPDEST PUSH2 0x1C0 JUMP JUMPDEST PUSH1 0x40 MLOAD PUSH2 0xC2 SWAP2 SWAP1 PUSH2 0x5A3 JUMP JUMPDEST PUSH1 0x40 MLOAD DUP1 SWAP2 SUB SWAP1 RETURN JUMPDEST PUSH2 0xD3 PUSH2 0x1CB JUMP JUMPDEST PUSH1 0x40 MLOAD PUSH2 0xE0 SWAP2 SWAP1 PUSH2 0x5D4 JUMP JUMPDEST PUSH1 0x40 MLOAD DUP1 SWAP2 SUB SWAP1 RETURN JUMPDEST PUSH0 PUSH1 0x60 PUSH1 0x1 SWAP2 POP PUSH0 PUSH2 0x122 DUP6 DUP1 PUSH1 0xC0 ADD SWAP1 PUSH2 0x104 SWAP2 SWAP1 PUSH2 0x5F9 JUMP JUMPDEST PUSH1 0x1 DUP2 DUP2 LT PUSH2 0x116 JUMPI PUSH2 0x115 PUSH2 0x65B JUMP JUMPDEST JUMPDEST SWAP1 POP PUSH1 0x20 MUL ADD CALLDATALOAD PUSH2 0x1C0 JUMP JUMPDEST SWAP1 POP DUP1 PUSH1 0x40 MLOAD PUSH1 0x20 ADD PUSH2 0x135 SWAP2 SWAP1 PUSH2 0x5A3 JUMP JUMPDEST PUSH1 0x40 MLOAD PUSH1 0x20 DUP2 DUP4 SUB SUB DUP2 MSTORE SWAP1 PUSH1 0x40 MSTORE SWAP2 POP POP SWAP3 POP SWAP3 SWAP1 POP JUMP JUMPDEST PUSH1 0x1 PUSH0 PUSH0 DUP3 DUP3 SLOAD PUSH2 0x15F SWAP2 SWAP1 PUSH2 0x6B5 JUMP JUMPDEST SWAP3 POP POP DUP2 SWAP1 SSTORE POP PUSH0 DUP3 DUP3 DUP2 ADD SWAP1 PUSH2 0x176 SWAP2 SWAP1 PUSH2 0x723 JUMP JUMPDEST SWAP1 POP DUP1 PUSH20 0xFFFFFFFFFFFFFFFFFFFFFFFFFFFFFFFFFFFFFFFF AND PUSH32 0x9DC7DC9B337AA2897CC3559260E1BF9EAE7DB329F1121DE7C27A28FCA8B2EED1 PUSH1 0x40 MLOAD PUSH1 0x40 MLOAD DUP1 SWAP2 SUB SWAP1 LOG2 POP POP POP JUMP JUMPDEST PUSH0 DUP2 PUSH0 SHR SWAP1 POP SWAP2 SWAP1 POP JUMP JUMPDEST PUSH0 SLOAD DUP2 JUMP JUMPDEST PUSH0 PUSH1 0x40 MLOAD SWAP1 POP SWAP1 JUMP JUMPDEST PUSH0 PUSH0 REVERT JUMPDEST PUSH0 PUSH0 REVERT JUMPDEST PUSH0 PUSH0 REVERT JUMPDEST PUSH0 PUSH2 0x100 DUP3 DUP5 SUB SLT ISZERO PUSH2 0x1FB JUMPI PUSH2 0x1FA PUSH2 0x1E1 JUMP JUMPDEST JUMPDEST DUP2 SWAP1 POP SWAP3 SWAP2 POP POP JUMP JUMPDEST PUSH0 PUSH0 REVERT JUMPDEST PUSH0 PUSH0 REVERT JUMPDEST PUSH0 PUSH1 0x1F NOT PUSH1 0x1F DUP4 ADD AND SWAP1 POP SWAP2 SWAP1 POP JUMP JUMPDEST PUSH32 0x4E487B7100000000000000000000000000000000000000000000000000000000 PUSH0 MSTORE PUSH1 0x41 PUSH1 0x4 MSTORE PUSH1 0x24 PUSH0 REVERT JUMPDEST PUSH2 0x252 DUP3 PUSH2 0x20C JUMP JUMPDEST DUP2 ADD DUP2 DUP2 LT PUSH8 0xFFFFFFFFFFFFFFFF DUP3 GT OR ISZERO PUSH2 0x271 JUMPI PUSH2 0x270 PUSH2 0x21C JUMP JUMPDEST JUMPDEST DUP1 PUSH1 0x40 MSTORE POP POP POP JUMP JUMPDEST PUSH0 PUSH2 0x283 PUSH2 0x1D0 JUMP JUMPDEST SWAP1 POP PUSH2 0x28F DUP3 DUP3 PUSH2 0x249 JUMP JUMPDEST SWAP2 SWAP1 POP JUMP JUMPDEST PUSH0 PUSH8 0xFFFFFFFFFFFFFFFF DUP3 GT ISZERO PUSH2 0x2AE JUMPI PUSH2 0x2AD PUSH2 0x21C JUMP JUMPDEST JUMPDEST PUSH2 0x2B7 DUP3 PUSH2 0x20C JUMP JUMPDEST SWAP1 POP PUSH1 0x20 DUP2 ADD SWAP1 POP SWAP2 SWAP1 POP JUMP JUMPDEST DUP3 DUP2 DUP4 CALLDATACOPY PUSH0 DUP4 DUP4 ADD MSTORE POP POP POP JUMP JUMPDEST PUSH0 PUSH2 0x2E4 PUSH2 0x2DF DUP5 PUSH2 0x294 JUMP JUMPDEST PUSH2 0x27A JUMP JUMPDEST SWAP1 POP DUP3 DUP2 MSTORE PUSH1 0x20 DUP2 ADD DUP5 DUP5 DUP5 ADD GT ISZERO PUSH2 0x300 JUMPI PUSH2 0x2FF PUSH2 0x208 JUMP JUMPDEST JUMPDEST PUSH2 0x30B DUP5 DUP3 DUP6 PUSH2 0x2C4 JUMP JUMPDEST POP SWAP4 SWAP3 POP POP POP JUMP JUMPDEST PUSH0 DUP3 PUSH1 0x1F DUP4 ADD SLT PUSH2 0x327 JUMPI PUSH2 0x326 PUSH2 0x204 JUMP JUMPDEST JUMPDEST DUP2 CALLDATALOAD PUSH2 0x337 DUP5 DUP3 PUSH1 0x20 DUP7 ADD PUSH2 0x2D2 JUMP JUMPDEST SWAP2 POP POP SWAP3 SWAP2 POP POP JUMP JUMPDEST PUSH0 PUSH0 PUSH1 0x40 DUP4 DUP6 SUB SLT ISZERO PUSH2 0x356 JUMPI PUSH2 0x355 PUSH2 0x1D9 JUMP JUMPDEST JUMPDEST PUSH0 DUP4 ADD CALLDATALOAD PUSH8 0xFFFFFFFFFFFFFFFF DUP2 GT ISZERO PUSH2 0x373 JUMPI PUSH2 0x372 PUSH2 0x1DD JUMP JUMPDEST JUMPDEST PUSH2 0x37F DUP6 DUP3 DUP7 ADD PUSH2 0x1E5 JUMP JUMPDEST SWAP3 POP POP PUSH1 0x20 DUP4 ADD CALLDATALOAD PUSH8 0xFFFFFFFFFFFFFFFF DUP2 GT ISZERO PUSH2 0x3A0 JUMPI PUSH2 0x39F PUSH2 0x1DD JUMP JUMPDEST JUMPDEST PUSH2 0x3AC DUP6 DUP3 DUP7 ADD PUSH2 0x313 JUMP JUMPDEST SWAP2 POP POP SWAP3 POP SWAP3 SWAP1 POP JUMP JUMPDEST PUSH0 DUP2 ISZERO ISZERO SWAP1 POP SWAP2 SWAP1 POP JUMP JUMPDEST PUSH2 0x3CA DUP2 PUSH2 0x3B6 JUMP JUMPDEST DUP3 MSTORE POP POP JUMP JUMPDEST PUSH0 DUP2 MLOAD SWAP1 POP SWAP2 SWAP1 POP JUMP JUMPDEST PUSH0 DUP3 DUP3 MSTORE PUSH1 0x20 DUP3 ADD SWAP1 POP SWAP3 SWAP2 POP POP JUMP JUMPDEST DUP3 DUP2 DUP4 MCOPY PUSH0 DUP4 DUP4 ADD MSTORE POP POP POP JUMP JUMPDEST PUSH0 PUSH2 0x402 DUP3 PUSH2 0x3D0 JUMP JUMPDEST PUSH2 0x40C DUP2 DUP6 PUSH2 0x3DA JUMP JUMPDEST SWAP4 POP PUSH2 0x41C DUP2 DUP6 PUSH1 0x20 DUP7 ADD PUSH2 0x3EA JUMP JUMPDEST PUSH2 0x425 DUP2 PUSH2 0x20C JUMP JUMPDEST DUP5 ADD SWAP2 POP POP SWAP3 SWAP2 POP POP JUMP JUMPDEST PUSH0 PUSH1 0x40 DUP3 ADD SWAP1 POP PUSH2 0x443 PUSH0 DUP4 ADD DUP6 PUSH2 0x3C1 JUMP JUMPDEST DUP2 DUP2 SUB PUSH1 0x20 DUP4 ADD MSTORE PUSH2 0x455 DUP2 DUP5 PUSH2 0x3F8 JUMP JUMPDEST SWAP1 POP SWAP4 SWAP3 POP POP POP JUMP JUMPDEST PUSH0 PUSH0 REVERT JUMPDEST PUSH0 PUSH0 REVERT JUMPDEST PUSH0 PUSH0 DUP4 PUSH1 0x1F DUP5 ADD SLT PUSH2 0x47B JUMPI PUSH2 0x47A PUSH2 0x204 JUMP JUMPDEST JUMPDEST DUP3 CALLDATALOAD SWAP1 POP PUSH8 0xFFFFFFFFFFFFFFFF DUP2 GT ISZERO PUSH2 0x498 JUMPI PUSH2 0x497 PUSH2 0x45E JUMP JUMPDEST JUMPDEST PUSH1 0x20 DUP4 ADD SWAP2 POP DUP4 PUSH1 0x1 DUP3 MUL DUP4 ADD GT ISZERO PUSH2 0x4B4 JUMPI PUSH2 0x4B3 PUSH2 0x462 JUMP JUMPDEST JUMPDEST SWAP3 POP SWAP3 SWAP1 POP JUMP JUMPDEST PUSH0 PUSH0 PUSH1 0x20 DUP4 DUP6 SUB SLT ISZERO PUSH2 0x4D1 JUMPI PUSH2 0x4D0 PUSH2 0x1D9 JUMP JUMPDEST JUMPDEST PUSH0 DUP4 ADD CALLDATALOAD PUSH8 0xFFFFFFFFFFFFFFFF DUP2 GT ISZERO PUSH2 0x4EE JUMPI PUSH2 0x4ED PUSH2 0x1DD JUMP JUMPDEST JUMPDEST PUSH2 0x4FA DUP6 DUP3 DUP7 ADD PUSH2 0x466 JUMP JUMPDEST SWAP3 POP SWAP3 POP POP SWAP3 POP SWAP3 SWAP1 POP JUMP JUMPDEST PUSH0 DUP2 SWAP1 POP SWAP2 SWAP1 POP JUMP JUMPDEST PUSH2 0x518 DUP2 PUSH2 0x506 JUMP JUMPDEST DUP2 EQ PUSH2 0x522 JUMPI PUSH0 PUSH0 REVERT JUMPDEST POP JUMP JUMPDEST PUSH0 DUP2 CALLDATALOAD SWAP1 POP PUSH2 0x533 DUP2 PUSH2 0x50F JUMP JUMPDEST SWAP3 SWAP2 POP POP JUMP JUMPDEST PUSH0 PUSH1 0x20 DUP3 DUP5 SUB SLT ISZERO PUSH2 0x54E JUMPI PUSH2 0x54D PUSH2 0x1D9 JUMP JUMPDEST JUMPDEST PUSH0 PUSH2 0x55B DUP5 DUP3 DUP6 ADD PUSH2 0x525 JUMP JUMPDEST SWAP2 POP POP SWAP3 SWAP2 POP POP JUMP JUMPDEST PUSH0 PUSH20 0xFFFFFFFFFFFFFFFFFFFFFFFFFFFFFFFFFFFFFFFF DUP3 AND SWAP1 POP SWAP2 SWAP1 POP JUMP JUMPDEST PUSH0 PUSH2 0x58D DUP3 PUSH2 0x564 JUMP JUMPDEST SWAP1 POP SWAP2 SWAP1 POP JUMP JUMPDEST PUSH2 0x59D DUP2 PUSH2 0x583 JUMP JUMPDEST DUP3 MSTORE POP POP JUMP JUMPDEST PUSH0 PUSH1 0x20 DUP3 ADD SWAP1 POP PUSH2 0x5B6 PUSH0 DUP4 ADD DUP5 PUSH2 0x594 JUMP JUMPDEST SWAP3 SWAP2 POP POP JUMP JUMPDEST PUSH0 DUP2 SWAP1 POP SWAP2 SWAP1 POP JUMP JUMPDEST PUSH2 0x5CE DUP2 PUSH2 0x5BC JUMP JUMPDEST DUP3 MSTORE POP POP JUMP JUMPDEST PUSH0 PUSH1 0x20 DUP3 ADD SWAP1 POP PUSH2 0x5E7 PUSH0 DUP4 ADD DUP5 PUSH2 0x5C5 JUMP JUMPDEST SWAP3 SWAP2 POP POP JUMP JUMPDEST PUSH0 PUSH0 REVERT JUMPDEST PUSH0 PUSH0 REVERT JUMPDEST PUSH0 PUSH0 REVERT JUMPDEST PUSH0 PUSH0 DUP4 CALLDATALOAD PUSH1 0x1 PUSH1 0x20 SUB DUP5 CALLDATASIZE SUB SUB DUP2 SLT PUSH2 0x615 JUMPI PUSH2 0x614 PUSH2 0x5ED JUMP JUMPDEST JUMPDEST DUP1 DUP5 ADD SWAP3 POP DUP3 CALLDATALOAD SWAP2 POP PUSH8 0xFFFFFFFFFFFFFFFF DUP3 GT ISZERO PUSH2 0x637 JUMPI PUSH2 0x636 PUSH2 0x5F1 JUMP JUMPDEST JUMPDEST PUSH1 0x20 DUP4 ADD SWAP3 POP PUSH1 0x20 DUP3 MUL CALLDATASIZE SUB DUP4 SGT ISZERO PUSH2 0x653 JUMPI PUSH2 0x652 PUSH2 0x5F5 JUMP JUMPDEST JUMPDEST POP SWAP3 POP SWAP3 SWAP1 POP JUMP JUMPDEST PUSH32 0x4E487B7100000000000000000000000000000000000000000000000000000000 PUSH0 MSTORE PUSH1 0x32 PUSH1 0x4 MSTORE PUSH1 0x24 PUSH0 REVERT JUMPDEST PUSH32 0x4E487B7100000000000000000000000000000000000000000000000000000000 PUSH0 MSTORE PUSH1 0x11 PUSH1 0x4 MSTORE PUSH1 0x24 PUSH0 REVERT JUMPDEST PUSH0 PUSH2 0x6BF DUP3 PUSH2 0x5BC JUMP JUMPDEST SWAP2 POP PUSH2 0x6CA DUP4 PUSH2 0x5BC JUMP JUMPDEST SWAP3 POP DUP3 DUP3 ADD SWAP1 POP DUP1 DUP3 GT ISZERO PUSH2 0x6E2 JUMPI PUSH2 0x6E1 PUSH2 0x688 JUMP JUMPDEST JUMPDEST SWAP3 SWAP2 POP POP JUMP JUMPDEST PUSH0 PUSH2 0x6F2 DUP3 PUSH2 0x564 JUMP JUMPDEST SWAP1 POP SWAP2 SWAP1 POP JUMP JUMPDEST PUSH2 0x702 DUP2 PUSH2 0x6E8 JUMP JUMPDEST DUP2 EQ PUSH2 0x70C JUMPI PUSH0 PUSH0 REVERT JUMPDEST POP JUMP JUMPDEST PUSH0 DUP2 CALLDATALOAD SWAP1 POP PUSH2 0x71D DUP2 PUSH2 0x6F9 JUMP JUMPDEST SWAP3 SWAP2 POP POP JUMP JUMPDEST PUSH0 PUSH1 0x20 DUP3 DUP5 SUB SLT ISZERO PUSH2 0x738 JUMPI PUSH2 0x737 PUSH2 0x1D9 JUMP JUMPDEST JUMPDEST PUSH0 PUSH2 0x745 DUP5 DUP3 DUP6 ADD PUSH2 0x70F JUMP JUMPDEST SWAP2 POP POP SWAP3 SWAP2 POP POP JUMP INVALID LOG2 PUSH5 0x6970667358 0x22 SLT KECCAK256 MSIZE 0xC8 SIGNEXTEND SGT 0xD0 GASPRICE 0xEF 0xC5 PUSH3 0xDF1598 KECCAK256 OR DUP8 0xED MSTORE PUSH2 0x1B80 EQ TIMESTAMP 0x2F SUB STATICCALL SWAP6 SWAP13 0x26 0x21 0xD4 SWAP10 JUMPI PUSH5 0x736F6C6343 STOP ADDMOD 0x1E STOP CALLER "
				},
				"gasEstimates": {
					"creation": {
						"codeDepositCost": "384800",
						"executionCost": "422",
						"totalCost": "385222"
					},
					"external": {
						"bytes32ToAddress(bytes32)": "668",
						"checkLog((uint256,uint256,bytes32,uint256,bytes32,address,bytes32[],bytes),bytes)": "infinite",
						"counted()": "2468",
						"performUpkeep(bytes)": "infinite"
					}
				},
				"methodIdentifiers": {
					"bytes32ToAddress(bytes32)": "5ced058e",
					"checkLog((uint256,uint256,bytes32,uint256,bytes32,address,bytes32[],bytes),bytes)": "40691db4",
					"counted()": "f937f910",
					"performUpkeep(bytes)": "4585e33b"
				}
			},
			"storageLayout": {
				"storage": [
					{
						"astId": 53,
						"contract": "LogTriggerAutomation/LogTrigger.sol:LogTrigger",
						"label": "counted",
						"offset": 0,
						"slot": "0",
						"type": "t_uint256"
					}
				],
				"types": {
					"t_uint256": {
						"encoding": "inplace",
						"label": "uint256",
						"numberOfBytes": "32"
					}
				}
			},
			"userdoc": {
				"kind": "user",
				"methods": {
					"performUpkeep(bytes)": {
						"notice": "method that is actually executed by the keepers, via the registry. The data returned by the checkUpkeep simulation will be passed into this method to actually be executed."
					}
				},
				"version": 1
			}
		}
	}
}