{
	"LogTriggerAutomation/EventEmitter.sol": {
		"EventEmitter": {
			"abi": [
				{
					"inputs": [],
					"stateMutability": "nonpayable",
					"type": "constructor"
				},
				{
					"anonymous": false,
					"inputs": [
						{
							"indexed": true,
							"internalType": "address",
							"name": "msgSender",
							"type": "address"
						}
					],
					"name": "WantsToCount",
					"type": "event"
				},
				{
					"inputs": [],
					"name": "emitCountLog",
					"outputs": [],
					"stateMutability": "nonpayable",
					"type": "function"
				}
			],
			"devdoc": {
				"kind": "dev",
				"methods": {},
				"version": 1
			},
			"evm": {
				"assembly": "    /* \"LogTriggerAutomation/EventEmitter.sol\":63:260  contract EventEmitter {  ... */\n  mstore(0x40, 0x80)\n    /* \"LogTriggerAutomation/EventEmitter.sol\":148:164  constructor() {} */\n  callvalue\n  dup1\n  iszero\n  tag_1\n  jumpi\n  revert(0x00, 0x00)\ntag_1:\n  pop\n    /* \"LogTriggerAutomation/EventEmitter.sol\":63:260  contract EventEmitter {  ... */\n  dataSize(sub_0)\n  dup1\n  dataOffset(sub_0)\n  0x00\n  codecopy\n  0x00\n  return\nstop\n\nsub_0: assembly {\n        /* \"LogTriggerAutomation/EventEmitter.sol\":63:260  contract EventEmitter {  ... */\n      mstore(0x40, 0x80)\n      callvalue\n      dup1\n      iszero\n      tag_1\n      jumpi\n      revert(0x00, 0x00)\n    tag_1:\n      pop\n      jumpi(tag_2, lt(calldatasize, 0x04))\n      shr(0xe0, calldataload(0x00))\n      dup1\n      0x3ebca8e1\n      eq\n      tag_3\n      jumpi\n    tag_2:\n      revert(0x00, 0x00)\n        /* \"LogTriggerAutomation/EventEmitter.sol\":172:255  function emitCountLog() public {  ... */\n    tag_3:\n      tag_4\n      tag_5\n      jump\t// in\n    tag_4:\n      stop\n    tag_5:\n        /* \"LogTriggerAutomation/EventEmitter.sol\":234:244  msg.sender */\n      caller\n        /* \"LogTriggerAutomation/EventEmitter.sol\":221:245  WantsToCount(msg.sender) */\n      0xffffffffffffffffffffffffffffffffffffffff\n      and\n      0xe3cba3b68882650dc76730e77105080229f9f61f5c33b10e9aa239ff26d01d94\n      mload(0x40)\n      mload(0x40)\n      dup1\n      swap2\n      sub\n      swap1\n      log2\n        /* \"LogTriggerAutomation/EventEmitter.sol\":172:255  function emitCountLog() public {  ... */\n      jump\t// out\n\n    auxdata: 0xa2646970667358221220664161934cca009238b58aad5bebf5f4410f4e299efda7e0337d03dfb2c1e4c864736f6c634300081e0033\n}\n",
				"bytecode": {
					"linkReferences": {},
					"object": "6080604052348015600e575f5ffd5b5060ad80601a5f395ff3fe6080604052348015600e575f5ffd5b50600436106026575f3560e01c80633ebca8e114602a575b5f5ffd5b60306032565b005b3373ffffffffffffffffffffffffffffffffffffffff167fe3cba3b68882650dc76730e77105080229f9f61f5c33b10e9aa239ff26d01d9460405160405180910390a256fea2646970667358221220664161934cca009238b58aad5bebf5f4410f4e299efda7e0337d03dfb2c1e4c864736f6c634300081e0033",
					"opcodes": "PUSH1 0x80 PUSH1 0x40 MSTORE CALLVALUE DUP1 ISZERO PUSH1 0xE JUMPI PUSH0 PUSH0 REVERT JUMPDEST POP PUSH1 0xAD DUP1 PUSH1 0x1A PUSH0 CODECOPY PUSH0 RETURN INVALID PUSH1 0x80 PUSH1 0x40 MSTORE CALLVALUE DUP1 ISZERO PUSH1 0xE JUMPI PUSH0 PUSH0 REVERT JUMPDEST POP PUSH1 0x4 CALLDATASIZE LT PUSH1 0x26 JUMPI PUSH0 CALLDATALOAD PUSH1 0xE0 SHR DUP1 PUSH4 0x3EBCA8E1 EQ PUSH1 0x2A JUMPI JUMPDEST PUSH0 PUSH0 REVERT JUMPDEST PUSH1 0x30 PUSH1 0x32 JUMP JUMPDEST STOP JUMPDEST CALLER PUSH20 0xFFFFFFFFFFFFFFFFFFFFFFFFFFFFFFFFFFFFFFFF AND PUSH32 0xE3CBA3B68882650DC76730E77105080229F9F61F5C33B10E9AA239FF26D01D94 PUSH1 0x40 MLOAD PUSH1 0x40 MLOAD DUP1 SWAP2 SUB SWAP1 LOG2 JUMP INVALID LOG2 PUSH5 0x6970667358 0x22 SLT KECCAK256 PUSH7 0x4161934CCA0092 CODESIZE 0xB5 DUP11 0xAD JUMPDEST 0xEB CREATE2 DELEGATECALL COINBASE 0xF 0x4E 0x29 SWAP15 REVERT 0xA7 RJUMP 0x337D SUB 0xDF 0xB2 0xC1 RETF 0xC8 PUSH5 0x736F6C6343 STOP ADDMOD 0x1E STOP CALLER "
				},
				"gasEstimates": {
					"creation": {
						"codeDepositCost": "34600",
						"executionCost": "85",
						"totalCost": "34685"
					},
					"external": {
						"emitCountLog()": "1281"
					}
				},
				"methodIdentifiers": {
					"emitCountLog()": "3ebca8e1"
				}
			},
			"storageLayout": {
				"storage": [],
				"types": null
			},
			"userdoc": {
				"kind": "user",
				"methods": {},
				"version": 1
			}
		}
	}
}