{
	"CCIP/ccipTokenSender.sol": {
		"CCIPTokenSender": {
			"abi": [
				{
					"inputs": [],
					"stateMutability": "nonpayable",
					"type": "constructor"
				},
				{
					"inputs": [
						{
							"internalType": "contract IERC20",
							"name": "token",
							"type": "address"
						},
						{
							"internalType": "uint256",
							"name": "currentBalance",
							"type": "uint256"
						},
						{
							"internalType": "uint256",
							"name": "requiredAmount",
							"type": "uint256"
						}
					],
					"name": "CCIPTokenSender__InsufficientBalance",
					"type": "error"
				},
				{
					"inputs": [],
					"name": "CCIPTokenSender__NothingToWithdraw",
					"type": "error"
				},
				{
					"inputs": [
						{
							"internalType": "address",
							"name": "owner",
							"type": "address"
						}
					],
					"name": "OwnableInvalidOwner",
					"type": "error"
				},
				{
					"inputs": [
						{
							"internalType": "address",
							"name": "account",
							"type": "address"
						}
					],
					"name": "OwnableUnauthorizedAccount",
					"type": "error"
				},
				{
					"anonymous": false,
					"inputs": [
						{
							"indexed": true,
							"internalType": "address",
							"name": "previousOwner",
							"type": "address"
						},
						{
							"indexed": true,
							"internalType": "address",
							"name": "newOwner",
							"type": "address"
						}
					],
					"name": "OwnershipTransferred",
					"type": "event"
				},
				{
					"anonymous": false,
					"inputs": [
						{
							"indexed": false,
							"internalType": "bytes32",
							"name": "messageId",
							"type": "bytes32"
						},
						{
							"indexed": true,
							"internalType": "uint64",
							"name": "destinationChainSelector",
							"type": "uint64"
						},
						{
							"indexed": true,
							"internalType": "address",
							"name": "receiver",
							"type": "address"
						},
						{
							"indexed": false,
							"internalType": "uint256",
							"name": "amount",
							"type": "uint256"
						},
						{
							"indexed": false,
							"internalType": "uint256",
							"name": "ccipFee",
							"type": "uint256"
						}
					],
					"name": "USDCTransferred",
					"type": "event"
				},
				{
					"inputs": [],
					"name": "owner",
					"outputs": [
						{
							"internalType": "address",
							"name": "",
							"type": "address"
						}
					],
					"stateMutability": "view",
					"type": "function"
				},
				{
					"inputs": [],
					"name": "renounceOwnership",
					"outputs": [],
					"stateMutability": "nonpayable",
					"type": "function"
				},
				{
					"inputs": [
						{
							"internalType": "address",
							"name": "newOwner",
							"type": "address"
						}
					],
					"name": "transferOwnership",
					"outputs": [],
					"stateMutability": "nonpayable",
					"type": "function"
				},
				{
					"inputs": [
						{
							"internalType": "address",
							"name": "_receiver",
							"type": "address"
						},
						{
							"internalType": "uint256",
							"name": "_amount",
							"type": "uint256"
						}
					],
					"name": "transferTokens",
					"outputs": [
						{
							"internalType": "bytes32",
							"name": "messageId",
							"type": "bytes32"
						}
					],
					"stateMutability": "nonpayable",
					"type": "function"
				},
				{
					"inputs": [
						{
							"internalType": "address",
							"name": "_beneficiary",
							"type": "address"
						}
					],
					"name": "withdrawToken",
					"outputs": [],
					"stateMutability": "nonpayable",
					"type": "function"
				}
			],
			"devdoc": {
				"errors": {
					"OwnableInvalidOwner(address)": [
						{
							"details": "The owner is not a valid owner account. (eg. `address(0)`)"
						}
					],
					"OwnableUnauthorizedAccount(address)": [
						{
							"details": "The caller account is not authorized to perform an operation."
						}
					]
				},
				"kind": "dev",
				"methods": {
					"owner()": {
						"details": "Returns the address of the current owner."
					},
					"renounceOwnership()": {
						"details": "Leaves the contract without owner. It will not be possible to call `onlyOwner` functions. Can only be called by the current owner. NOTE: Renouncing ownership will leave the contract without an owner, thereby disabling any functionality that is only available to the owner."
					},
					"transferOwnership(address)": {
						"details": "Transfers ownership of the contract to a new account (`newOwner`). Can only be called by the current owner."
					}
				},
				"version": 1
			},
			"evm": {
				"assembly": "    /* \"CCIP/ccipTokenSender.sol\":780:4088  contract CCIPTokenSender is Ownable {... */\n  mstore(0x40, 0x80)\n    /* \"CCIP/ccipTokenSender.sol\":1954:1990  constructor() Ownable(msg.sender) {} */\n  callvalue\n  dup1\n  iszero\n  tag_1\n  jumpi\n  revert(0x00, 0x00)\ntag_1:\n  pop\n    /* \"CCIP/ccipTokenSender.sol\":1976:1986  msg.sender */\n  caller\n    /* \"@openzeppelin/contracts@5.2.0/access/Ownable.sol\":1297:1298  0 */\n  0x00\n    /* \"@openzeppelin/contracts@5.2.0/access/Ownable.sol\":1273:1299  initialOwner == address(0) */\n  0xffffffffffffffffffffffffffffffffffffffff\n  and\n    /* \"@openzeppelin/contracts@5.2.0/access/Ownable.sol\":1273:1285  initialOwner */\n  dup2\n    /* \"@openzeppelin/contracts@5.2.0/access/Ownable.sol\":1273:1299  initialOwner == address(0) */\n  0xffffffffffffffffffffffffffffffffffffffff\n  and\n  sub\n    /* \"@openzeppelin/contracts@5.2.0/access/Ownable.sol\":1269:1364  if (initialOwner == address(0)) {... */\n  tag_5\n  jumpi\n    /* \"@openzeppelin/contracts@5.2.0/access/Ownable.sol\":1350:1351  0 */\n  0x00\n    /* \"@openzeppelin/contracts@5.2.0/access/Ownable.sol\":1322:1353  OwnableInvalidOwner(address(0)) */\n  mload(0x40)\n  0x1e4fbdf700000000000000000000000000000000000000000000000000000000\n  dup2\n  mstore\n  0x04\n  add\n  tag_6\n  swap2\n  swap1\n  tag_7\n  jump\t// in\ntag_6:\n  mload(0x40)\n  dup1\n  swap2\n  sub\n  swap1\n  revert\n    /* \"@openzeppelin/contracts@5.2.0/access/Ownable.sol\":1269:1364  if (initialOwner == address(0)) {... */\ntag_5:\n    /* \"@openzeppelin/contracts@5.2.0/access/Ownable.sol\":1373:1405  _transferOwnership(initialOwner) */\n  tag_8\n    /* \"@openzeppelin/contracts@5.2.0/access/Ownable.sol\":1392:1404  initialOwner */\n  dup2\n    /* \"@openzeppelin/contracts@5.2.0/access/Ownable.sol\":1373:1391  _transferOwnership */\n  shl(0x20, tag_9)\n    /* \"@openzeppelin/contracts@5.2.0/access/Ownable.sol\":1373:1405  _transferOwnership(initialOwner) */\n  0x20\n  shr\n  jump\t// in\ntag_8:\n    /* \"@openzeppelin/contracts@5.2.0/access/Ownable.sol\":1225:1412  constructor(address initialOwner) {... */\n  pop\n    /* \"CCIP/ccipTokenSender.sol\":780:4088  contract CCIPTokenSender is Ownable {... */\n  jump(tag_11)\n    /* \"@openzeppelin/contracts@5.2.0/access/Ownable.sol\":2912:3099  function _transferOwnership(address newOwner) internal virtual {... */\ntag_9:\n    /* \"@openzeppelin/contracts@5.2.0/access/Ownable.sol\":2985:3001  address oldOwner */\n  0x00\n    /* \"@openzeppelin/contracts@5.2.0/access/Ownable.sol\":3004:3010  _owner */\n  0x00\n  0x00\n  swap1\n  sload\n  swap1\n  0x0100\n  exp\n  swap1\n  div\n  0xffffffffffffffffffffffffffffffffffffffff\n  and\n    /* \"@openzeppelin/contracts@5.2.0/access/Ownable.sol\":2985:3010  address oldOwner = _owner */\n  swap1\n  pop\n    /* \"@openzeppelin/contracts@5.2.0/access/Ownable.sol\":3029:3037  newOwner */\n  dup2\n    /* \"@openzeppelin/contracts@5.2.0/access/Ownable.sol\":3020:3026  _owner */\n  0x00\n  0x00\n    /* \"@openzeppelin/contracts@5.2.0/access/Ownable.sol\":3020:3037  _owner = newOwner */\n  0x0100\n  exp\n  dup2\n  sload\n  dup2\n  0xffffffffffffffffffffffffffffffffffffffff\n  mul\n  not\n  and\n  swap1\n  dup4\n  0xffffffffffffffffffffffffffffffffffffffff\n  and\n  mul\n  or\n  swap1\n  sstore\n  pop\n    /* \"@openzeppelin/contracts@5.2.0/access/Ownable.sol\":3083:3091  newOwner */\n  dup2\n    /* \"@openzeppelin/contracts@5.2.0/access/Ownable.sol\":3052:3092  OwnershipTransferred(oldOwner, newOwner) */\n  0xffffffffffffffffffffffffffffffffffffffff\n  and\n    /* \"@openzeppelin/contracts@5.2.0/access/Ownable.sol\":3073:3081  oldOwner */\n  dup2\n    /* \"@openzeppelin/contracts@5.2.0/access/Ownable.sol\":3052:3092  OwnershipTransferred(oldOwner, newOwner) */\n  0xffffffffffffffffffffffffffffffffffffffff\n  and\n  0x8be0079c531659141344cd1fd0a4f28419497f9722a3daafe3b4186f6b6457e0\n  mload(0x40)\n  mload(0x40)\n  dup1\n  swap2\n  sub\n  swap1\n  log3\n    /* \"@openzeppelin/contracts@5.2.0/access/Ownable.sol\":2975:3099  {... */\n  pop\n    /* \"@openzeppelin/contracts@5.2.0/access/Ownable.sol\":2912:3099  function _transferOwnership(address newOwner) internal virtual {... */\n  pop\n  jump\t// out\n    /* \"#utility.yul\":7:133   */\ntag_13:\n    /* \"#utility.yul\":44:51   */\n  0x00\n    /* \"#utility.yul\":84:126   */\n  0xffffffffffffffffffffffffffffffffffffffff\n    /* \"#utility.yul\":77:82   */\n  dup3\n    /* \"#utility.yul\":73:127   */\n  and\n    /* \"#utility.yul\":62:127   */\n  swap1\n  pop\n    /* \"#utility.yul\":7:133   */\n  swap2\n  swap1\n  pop\n  jump\t// out\n    /* \"#utility.yul\":139:235   */\ntag_14:\n    /* \"#utility.yul\":176:183   */\n  0x00\n    /* \"#utility.yul\":205:229   */\n  tag_19\n    /* \"#utility.yul\":223:228   */\n  dup3\n    /* \"#utility.yul\":205:229   */\n  tag_13\n  jump\t// in\ntag_19:\n    /* \"#utility.yul\":194:229   */\n  swap1\n  pop\n    /* \"#utility.yul\":139:235   */\n  swap2\n  swap1\n  pop\n  jump\t// out\n    /* \"#utility.yul\":241:359   */\ntag_15:\n    /* \"#utility.yul\":328:352   */\n  tag_21\n    /* \"#utility.yul\":346:351   */\n  dup2\n    /* \"#utility.yul\":328:352   */\n  tag_14\n  jump\t// in\ntag_21:\n    /* \"#utility.yul\":323:326   */\n  dup3\n    /* \"#utility.yul\":316:353   */\n  mstore\n    /* \"#utility.yul\":241:359   */\n  pop\n  pop\n  jump\t// out\n    /* \"#utility.yul\":365:587   */\ntag_7:\n    /* \"#utility.yul\":458:462   */\n  0x00\n    /* \"#utility.yul\":496:498   */\n  0x20\n    /* \"#utility.yul\":485:494   */\n  dup3\n    /* \"#utility.yul\":481:499   */\n  add\n    /* \"#utility.yul\":473:499   */\n  swap1\n  pop\n    /* \"#utility.yul\":509:580   */\n  tag_23\n    /* \"#utility.yul\":577:578   */\n  0x00\n    /* \"#utility.yul\":566:575   */\n  dup4\n    /* \"#utility.yul\":562:579   */\n  add\n    /* \"#utility.yul\":553:559   */\n  dup5\n    /* \"#utility.yul\":509:580   */\n  tag_15\n  jump\t// in\ntag_23:\n    /* \"#utility.yul\":365:587   */\n  swap3\n  swap2\n  pop\n  pop\n  jump\t// out\n    /* \"CCIP/ccipTokenSender.sol\":780:4088  contract CCIPTokenSender is Ownable {... */\ntag_11:\n  dataSize(sub_0)\n  dup1\n  dataOffset(sub_0)\n  0x00\n  codecopy\n  0x00\n  return\nstop\n\nsub_0: assembly {\n        /* \"CCIP/ccipTokenSender.sol\":780:4088  contract CCIPTokenSender is Ownable {... */\n      mstore(0x40, 0x80)\n      callvalue\n      dup1\n      iszero\n      tag_1\n      jumpi\n      revert(0x00, 0x00)\n    tag_1:\n      pop\n      jumpi(tag_2, lt(calldatasize, 0x04))\n      shr(0xe0, calldataload(0x00))\n      dup1\n      0x715018a6\n      eq\n      tag_3\n      jumpi\n      dup1\n      0x89476069\n      eq\n      tag_4\n      jumpi\n      dup1\n      0x8da5cb5b\n      eq\n      tag_5\n      jumpi\n      dup1\n      0xbec3fa17\n      eq\n      tag_6\n      jumpi\n      dup1\n      0xf2fde38b\n      eq\n      tag_7\n      jumpi\n    tag_2:\n      revert(0x00, 0x00)\n        /* \"@openzeppelin/contracts@5.2.0/access/Ownable.sol\":2293:2394  function renounceOwnership() public virtual onlyOwner {... */\n    tag_3:\n      tag_8\n      tag_9\n      jump\t// in\n    tag_8:\n      stop\n        /* \"CCIP/ccipTokenSender.sol\":3797:4085  function withdrawToken(... */\n    tag_4:\n      tag_10\n      0x04\n      dup1\n      calldatasize\n      sub\n      dup2\n      add\n      swap1\n      tag_11\n      swap2\n      swap1\n      tag_12\n      jump\t// in\n    tag_11:\n      tag_13\n      jump\t// in\n    tag_10:\n      stop\n        /* \"@openzeppelin/contracts@5.2.0/access/Ownable.sol\":1638:1723  function owner() public view virtual returns (address) {... */\n    tag_5:\n      tag_14\n      tag_15\n      jump\t// in\n    tag_14:\n      mload(0x40)\n      tag_16\n      swap2\n      swap1\n      tag_17\n      jump\t// in\n    tag_16:\n      mload(0x40)\n      dup1\n      swap2\n      sub\n      swap1\n      return\n        /* \"CCIP/ccipTokenSender.sol\":1998:3789  function transferTokens(... */\n    tag_6:\n      tag_18\n      0x04\n      dup1\n      calldatasize\n      sub\n      dup2\n      add\n      swap1\n      tag_19\n      swap2\n      swap1\n      tag_20\n      jump\t// in\n    tag_19:\n      tag_21\n      jump\t// in\n    tag_18:\n      mload(0x40)\n      tag_22\n      swap2\n      swap1\n      tag_23\n      jump\t// in\n    tag_22:\n      mload(0x40)\n      dup1\n      swap2\n      sub\n      swap1\n      return\n        /* \"@openzeppelin/contracts@5.2.0/access/Ownable.sol\":2543:2758  function transferOwnership(address newOwner) public virtual onlyOwner {... */\n    tag_7:\n      tag_24\n      0x04\n      dup1\n      calldatasize\n      sub\n      dup2\n      add\n      swap1\n      tag_25\n      swap2\n      swap1\n      tag_12\n      jump\t// in\n    tag_25:\n      tag_26\n      jump\t// in\n    tag_24:\n      stop\n        /* \"@openzeppelin/contracts@5.2.0/access/Ownable.sol\":2293:2394  function renounceOwnership() public virtual onlyOwner {... */\n    tag_9:\n        /* \"@openzeppelin/contracts@5.2.0/access/Ownable.sol\":1531:1544  _checkOwner() */\n      tag_28\n        /* \"@openzeppelin/contracts@5.2.0/access/Ownable.sol\":1531:1542  _checkOwner */\n      tag_29\n        /* \"@openzeppelin/contracts@5.2.0/access/Ownable.sol\":1531:1544  _checkOwner() */\n      jump\t// in\n    tag_28:\n        /* \"@openzeppelin/contracts@5.2.0/access/Ownable.sol\":2357:2387  _transferOwnership(address(0)) */\n      tag_31\n        /* \"@openzeppelin/contracts@5.2.0/access/Ownable.sol\":2384:2385  0 */\n      0x00\n        /* \"@openzeppelin/contracts@5.2.0/access/Ownable.sol\":2357:2375  _transferOwnership */\n      tag_32\n        /* \"@openzeppelin/contracts@5.2.0/access/Ownable.sol\":2357:2387  _transferOwnership(address(0)) */\n      jump\t// in\n    tag_31:\n        /* \"@openzeppelin/contracts@5.2.0/access/Ownable.sol\":2293:2394  function renounceOwnership() public virtual onlyOwner {... */\n      jump\t// out\n        /* \"CCIP/ccipTokenSender.sol\":3797:4085  function withdrawToken(... */\n    tag_13:\n        /* \"@openzeppelin/contracts@5.2.0/access/Ownable.sol\":1531:1544  _checkOwner() */\n      tag_34\n        /* \"@openzeppelin/contracts@5.2.0/access/Ownable.sol\":1531:1542  _checkOwner */\n      tag_29\n        /* \"@openzeppelin/contracts@5.2.0/access/Ownable.sol\":1531:1544  _checkOwner() */\n      jump\t// in\n    tag_34:\n        /* \"CCIP/ccipTokenSender.sol\":3886:3900  uint256 amount */\n      0x00\n        /* \"CCIP/ccipTokenSender.sol\":1528:1570  0x1c7D4B196Cb0C7B01d743Fbc6116a902379C7238 */\n      0x1c7d4b196cb0c7b01d743fbc6116a902379c7238\n        /* \"CCIP/ccipTokenSender.sol\":3903:3931  IERC20(USDC_TOKEN).balanceOf */\n      0xffffffffffffffffffffffffffffffffffffffff\n      and\n      0x70a08231\n        /* \"CCIP/ccipTokenSender.sol\":3940:3944  this */\n      address\n        /* \"CCIP/ccipTokenSender.sol\":3903:3946  IERC20(USDC_TOKEN).balanceOf(address(this)) */\n      mload(0x40)\n      dup3\n      0xffffffff\n      and\n      0xe0\n      shl\n      dup2\n      mstore\n      0x04\n      add\n      tag_36\n      swap2\n      swap1\n      tag_17\n      jump\t// in\n    tag_36:\n      0x20\n      mload(0x40)\n      dup1\n      dup4\n      sub\n      dup2\n      dup7\n      gas\n      staticcall\n      iszero\n      dup1\n      iszero\n      tag_38\n      jumpi\n      returndatacopy(0x00, 0x00, returndatasize)\n      revert(0x00, returndatasize)\n    tag_38:\n      pop\n      pop\n      pop\n      pop\n      mload(0x40)\n      returndatasize\n      not(0x1f)\n      0x1f\n      dup3\n      add\n      and\n      dup3\n      add\n      dup1\n      0x40\n      mstore\n      pop\n      dup2\n      add\n      swap1\n      tag_39\n      swap2\n      swap1\n      tag_40\n      jump\t// in\n    tag_39:\n        /* \"CCIP/ccipTokenSender.sol\":3886:3946  uint256 amount = IERC20(USDC_TOKEN).balanceOf(address(this)) */\n      swap1\n      pop\n        /* \"CCIP/ccipTokenSender.sol\":3971:3972  0 */\n      0x00\n        /* \"CCIP/ccipTokenSender.sol\":3961:3967  amount */\n      dup2\n        /* \"CCIP/ccipTokenSender.sol\":3961:3972  amount == 0 */\n      sub\n        /* \"CCIP/ccipTokenSender.sol\":3957:4017  if (amount == 0) revert CCIPTokenSender__NothingToWithdraw() */\n      tag_41\n      jumpi\n        /* \"CCIP/ccipTokenSender.sol\":3981:4017  CCIPTokenSender__NothingToWithdraw() */\n      mload(0x40)\n      0x95a6ed4000000000000000000000000000000000000000000000000000000000\n      dup2\n      mstore\n      0x04\n      add\n      mload(0x40)\n      dup1\n      swap2\n      sub\n      swap1\n      revert\n        /* \"CCIP/ccipTokenSender.sol\":3957:4017  if (amount == 0) revert CCIPTokenSender__NothingToWithdraw() */\n    tag_41:\n        /* \"CCIP/ccipTokenSender.sol\":1528:1570  0x1c7D4B196Cb0C7B01d743Fbc6116a902379C7238 */\n      0x1c7d4b196cb0c7b01d743fbc6116a902379c7238\n        /* \"CCIP/ccipTokenSender.sol\":4028:4055  IERC20(USDC_TOKEN).transfer */\n      0xffffffffffffffffffffffffffffffffffffffff\n      and\n      0xa9059cbb\n        /* \"CCIP/ccipTokenSender.sol\":4056:4068  _beneficiary */\n      dup4\n        /* \"CCIP/ccipTokenSender.sol\":4070:4076  amount */\n      dup4\n        /* \"CCIP/ccipTokenSender.sol\":4028:4077  IERC20(USDC_TOKEN).transfer(_beneficiary, amount) */\n      mload(0x40)\n      dup4\n      0xffffffff\n      and\n      0xe0\n      shl\n      dup2\n      mstore\n      0x04\n      add\n      tag_42\n      swap3\n      swap2\n      swap1\n      tag_43\n      jump\t// in\n    tag_42:\n      0x20\n      mload(0x40)\n      dup1\n      dup4\n      sub\n      dup2\n      0x00\n      dup8\n      gas\n      call\n      iszero\n      dup1\n      iszero\n      tag_45\n      jumpi\n      returndatacopy(0x00, 0x00, returndatasize)\n      revert(0x00, returndatasize)\n    tag_45:\n      pop\n      pop\n      pop\n      pop\n      mload(0x40)\n      returndatasize\n      not(0x1f)\n      0x1f\n      dup3\n      add\n      and\n      dup3\n      add\n      dup1\n      0x40\n      mstore\n      pop\n      dup2\n      add\n      swap1\n      tag_46\n      swap2\n      swap1\n      tag_47\n      jump\t// in\n    tag_46:\n      pop\n        /* \"CCIP/ccipTokenSender.sol\":3875:4085  {... */\n      pop\n        /* \"CCIP/ccipTokenSender.sol\":3797:4085  function withdrawToken(... */\n      pop\n      jump\t// out\n        /* \"@openzeppelin/contracts@5.2.0/access/Ownable.sol\":1638:1723  function owner() public view virtual returns (address) {... */\n    tag_15:\n        /* \"@openzeppelin/contracts@5.2.0/access/Ownable.sol\":1684:1691  address */\n      0x00\n        /* \"@openzeppelin/contracts@5.2.0/access/Ownable.sol\":1710:1716  _owner */\n      0x00\n      0x00\n      swap1\n      sload\n      swap1\n      0x0100\n      exp\n      swap1\n      div\n      0xffffffffffffffffffffffffffffffffffffffff\n      and\n        /* \"@openzeppelin/contracts@5.2.0/access/Ownable.sol\":1703:1716  return _owner */\n      swap1\n      pop\n        /* \"@openzeppelin/contracts@5.2.0/access/Ownable.sol\":1638:1723  function owner() public view virtual returns (address) {... */\n      swap1\n      jump\t// out\n        /* \"CCIP/ccipTokenSender.sol\":1998:3789  function transferTokens(... */\n    tag_21:\n        /* \"CCIP/ccipTokenSender.sol\":2119:2136  bytes32 messageId */\n      0x00\n        /* \"CCIP/ccipTokenSender.sol\":1528:1570  0x1c7D4B196Cb0C7B01d743Fbc6116a902379C7238 */\n      0x1c7d4b196cb0c7b01d743fbc6116a902379c7238\n        /* \"CCIP/ccipTokenSender.sol\":2168:2188  USDC_TOKEN.balanceOf */\n      0xffffffffffffffffffffffffffffffffffffffff\n      and\n      0x70a08231\n        /* \"CCIP/ccipTokenSender.sol\":2189:2199  msg.sender */\n      caller\n        /* \"CCIP/ccipTokenSender.sol\":2168:2200  USDC_TOKEN.balanceOf(msg.sender) */\n      mload(0x40)\n      dup3\n      0xffffffff\n      and\n      0xe0\n      shl\n      dup2\n      mstore\n      0x04\n      add\n      tag_50\n      swap2\n      swap1\n      tag_17\n      jump\t// in\n    tag_50:\n      0x20\n      mload(0x40)\n      dup1\n      dup4\n      sub\n      dup2\n      dup7\n      gas\n      staticcall\n      iszero\n      dup1\n      iszero\n      tag_52\n      jumpi\n      returndatacopy(0x00, 0x00, returndatasize)\n      revert(0x00, returndatasize)\n    tag_52:\n      pop\n      pop\n      pop\n      pop\n      mload(0x40)\n      returndatasize\n      not(0x1f)\n      0x1f\n      dup3\n      add\n      and\n      dup3\n      add\n      dup1\n      0x40\n      mstore\n      pop\n      dup2\n      add\n      swap1\n      tag_53\n      swap2\n      swap1\n      tag_40\n      jump\t// in\n    tag_53:\n        /* \"CCIP/ccipTokenSender.sol\":2158:2165  _amount */\n      dup3\n        /* \"CCIP/ccipTokenSender.sol\":2158:2200  _amount > USDC_TOKEN.balanceOf(msg.sender) */\n      gt\n        /* \"CCIP/ccipTokenSender.sol\":2154:2327  if (_amount > USDC_TOKEN.balanceOf(msg.sender)) {... */\n      iszero\n      tag_54\n      jumpi\n        /* \"CCIP/ccipTokenSender.sol\":1528:1570  0x1c7D4B196Cb0C7B01d743Fbc6116a902379C7238 */\n      0x1c7d4b196cb0c7b01d743fbc6116a902379c7238\n      dup1\n        /* \"CCIP/ccipTokenSender.sol\":2273:2293  USDC_TOKEN.balanceOf */\n      0xffffffffffffffffffffffffffffffffffffffff\n      and\n      0x70a08231\n        /* \"CCIP/ccipTokenSender.sol\":2294:2304  msg.sender */\n      caller\n        /* \"CCIP/ccipTokenSender.sol\":2273:2305  USDC_TOKEN.balanceOf(msg.sender) */\n      mload(0x40)\n      dup3\n      0xffffffff\n      and\n      0xe0\n      shl\n      dup2\n      mstore\n      0x04\n      add\n      tag_55\n      swap2\n      swap1\n      tag_17\n      jump\t// in\n    tag_55:\n      0x20\n      mload(0x40)\n      dup1\n      dup4\n      sub\n      dup2\n      dup7\n      gas\n      staticcall\n      iszero\n      dup1\n      iszero\n      tag_57\n      jumpi\n      returndatacopy(0x00, 0x00, returndatasize)\n      revert(0x00, returndatasize)\n    tag_57:\n      pop\n      pop\n      pop\n      pop\n      mload(0x40)\n      returndatasize\n      not(0x1f)\n      0x1f\n      dup3\n      add\n      and\n      dup3\n      add\n      dup1\n      0x40\n      mstore\n      pop\n      dup2\n      add\n      swap1\n      tag_58\n      swap2\n      swap1\n      tag_40\n      jump\t// in\n    tag_58:\n        /* \"CCIP/ccipTokenSender.sol\":2307:2314  _amount */\n      dup4\n        /* \"CCIP/ccipTokenSender.sol\":2224:2315  CCIPTokenSender__InsufficientBalance(USDC_TOKEN, USDC_TOKEN.balanceOf(msg.sender), _amount) */\n      mload(0x40)\n      0xefd3e43c00000000000000000000000000000000000000000000000000000000\n      dup2\n      mstore\n      0x04\n      add\n      tag_59\n      swap4\n      swap3\n      swap2\n      swap1\n      tag_60\n      jump\t// in\n    tag_59:\n      mload(0x40)\n      dup1\n      swap2\n      sub\n      swap1\n      revert\n        /* \"CCIP/ccipTokenSender.sol\":2154:2327  if (_amount > USDC_TOKEN.balanceOf(msg.sender)) {... */\n    tag_54:\n        /* \"CCIP/ccipTokenSender.sol\":2337:2393  Client.EVMTokenAmount[]... */\n      0x00\n        /* \"CCIP/ccipTokenSender.sol\":2424:2425  1 */\n      0x01\n        /* \"CCIP/ccipTokenSender.sol\":2396:2426  new Client.EVMTokenAmount[](1) */\n      0xffffffffffffffff\n      dup2\n      gt\n      iszero\n      tag_61\n      jumpi\n      tag_62\n      tag_63\n      jump\t// in\n    tag_62:\n    tag_61:\n      mload(0x40)\n      swap1\n      dup1\n      dup3\n      mstore\n      dup1\n      0x20\n      mul\n      0x20\n      add\n      dup3\n      add\n      0x40\n      mstore\n      dup1\n      iszero\n      tag_64\n      jumpi\n      dup2\n      0x20\n      add\n    tag_65:\n      tag_66\n      tag_67\n      jump\t// in\n    tag_66:\n      dup2\n      mstore\n      0x20\n      add\n      swap1\n      0x01\n      swap1\n      sub\n      swap1\n      dup2\n      tag_65\n      jumpi\n      swap1\n      pop\n    tag_64:\n      pop\n        /* \"CCIP/ccipTokenSender.sol\":2337:2426  Client.EVMTokenAmount[]... */\n      swap1\n      pop\n        /* \"CCIP/ccipTokenSender.sol\":2437:2477  Client.EVMTokenAmount memory tokenAmount */\n      0x00\n        /* \"CCIP/ccipTokenSender.sol\":2480:2585  Client.EVMTokenAmount({... */\n      mload(0x40)\n      dup1\n      0x40\n      add\n      0x40\n      mstore\n      dup1\n        /* \"CCIP/ccipTokenSender.sol\":1528:1570  0x1c7D4B196Cb0C7B01d743Fbc6116a902379C7238 */\n      0x1c7d4b196cb0c7b01d743fbc6116a902379c7238\n        /* \"CCIP/ccipTokenSender.sol\":2480:2585  Client.EVMTokenAmount({... */\n      0xffffffffffffffffffffffffffffffffffffffff\n      and\n      dup2\n      mstore\n      0x20\n      add\n        /* \"CCIP/ccipTokenSender.sol\":2566:2573  _amount */\n      dup6\n        /* \"CCIP/ccipTokenSender.sol\":2480:2585  Client.EVMTokenAmount({... */\n      dup2\n      mstore\n      pop\n        /* \"CCIP/ccipTokenSender.sol\":2437:2585  Client.EVMTokenAmount memory tokenAmount = Client.EVMTokenAmount({... */\n      swap1\n      pop\n        /* \"CCIP/ccipTokenSender.sol\":2614:2625  tokenAmount */\n      dup1\n        /* \"CCIP/ccipTokenSender.sol\":2596:2608  tokenAmounts */\n      dup3\n        /* \"CCIP/ccipTokenSender.sol\":2609:2610  0 */\n      0x00\n        /* \"CCIP/ccipTokenSender.sol\":2596:2611  tokenAmounts[0] */\n      dup2\n      mload\n      dup2\n      lt\n      tag_68\n      jumpi\n      tag_69\n      tag_70\n      jump\t// in\n    tag_69:\n    tag_68:\n      0x20\n      mul\n      0x20\n      add\n      add\n        /* \"CCIP/ccipTokenSender.sol\":2596:2625  tokenAmounts[0] = tokenAmount */\n      dup2\n      swap1\n      mstore\n      pop\n        /* \"CCIP/ccipTokenSender.sol\":2638:2674  Client.EVM2AnyMessage memory message */\n      0x00\n        /* \"CCIP/ccipTokenSender.sol\":2677:2980  Client.EVM2AnyMessage({... */\n      mload(0x40)\n      dup1\n      0xa0\n      add\n      0x40\n      mstore\n      dup1\n        /* \"CCIP/ccipTokenSender.sol\":2735:2744  _receiver */\n      dup8\n        /* \"CCIP/ccipTokenSender.sol\":2724:2745  abi.encode(_receiver) */\n      add(0x20, mload(0x40))\n      tag_71\n      swap2\n      swap1\n      tag_17\n      jump\t// in\n    tag_71:\n      mload(0x40)\n      0x20\n      dup2\n      dup4\n      sub\n      sub\n      dup2\n      mstore\n      swap1\n      0x40\n      mstore\n        /* \"CCIP/ccipTokenSender.sol\":2677:2980  Client.EVM2AnyMessage({... */\n      dup2\n      mstore\n      0x20\n      add\n      mload(0x40)\n      dup1\n      0x20\n      add\n      0x40\n      mstore\n      dup1\n      0x00\n      dup2\n      mstore\n      pop\n      dup2\n      mstore\n      0x20\n      add\n        /* \"CCIP/ccipTokenSender.sol\":2797:2809  tokenAmounts */\n      dup5\n        /* \"CCIP/ccipTokenSender.sol\":2677:2980  Client.EVM2AnyMessage({... */\n      dup2\n      mstore\n      0x20\n      add\n        /* \"CCIP/ccipTokenSender.sol\":1357:1399  0x779877A7B0D9E8603169DdbD7836e478b4624789 */\n      0x779877a7b0d9e8603169ddbd7836e478b4624789\n        /* \"CCIP/ccipTokenSender.sol\":2677:2980  Client.EVM2AnyMessage({... */\n      0xffffffffffffffffffffffffffffffffffffffff\n      and\n      dup2\n      mstore\n      0x20\n      add\n        /* \"CCIP/ccipTokenSender.sol\":2835:2924  Client._argsToBytes(... */\n      tag_72\n        /* \"CCIP/ccipTokenSender.sol\":2873:2909  Client.EVMExtraArgsV1({gasLimit: 0}) */\n      mload(0x40)\n      dup1\n      0x20\n      add\n      0x40\n      mstore\n      dup1\n        /* \"CCIP/ccipTokenSender.sol\":2906:2907  0 */\n      0x00\n        /* \"CCIP/ccipTokenSender.sol\":2873:2909  Client.EVMExtraArgsV1({gasLimit: 0}) */\n      dup2\n      mstore\n      pop\n        /* \"CCIP/ccipTokenSender.sol\":2835:2854  Client._argsToBytes */\n      tag_73\n        /* \"CCIP/ccipTokenSender.sol\":2835:2924  Client._argsToBytes(... */\n      jump\t// in\n    tag_72:\n        /* \"CCIP/ccipTokenSender.sol\":2677:2980  Client.EVM2AnyMessage({... */\n      dup2\n      mstore\n      pop\n        /* \"CCIP/ccipTokenSender.sol\":2638:2980  Client.EVM2AnyMessage memory message = Client.EVM2AnyMessage({... */\n      swap1\n      pop\n        /* \"CCIP/ccipTokenSender.sol\":2993:3008  uint256 ccipFee */\n      0x00\n        /* \"CCIP/ccipTokenSender.sol\":1175:1217  0x0BF3dE8c5D3e8A2B34D2BEeB17ABfCeBaf363A59 */\n      0x0bf3de8c5d3e8a2b34d2beeb17abfcebaf363a59\n        /* \"CCIP/ccipTokenSender.sol\":3011:3029  CCIP_ROUTER.getFee */\n      0xffffffffffffffffffffffffffffffffffffffff\n      and\n      0x20487ded\n        /* \"CCIP/ccipTokenSender.sol\":1724:1744  10344971235874465080 */\n      0x8f90b8876dee6538\n        /* \"CCIP/ccipTokenSender.sol\":3085:3092  message */\n      dup5\n        /* \"CCIP/ccipTokenSender.sol\":3011:3103  CCIP_ROUTER.getFee(... */\n      mload(0x40)\n      dup4\n      0xffffffff\n      and\n      0xe0\n      shl\n      dup2\n      mstore\n      0x04\n      add\n      tag_74\n      swap3\n      swap2\n      swap1\n      tag_75\n      jump\t// in\n    tag_74:\n      0x20\n      mload(0x40)\n      dup1\n      dup4\n      sub\n      dup2\n      dup7\n      gas\n      staticcall\n      iszero\n      dup1\n      iszero\n      tag_77\n      jumpi\n      returndatacopy(0x00, 0x00, returndatasize)\n      revert(0x00, returndatasize)\n    tag_77:\n      pop\n      pop\n      pop\n      pop\n      mload(0x40)\n      returndatasize\n      not(0x1f)\n      0x1f\n      dup3\n      add\n      and\n      dup3\n      add\n      dup1\n      0x40\n      mstore\n      pop\n      dup2\n      add\n      swap1\n      tag_78\n      swap2\n      swap1\n      tag_40\n      jump\t// in\n    tag_78:\n        /* \"CCIP/ccipTokenSender.sol\":2993:3103  uint256 ccipFee = CCIP_ROUTER.getFee(... */\n      swap1\n      pop\n        /* \"CCIP/ccipTokenSender.sol\":1357:1399  0x779877A7B0D9E8603169DdbD7836e478b4624789 */\n      0x779877a7b0d9e8603169ddbd7836e478b4624789\n        /* \"CCIP/ccipTokenSender.sol\":3130:3150  LINK_TOKEN.balanceOf */\n      0xffffffffffffffffffffffffffffffffffffffff\n      and\n      0x70a08231\n        /* \"CCIP/ccipTokenSender.sol\":3159:3163  this */\n      address\n        /* \"CCIP/ccipTokenSender.sol\":3130:3165  LINK_TOKEN.balanceOf(address(this)) */\n      mload(0x40)\n      dup3\n      0xffffffff\n      and\n      0xe0\n      shl\n      dup2\n      mstore\n      0x04\n      add\n      tag_79\n      swap2\n      swap1\n      tag_17\n      jump\t// in\n    tag_79:\n      0x20\n      mload(0x40)\n      dup1\n      dup4\n      sub\n      dup2\n      dup7\n      gas\n      staticcall\n      iszero\n      dup1\n      iszero\n      tag_81\n      jumpi\n      returndatacopy(0x00, 0x00, returndatasize)\n      revert(0x00, returndatasize)\n    tag_81:\n      pop\n      pop\n      pop\n      pop\n      mload(0x40)\n      returndatasize\n      not(0x1f)\n      0x1f\n      dup3\n      add\n      and\n      dup3\n      add\n      dup1\n      0x40\n      mstore\n      pop\n      dup2\n      add\n      swap1\n      tag_82\n      swap2\n      swap1\n      tag_40\n      jump\t// in\n    tag_82:\n        /* \"CCIP/ccipTokenSender.sol\":3120:3127  ccipFee */\n      dup2\n        /* \"CCIP/ccipTokenSender.sol\":3120:3165  ccipFee > LINK_TOKEN.balanceOf(address(this)) */\n      gt\n        /* \"CCIP/ccipTokenSender.sol\":3116:3295  if (ccipFee > LINK_TOKEN.balanceOf(address(this))) {... */\n      iszero\n      tag_83\n      jumpi\n        /* \"CCIP/ccipTokenSender.sol\":1357:1399  0x779877A7B0D9E8603169DdbD7836e478b4624789 */\n      0x779877a7b0d9e8603169ddbd7836e478b4624789\n      dup1\n        /* \"CCIP/ccipTokenSender.sol\":3238:3258  LINK_TOKEN.balanceOf */\n      0xffffffffffffffffffffffffffffffffffffffff\n      and\n      0x70a08231\n        /* \"CCIP/ccipTokenSender.sol\":3267:3271  this */\n      address\n        /* \"CCIP/ccipTokenSender.sol\":3238:3273  LINK_TOKEN.balanceOf(address(this)) */\n      mload(0x40)\n      dup3\n      0xffffffff\n      and\n      0xe0\n      shl\n      dup2\n      mstore\n      0x04\n      add\n      tag_84\n      swap2\n      swap1\n      tag_17\n      jump\t// in\n    tag_84:\n      0x20\n      mload(0x40)\n      dup1\n      dup4\n      sub\n      dup2\n      dup7\n      gas\n      staticcall\n      iszero\n      dup1\n      iszero\n      tag_86\n      jumpi\n      returndatacopy(0x00, 0x00, returndatasize)\n      revert(0x00, returndatasize)\n    tag_86:\n      pop\n      pop\n      pop\n      pop\n      mload(0x40)\n      returndatasize\n      not(0x1f)\n      0x1f\n      dup3\n      add\n      and\n      dup3\n      add\n      dup1\n      0x40\n      mstore\n      pop\n      dup2\n      add\n      swap1\n      tag_87\n      swap2\n      swap1\n      tag_40\n      jump\t// in\n    tag_87:\n        /* \"CCIP/ccipTokenSender.sol\":3275:3282  ccipFee */\n      dup3\n        /* \"CCIP/ccipTokenSender.sol\":3189:3283  CCIPTokenSender__InsufficientBalance(LINK_TOKEN, LINK_TOKEN.balanceOf(address(this)), ccipFee) */\n      mload(0x40)\n      0xefd3e43c00000000000000000000000000000000000000000000000000000000\n      dup2\n      mstore\n      0x04\n      add\n      tag_88\n      swap4\n      swap3\n      swap2\n      swap1\n      tag_60\n      jump\t// in\n    tag_88:\n      mload(0x40)\n      dup1\n      swap2\n      sub\n      swap1\n      revert\n        /* \"CCIP/ccipTokenSender.sol\":3116:3295  if (ccipFee > LINK_TOKEN.balanceOf(address(this))) {... */\n    tag_83:\n        /* \"CCIP/ccipTokenSender.sol\":1357:1399  0x779877A7B0D9E8603169DdbD7836e478b4624789 */\n      0x779877a7b0d9e8603169ddbd7836e478b4624789\n        /* \"CCIP/ccipTokenSender.sol\":3307:3325  LINK_TOKEN.approve */\n      0xffffffffffffffffffffffffffffffffffffffff\n      and\n      0x095ea7b3\n        /* \"CCIP/ccipTokenSender.sol\":1175:1217  0x0BF3dE8c5D3e8A2B34D2BEeB17ABfCeBaf363A59 */\n      0x0bf3de8c5d3e8a2b34d2beeb17abfcebaf363a59\n        /* \"CCIP/ccipTokenSender.sol\":3348:3355  ccipFee */\n      dup4\n        /* \"CCIP/ccipTokenSender.sol\":3307:3356  LINK_TOKEN.approve(address(CCIP_ROUTER), ccipFee) */\n      mload(0x40)\n      dup4\n      0xffffffff\n      and\n      0xe0\n      shl\n      dup2\n      mstore\n      0x04\n      add\n      tag_89\n      swap3\n      swap2\n      swap1\n      tag_43\n      jump\t// in\n    tag_89:\n      0x20\n      mload(0x40)\n      dup1\n      dup4\n      sub\n      dup2\n      0x00\n      dup8\n      gas\n      call\n      iszero\n      dup1\n      iszero\n      tag_91\n      jumpi\n      returndatacopy(0x00, 0x00, returndatasize)\n      revert(0x00, returndatasize)\n    tag_91:\n      pop\n      pop\n      pop\n      pop\n      mload(0x40)\n      returndatasize\n      not(0x1f)\n      0x1f\n      dup3\n      add\n      and\n      dup3\n      add\n      dup1\n      0x40\n      mstore\n      pop\n      dup2\n      add\n      swap1\n      tag_92\n      swap2\n      swap1\n      tag_47\n      jump\t// in\n    tag_92:\n      pop\n        /* \"CCIP/ccipTokenSender.sol\":3369:3432  USDC_TOKEN.safeTransferFrom(msg.sender, address(this), _amount) */\n      tag_93\n        /* \"CCIP/ccipTokenSender.sol\":3397:3407  msg.sender */\n      caller\n        /* \"CCIP/ccipTokenSender.sol\":3417:3421  this */\n      address\n        /* \"CCIP/ccipTokenSender.sol\":3424:3431  _amount */\n      dup9\n        /* \"CCIP/ccipTokenSender.sol\":1528:1570  0x1c7D4B196Cb0C7B01d743Fbc6116a902379C7238 */\n      0x1c7d4b196cb0c7b01d743fbc6116a902379c7238\n        /* \"CCIP/ccipTokenSender.sol\":3369:3396  USDC_TOKEN.safeTransferFrom */\n      0xffffffffffffffffffffffffffffffffffffffff\n      and\n      tag_94\n      swap1\n        /* \"CCIP/ccipTokenSender.sol\":3369:3432  USDC_TOKEN.safeTransferFrom(msg.sender, address(this), _amount) */\n      swap4\n      swap3\n      swap2\n      swap1\n      0xffffffff\n      and\n      jump\t// in\n    tag_93:\n        /* \"CCIP/ccipTokenSender.sol\":1528:1570  0x1c7D4B196Cb0C7B01d743Fbc6116a902379C7238 */\n      0x1c7d4b196cb0c7b01d743fbc6116a902379c7238\n        /* \"CCIP/ccipTokenSender.sol\":3443:3461  USDC_TOKEN.approve */\n      0xffffffffffffffffffffffffffffffffffffffff\n      and\n      0x095ea7b3\n        /* \"CCIP/ccipTokenSender.sol\":1175:1217  0x0BF3dE8c5D3e8A2B34D2BEeB17ABfCeBaf363A59 */\n      0x0bf3de8c5d3e8a2b34d2beeb17abfcebaf363a59\n        /* \"CCIP/ccipTokenSender.sol\":3484:3491  _amount */\n      dup9\n        /* \"CCIP/ccipTokenSender.sol\":3443:3492  USDC_TOKEN.approve(address(CCIP_ROUTER), _amount) */\n      mload(0x40)\n      dup4\n      0xffffffff\n      and\n      0xe0\n      shl\n      dup2\n      mstore\n      0x04\n      add\n      tag_95\n      swap3\n      swap2\n      swap1\n      tag_43\n      jump\t// in\n    tag_95:\n      0x20\n      mload(0x40)\n      dup1\n      dup4\n      sub\n      dup2\n      0x00\n      dup8\n      gas\n      call\n      iszero\n      dup1\n      iszero\n      tag_97\n      jumpi\n      returndatacopy(0x00, 0x00, returndatasize)\n      revert(0x00, returndatasize)\n    tag_97:\n      pop\n      pop\n      pop\n      pop\n      mload(0x40)\n      returndatasize\n      not(0x1f)\n      0x1f\n      dup3\n      add\n      and\n      dup3\n      add\n      dup1\n      0x40\n      mstore\n      pop\n      dup2\n      add\n      swap1\n      tag_98\n      swap2\n      swap1\n      tag_47\n      jump\t// in\n    tag_98:\n      pop\n        /* \"CCIP/ccipTokenSender.sol\":1175:1217  0x0BF3dE8c5D3e8A2B34D2BEeB17ABfCeBaf363A59 */\n      0x0bf3de8c5d3e8a2b34d2beeb17abfcebaf363a59\n        /* \"CCIP/ccipTokenSender.sol\":3547:3567  CCIP_ROUTER.ccipSend */\n      0xffffffffffffffffffffffffffffffffffffffff\n      and\n      0x96f4e9f9\n        /* \"CCIP/ccipTokenSender.sol\":1724:1744  10344971235874465080 */\n      0x8f90b8876dee6538\n        /* \"CCIP/ccipTokenSender.sol\":3596:3603  message */\n      dup5\n        /* \"CCIP/ccipTokenSender.sol\":3547:3604  CCIP_ROUTER.ccipSend(DESTINATION_CHAIN_SELECTOR, message) */\n      mload(0x40)\n      dup4\n      0xffffffff\n      and\n      0xe0\n      shl\n      dup2\n      mstore\n      0x04\n      add\n      tag_99\n      swap3\n      swap2\n      swap1\n      tag_75\n      jump\t// in\n    tag_99:\n      0x20\n      mload(0x40)\n      dup1\n      dup4\n      sub\n      dup2\n      0x00\n      dup8\n      gas\n      call\n      iszero\n      dup1\n      iszero\n      tag_101\n      jumpi\n      returndatacopy(0x00, 0x00, returndatasize)\n      revert(0x00, returndatasize)\n    tag_101:\n      pop\n      pop\n      pop\n      pop\n      mload(0x40)\n      returndatasize\n      not(0x1f)\n      0x1f\n      dup3\n      add\n      and\n      dup3\n      add\n      dup1\n      0x40\n      mstore\n      pop\n      dup2\n      add\n      swap1\n      tag_102\n      swap2\n      swap1\n      tag_103\n      jump\t// in\n    tag_102:\n        /* \"CCIP/ccipTokenSender.sol\":3535:3604  messageId = CCIP_ROUTER.ccipSend(DESTINATION_CHAIN_SELECTOR, message) */\n      swap5\n      pop\n        /* \"CCIP/ccipTokenSender.sol\":3717:3726  _receiver */\n      dup7\n        /* \"CCIP/ccipTokenSender.sol\":3622:3781  USDCTransferred(... */\n      0xffffffffffffffffffffffffffffffffffffffff\n      and\n        /* \"CCIP/ccipTokenSender.sol\":1724:1744  10344971235874465080 */\n      0x8f90b8876dee6538\n        /* \"CCIP/ccipTokenSender.sol\":3622:3781  USDCTransferred(... */\n      0xffffffffffffffff\n      and\n      0xeca040c7df5d1a8ea4277fa1a77f55e8ef67b6fcf617a6fc6b16067f5f7547b5\n        /* \"CCIP/ccipTokenSender.sol\":3652:3661  messageId */\n      dup8\n        /* \"CCIP/ccipTokenSender.sol\":3741:3748  _amount */\n      dup10\n        /* \"CCIP/ccipTokenSender.sol\":3763:3770  ccipFee */\n      dup6\n        /* \"CCIP/ccipTokenSender.sol\":3622:3781  USDCTransferred(... */\n      mload(0x40)\n      tag_104\n      swap4\n      swap3\n      swap2\n      swap1\n      tag_105\n      jump\t// in\n    tag_104:\n      mload(0x40)\n      dup1\n      swap2\n      sub\n      swap1\n      log3\n        /* \"CCIP/ccipTokenSender.sol\":2143:3789  {... */\n      pop\n      pop\n      pop\n      pop\n        /* \"CCIP/ccipTokenSender.sol\":1998:3789  function transferTokens(... */\n      swap3\n      swap2\n      pop\n      pop\n      jump\t// out\n        /* \"@openzeppelin/contracts@5.2.0/access/Ownable.sol\":2543:2758  function transferOwnership(address newOwner) public virtual onlyOwner {... */\n    tag_26:\n        /* \"@openzeppelin/contracts@5.2.0/access/Ownable.sol\":1531:1544  _checkOwner() */\n      tag_107\n        /* \"@openzeppelin/contracts@5.2.0/access/Ownable.sol\":1531:1542  _checkOwner */\n      tag_29\n        /* \"@openzeppelin/contracts@5.2.0/access/Ownable.sol\":1531:1544  _checkOwner() */\n      jump\t// in\n    tag_107:\n        /* \"@openzeppelin/contracts@5.2.0/access/Ownable.sol\":2647:2648  0 */\n      0x00\n        /* \"@openzeppelin/contracts@5.2.0/access/Ownable.sol\":2627:2649  newOwner == address(0) */\n      0xffffffffffffffffffffffffffffffffffffffff\n      and\n        /* \"@openzeppelin/contracts@5.2.0/access/Ownable.sol\":2627:2635  newOwner */\n      dup2\n        /* \"@openzeppelin/contracts@5.2.0/access/Ownable.sol\":2627:2649  newOwner == address(0) */\n      0xffffffffffffffffffffffffffffffffffffffff\n      and\n      sub\n        /* \"@openzeppelin/contracts@5.2.0/access/Ownable.sol\":2623:2714  if (newOwner == address(0)) {... */\n      tag_109\n      jumpi\n        /* \"@openzeppelin/contracts@5.2.0/access/Ownable.sol\":2700:2701  0 */\n      0x00\n        /* \"@openzeppelin/contracts@5.2.0/access/Ownable.sol\":2672:2703  OwnableInvalidOwner(address(0)) */\n      mload(0x40)\n      0x1e4fbdf700000000000000000000000000000000000000000000000000000000\n      dup2\n      mstore\n      0x04\n      add\n      tag_110\n      swap2\n      swap1\n      tag_17\n      jump\t// in\n    tag_110:\n      mload(0x40)\n      dup1\n      swap2\n      sub\n      swap1\n      revert\n        /* \"@openzeppelin/contracts@5.2.0/access/Ownable.sol\":2623:2714  if (newOwner == address(0)) {... */\n    tag_109:\n        /* \"@openzeppelin/contracts@5.2.0/access/Ownable.sol\":2723:2751  _transferOwnership(newOwner) */\n      tag_111\n        /* \"@openzeppelin/contracts@5.2.0/access/Ownable.sol\":2742:2750  newOwner */\n      dup2\n        /* \"@openzeppelin/contracts@5.2.0/access/Ownable.sol\":2723:2741  _transferOwnership */\n      tag_32\n        /* \"@openzeppelin/contracts@5.2.0/access/Ownable.sol\":2723:2751  _transferOwnership(newOwner) */\n      jump\t// in\n    tag_111:\n        /* \"@openzeppelin/contracts@5.2.0/access/Ownable.sol\":2543:2758  function transferOwnership(address newOwner) public virtual onlyOwner {... */\n      pop\n      jump\t// out\n        /* \"@openzeppelin/contracts@5.2.0/access/Ownable.sol\":1796:1958  function _checkOwner() internal view virtual {... */\n    tag_29:\n        /* \"@openzeppelin/contracts@5.2.0/access/Ownable.sol\":1866:1878  _msgSender() */\n      tag_113\n        /* \"@openzeppelin/contracts@5.2.0/access/Ownable.sol\":1866:1876  _msgSender */\n      tag_114\n        /* \"@openzeppelin/contracts@5.2.0/access/Ownable.sol\":1866:1878  _msgSender() */\n      jump\t// in\n    tag_113:\n        /* \"@openzeppelin/contracts@5.2.0/access/Ownable.sol\":1855:1878  owner() != _msgSender() */\n      0xffffffffffffffffffffffffffffffffffffffff\n      and\n        /* \"@openzeppelin/contracts@5.2.0/access/Ownable.sol\":1855:1862  owner() */\n      tag_115\n        /* \"@openzeppelin/contracts@5.2.0/access/Ownable.sol\":1855:1860  owner */\n      tag_15\n        /* \"@openzeppelin/contracts@5.2.0/access/Ownable.sol\":1855:1862  owner() */\n      jump\t// in\n    tag_115:\n        /* \"@openzeppelin/contracts@5.2.0/access/Ownable.sol\":1855:1878  owner() != _msgSender() */\n      0xffffffffffffffffffffffffffffffffffffffff\n      and\n      eq\n        /* \"@openzeppelin/contracts@5.2.0/access/Ownable.sol\":1851:1952  if (owner() != _msgSender()) {... */\n      tag_116\n      jumpi\n        /* \"@openzeppelin/contracts@5.2.0/access/Ownable.sol\":1928:1940  _msgSender() */\n      tag_117\n        /* \"@openzeppelin/contracts@5.2.0/access/Ownable.sol\":1928:1938  _msgSender */\n      tag_114\n        /* \"@openzeppelin/contracts@5.2.0/access/Ownable.sol\":1928:1940  _msgSender() */\n      jump\t// in\n    tag_117:\n        /* \"@openzeppelin/contracts@5.2.0/access/Ownable.sol\":1901:1941  OwnableUnauthorizedAccount(_msgSender()) */\n      mload(0x40)\n      0x118cdaa700000000000000000000000000000000000000000000000000000000\n      dup2\n      mstore\n      0x04\n      add\n      tag_118\n      swap2\n      swap1\n      tag_17\n      jump\t// in\n    tag_118:\n      mload(0x40)\n      dup1\n      swap2\n      sub\n      swap1\n      revert\n        /* \"@openzeppelin/contracts@5.2.0/access/Ownable.sol\":1851:1952  if (owner() != _msgSender()) {... */\n    tag_116:\n        /* \"@openzeppelin/contracts@5.2.0/access/Ownable.sol\":1796:1958  function _checkOwner() internal view virtual {... */\n      jump\t// out\n        /* \"@openzeppelin/contracts@5.2.0/access/Ownable.sol\":2912:3099  function _transferOwnership(address newOwner) internal virtual {... */\n    tag_32:\n        /* \"@openzeppelin/contracts@5.2.0/access/Ownable.sol\":2985:3001  address oldOwner */\n      0x00\n        /* \"@openzeppelin/contracts@5.2.0/access/Ownable.sol\":3004:3010  _owner */\n      0x00\n      0x00\n      swap1\n      sload\n      swap1\n      0x0100\n      exp\n      swap1\n      div\n      0xffffffffffffffffffffffffffffffffffffffff\n      and\n        /* \"@openzeppelin/contracts@5.2.0/access/Ownable.sol\":2985:3010  address oldOwner = _owner */\n      swap1\n      pop\n        /* \"@openzeppelin/contracts@5.2.0/access/Ownable.sol\":3029:3037  newOwner */\n      dup2\n        /* \"@openzeppelin/contracts@5.2.0/access/Ownable.sol\":3020:3026  _owner */\n      0x00\n      0x00\n        /* \"@openzeppelin/contracts@5.2.0/access/Ownable.sol\":3020:3037  _owner = newOwner */\n      0x0100\n      exp\n      dup2\n      sload\n      dup2\n      0xffffffffffffffffffffffffffffffffffffffff\n      mul\n      not\n      and\n      swap1\n      dup4\n      0xffffffffffffffffffffffffffffffffffffffff\n      and\n      mul\n      or\n      swap1\n      sstore\n      pop\n        /* \"@openzeppelin/contracts@5.2.0/access/Ownable.sol\":3083:3091  newOwner */\n      dup2\n        /* \"@openzeppelin/contracts@5.2.0/access/Ownable.sol\":3052:3092  OwnershipTransferred(oldOwner, newOwner) */\n      0xffffffffffffffffffffffffffffffffffffffff\n      and\n        /* \"@openzeppelin/contracts@5.2.0/access/Ownable.sol\":3073:3081  oldOwner */\n      dup2\n        /* \"@openzeppelin/contracts@5.2.0/access/Ownable.sol\":3052:3092  OwnershipTransferred(oldOwner, newOwner) */\n      0xffffffffffffffffffffffffffffffffffffffff\n      and\n      0x8be0079c531659141344cd1fd0a4f28419497f9722a3daafe3b4186f6b6457e0\n      mload(0x40)\n      mload(0x40)\n      dup1\n      swap2\n      sub\n      swap1\n      log3\n        /* \"@openzeppelin/contracts@5.2.0/access/Ownable.sol\":2975:3099  {... */\n      pop\n        /* \"@openzeppelin/contracts@5.2.0/access/Ownable.sol\":2912:3099  function _transferOwnership(address newOwner) internal virtual {... */\n      pop\n      jump\t// out\n        /* \"@chainlink/contracts@1.3.0/src/v0.8/ccip/libraries/Client.sol\":1286:1464  function _argsToBytes(... */\n    tag_73:\n        /* \"@chainlink/contracts@1.3.0/src/v0.8/ccip/libraries/Client.sol\":1372:1388  bytes memory bts */\n      0x60\n        /* \"@chainlink/contracts@1.3.0/src/v0.8/ccip/libraries/Client.sol\":1218:1228  0x97a657c9 */\n      0x97a657c9\n        /* \"@chainlink/contracts@1.3.0/src/v0.8/ccip/libraries/Client.sol\":1426:1447  EVM_EXTRA_ARGS_V1_TAG */\n      0xe0\n      shl\n        /* \"@chainlink/contracts@1.3.0/src/v0.8/ccip/libraries/Client.sol\":1449:1458  extraArgs */\n      dup3\n        /* \"@chainlink/contracts@1.3.0/src/v0.8/ccip/libraries/Client.sol\":1403:1459  abi.encodeWithSelector(EVM_EXTRA_ARGS_V1_TAG, extraArgs) */\n      add(0x24, mload(0x40))\n      tag_121\n      swap2\n      swap1\n      tag_122\n      jump\t// in\n    tag_121:\n      mload(0x40)\n      0x20\n      dup2\n      dup4\n      sub\n      sub\n      dup2\n      mstore\n      swap1\n      0x40\n      mstore\n      swap1\n      not(0xffffffffffffffffffffffffffffffffffffffffffffffffffffffff)\n      and\n      0x20\n      dup3\n      add\n      dup1\n      mload\n      0xffffffffffffffffffffffffffffffffffffffffffffffffffffffff\n      dup4\n      dup2\n      dup4\n      and\n      or\n      dup4\n      mstore\n      pop\n      pop\n      pop\n      pop\n        /* \"@chainlink/contracts@1.3.0/src/v0.8/ccip/libraries/Client.sol\":1396:1459  return abi.encodeWithSelector(EVM_EXTRA_ARGS_V1_TAG, extraArgs) */\n      swap1\n      pop\n        /* \"@chainlink/contracts@1.3.0/src/v0.8/ccip/libraries/Client.sol\":1286:1464  function _argsToBytes(... */\n      swap2\n      swap1\n      pop\n      jump\t// out\n        /* \"@chainlink/contracts@1.3.0/src/v0.8/vendor/openzeppelin-solidity/v4.8.3/contracts/token/ERC20/utils/SafeERC20.sol\":932:1129  function safeTransferFrom(IERC20 token, address from, address to, uint256 value) internal {... */\n    tag_94:\n        /* \"@chainlink/contracts@1.3.0/src/v0.8/vendor/openzeppelin-solidity/v4.8.3/contracts/token/ERC20/utils/SafeERC20.sol\":1028:1124  _callOptionalReturn(token, abi.encodeWithSelector(token.transferFrom.selector, from, to, value)) */\n      tag_124\n        /* \"@chainlink/contracts@1.3.0/src/v0.8/vendor/openzeppelin-solidity/v4.8.3/contracts/token/ERC20/utils/SafeERC20.sol\":1048:1053  token */\n      dup5\n        /* \"@chainlink/contracts@1.3.0/src/v0.8/vendor/openzeppelin-solidity/v4.8.3/contracts/token/ERC20/utils/SafeERC20.sol\":1078:1105  token.transferFrom.selector */\n      shl(0xe0, 0x23b872dd)\n        /* \"@chainlink/contracts@1.3.0/src/v0.8/vendor/openzeppelin-solidity/v4.8.3/contracts/token/ERC20/utils/SafeERC20.sol\":1107:1111  from */\n      dup6\n        /* \"@chainlink/contracts@1.3.0/src/v0.8/vendor/openzeppelin-solidity/v4.8.3/contracts/token/ERC20/utils/SafeERC20.sol\":1113:1115  to */\n      dup6\n        /* \"@chainlink/contracts@1.3.0/src/v0.8/vendor/openzeppelin-solidity/v4.8.3/contracts/token/ERC20/utils/SafeERC20.sol\":1117:1122  value */\n      dup6\n        /* \"@chainlink/contracts@1.3.0/src/v0.8/vendor/openzeppelin-solidity/v4.8.3/contracts/token/ERC20/utils/SafeERC20.sol\":1055:1123  abi.encodeWithSelector(token.transferFrom.selector, from, to, value) */\n      add(0x24, mload(0x40))\n      tag_125\n      swap4\n      swap3\n      swap2\n      swap1\n      tag_126\n      jump\t// in\n    tag_125:\n      mload(0x40)\n      0x20\n      dup2\n      dup4\n      sub\n      sub\n      dup2\n      mstore\n      swap1\n      0x40\n      mstore\n      swap1\n      not(0xffffffffffffffffffffffffffffffffffffffffffffffffffffffff)\n      and\n      0x20\n      dup3\n      add\n      dup1\n      mload\n      0xffffffffffffffffffffffffffffffffffffffffffffffffffffffff\n      dup4\n      dup2\n      dup4\n      and\n      or\n      dup4\n      mstore\n      pop\n      pop\n      pop\n      pop\n        /* \"@chainlink/contracts@1.3.0/src/v0.8/vendor/openzeppelin-solidity/v4.8.3/contracts/token/ERC20/utils/SafeERC20.sol\":1028:1047  _callOptionalReturn */\n      tag_127\n        /* \"@chainlink/contracts@1.3.0/src/v0.8/vendor/openzeppelin-solidity/v4.8.3/contracts/token/ERC20/utils/SafeERC20.sol\":1028:1124  _callOptionalReturn(token, abi.encodeWithSelector(token.transferFrom.selector, from, to, value)) */\n      jump\t// in\n    tag_124:\n        /* \"@chainlink/contracts@1.3.0/src/v0.8/vendor/openzeppelin-solidity/v4.8.3/contracts/token/ERC20/utils/SafeERC20.sol\":932:1129  function safeTransferFrom(IERC20 token, address from, address to, uint256 value) internal {... */\n      pop\n      pop\n      pop\n      pop\n      jump\t// out\n        /* \"@openzeppelin/contracts@5.2.0/utils/Context.sol\":656:752  function _msgSender() internal view virtual returns (address) {... */\n    tag_114:\n        /* \"@openzeppelin/contracts@5.2.0/utils/Context.sol\":709:716  address */\n      0x00\n        /* \"@openzeppelin/contracts@5.2.0/utils/Context.sol\":735:745  msg.sender */\n      caller\n        /* \"@openzeppelin/contracts@5.2.0/utils/Context.sol\":728:745  return msg.sender */\n      swap1\n      pop\n        /* \"@openzeppelin/contracts@5.2.0/utils/Context.sol\":656:752  function _msgSender() internal view virtual returns (address) {... */\n      swap1\n      jump\t// out\n        /* \"@chainlink/contracts@1.3.0/src/v0.8/vendor/openzeppelin-solidity/v4.8.3/contracts/token/ERC20/utils/SafeERC20.sol\":3401:4069  function _callOptionalReturn(IERC20 token, bytes memory data) private {... */\n    tag_127:\n        /* \"@chainlink/contracts@1.3.0/src/v0.8/vendor/openzeppelin-solidity/v4.8.3/contracts/token/ERC20/utils/SafeERC20.sol\":3804:3827  bytes memory returndata */\n      0x00\n        /* \"@chainlink/contracts@1.3.0/src/v0.8/vendor/openzeppelin-solidity/v4.8.3/contracts/token/ERC20/utils/SafeERC20.sol\":3830:3899  address(token).functionCall(data, \"SafeERC20: low-level call failed\") */\n      tag_130\n        /* \"@chainlink/contracts@1.3.0/src/v0.8/vendor/openzeppelin-solidity/v4.8.3/contracts/token/ERC20/utils/SafeERC20.sol\":3858:3862  data */\n      dup3\n        /* \"@chainlink/contracts@1.3.0/src/v0.8/vendor/openzeppelin-solidity/v4.8.3/contracts/token/ERC20/utils/SafeERC20.sol\":3830:3899  address(token).functionCall(data, \"SafeERC20: low-level call failed\") */\n      mload(0x40)\n      dup1\n      0x40\n      add\n      0x40\n      mstore\n      dup1\n      0x20\n      dup2\n      mstore\n      0x20\n      add\n      0x5361666545524332303a206c6f772d6c6576656c2063616c6c206661696c6564\n      dup2\n      mstore\n      pop\n        /* \"@chainlink/contracts@1.3.0/src/v0.8/vendor/openzeppelin-solidity/v4.8.3/contracts/token/ERC20/utils/SafeERC20.sol\":3838:3843  token */\n      dup6\n        /* \"@chainlink/contracts@1.3.0/src/v0.8/vendor/openzeppelin-solidity/v4.8.3/contracts/token/ERC20/utils/SafeERC20.sol\":3830:3857  address(token).functionCall */\n      0xffffffffffffffffffffffffffffffffffffffff\n      and\n      tag_131\n      swap1\n        /* \"@chainlink/contracts@1.3.0/src/v0.8/vendor/openzeppelin-solidity/v4.8.3/contracts/token/ERC20/utils/SafeERC20.sol\":3830:3899  address(token).functionCall(data, \"SafeERC20: low-level call failed\") */\n      swap3\n      swap2\n      swap1\n      0xffffffff\n      and\n      jump\t// in\n    tag_130:\n        /* \"@chainlink/contracts@1.3.0/src/v0.8/vendor/openzeppelin-solidity/v4.8.3/contracts/token/ERC20/utils/SafeERC20.sol\":3804:3899  bytes memory returndata = address(token).functionCall(data, \"SafeERC20: low-level call failed\") */\n      swap1\n      pop\n        /* \"@chainlink/contracts@1.3.0/src/v0.8/vendor/openzeppelin-solidity/v4.8.3/contracts/token/ERC20/utils/SafeERC20.sol\":3929:3930  0 */\n      0x00\n        /* \"@chainlink/contracts@1.3.0/src/v0.8/vendor/openzeppelin-solidity/v4.8.3/contracts/token/ERC20/utils/SafeERC20.sol\":3909:3919  returndata */\n      dup2\n        /* \"@chainlink/contracts@1.3.0/src/v0.8/vendor/openzeppelin-solidity/v4.8.3/contracts/token/ERC20/utils/SafeERC20.sol\":3909:3926  returndata.length */\n      mload\n        /* \"@chainlink/contracts@1.3.0/src/v0.8/vendor/openzeppelin-solidity/v4.8.3/contracts/token/ERC20/utils/SafeERC20.sol\":3909:3930  returndata.length > 0 */\n      gt\n        /* \"@chainlink/contracts@1.3.0/src/v0.8/vendor/openzeppelin-solidity/v4.8.3/contracts/token/ERC20/utils/SafeERC20.sol\":3905:4065  if (returndata.length > 0) {... */\n      iszero\n      tag_132\n      jumpi\n        /* \"@chainlink/contracts@1.3.0/src/v0.8/vendor/openzeppelin-solidity/v4.8.3/contracts/token/ERC20/utils/SafeERC20.sol\":3992:4002  returndata */\n      dup1\n        /* \"@chainlink/contracts@1.3.0/src/v0.8/vendor/openzeppelin-solidity/v4.8.3/contracts/token/ERC20/utils/SafeERC20.sol\":3981:4011  abi.decode(returndata, (bool)) */\n      dup1\n      0x20\n      add\n      swap1\n      mload\n      dup2\n      add\n      swap1\n      tag_133\n      swap2\n      swap1\n      tag_47\n      jump\t// in\n    tag_133:\n        /* \"@chainlink/contracts@1.3.0/src/v0.8/vendor/openzeppelin-solidity/v4.8.3/contracts/token/ERC20/utils/SafeERC20.sol\":3973:4058  require(abi.decode(returndata, (bool)), \"SafeERC20: ERC20 operation did not succeed\") */\n      tag_134\n      jumpi\n      mload(0x40)\n      0x08c379a000000000000000000000000000000000000000000000000000000000\n      dup2\n      mstore\n      0x04\n      add\n      tag_135\n      swap1\n      tag_136\n      jump\t// in\n    tag_135:\n      mload(0x40)\n      dup1\n      swap2\n      sub\n      swap1\n      revert\n    tag_134:\n        /* \"@chainlink/contracts@1.3.0/src/v0.8/vendor/openzeppelin-solidity/v4.8.3/contracts/token/ERC20/utils/SafeERC20.sol\":3905:4065  if (returndata.length > 0) {... */\n    tag_132:\n        /* \"@chainlink/contracts@1.3.0/src/v0.8/vendor/openzeppelin-solidity/v4.8.3/contracts/token/ERC20/utils/SafeERC20.sol\":3471:4069  {... */\n      pop\n        /* \"@chainlink/contracts@1.3.0/src/v0.8/vendor/openzeppelin-solidity/v4.8.3/contracts/token/ERC20/utils/SafeERC20.sol\":3401:4069  function _callOptionalReturn(IERC20 token, bytes memory data) private {... */\n      pop\n      pop\n      jump\t// out\n        /* \"@chainlink/contracts@1.3.0/src/v0.8/vendor/openzeppelin-solidity/v4.8.3/contracts/utils/Address.sol\":3695:3882  function functionCall(address target, bytes memory data, string memory errorMessage) internal returns (bytes memory) {... */\n    tag_131:\n        /* \"@chainlink/contracts@1.3.0/src/v0.8/vendor/openzeppelin-solidity/v4.8.3/contracts/utils/Address.sol\":3798:3810  bytes memory */\n      0x60\n        /* \"@chainlink/contracts@1.3.0/src/v0.8/vendor/openzeppelin-solidity/v4.8.3/contracts/utils/Address.sol\":3825:3877  functionCallWithValue(target, data, 0, errorMessage) */\n      tag_138\n        /* \"@chainlink/contracts@1.3.0/src/v0.8/vendor/openzeppelin-solidity/v4.8.3/contracts/utils/Address.sol\":3847:3853  target */\n      dup5\n        /* \"@chainlink/contracts@1.3.0/src/v0.8/vendor/openzeppelin-solidity/v4.8.3/contracts/utils/Address.sol\":3855:3859  data */\n      dup5\n        /* \"@chainlink/contracts@1.3.0/src/v0.8/vendor/openzeppelin-solidity/v4.8.3/contracts/utils/Address.sol\":3861:3862  0 */\n      0x00\n        /* \"@chainlink/contracts@1.3.0/src/v0.8/vendor/openzeppelin-solidity/v4.8.3/contracts/utils/Address.sol\":3864:3876  errorMessage */\n      dup6\n        /* \"@chainlink/contracts@1.3.0/src/v0.8/vendor/openzeppelin-solidity/v4.8.3/contracts/utils/Address.sol\":3825:3846  functionCallWithValue */\n      tag_139\n        /* \"@chainlink/contracts@1.3.0/src/v0.8/vendor/openzeppelin-solidity/v4.8.3/contracts/utils/Address.sol\":3825:3877  functionCallWithValue(target, data, 0, errorMessage) */\n      jump\t// in\n    tag_138:\n        /* \"@chainlink/contracts@1.3.0/src/v0.8/vendor/openzeppelin-solidity/v4.8.3/contracts/utils/Address.sol\":3818:3877  return functionCallWithValue(target, data, 0, errorMessage) */\n      swap1\n      pop\n        /* \"@chainlink/contracts@1.3.0/src/v0.8/vendor/openzeppelin-solidity/v4.8.3/contracts/utils/Address.sol\":3695:3882  function functionCall(address target, bytes memory data, string memory errorMessage) internal returns (bytes memory) {... */\n      swap4\n      swap3\n      pop\n      pop\n      pop\n      jump\t// out\n        /* \"@chainlink/contracts@1.3.0/src/v0.8/vendor/openzeppelin-solidity/v4.8.3/contracts/utils/Address.sol\":4672:5086  function functionCallWithValue(... */\n    tag_139:\n        /* \"@chainlink/contracts@1.3.0/src/v0.8/vendor/openzeppelin-solidity/v4.8.3/contracts/utils/Address.sol\":4819:4831  bytes memory */\n      0x60\n        /* \"@chainlink/contracts@1.3.0/src/v0.8/vendor/openzeppelin-solidity/v4.8.3/contracts/utils/Address.sol\":4872:4877  value */\n      dup3\n        /* \"@chainlink/contracts@1.3.0/src/v0.8/vendor/openzeppelin-solidity/v4.8.3/contracts/utils/Address.sol\":4847:4868  address(this).balance */\n      selfbalance\n        /* \"@chainlink/contracts@1.3.0/src/v0.8/vendor/openzeppelin-solidity/v4.8.3/contracts/utils/Address.sol\":4847:4877  address(this).balance >= value */\n      lt\n      iszero\n        /* \"@chainlink/contracts@1.3.0/src/v0.8/vendor/openzeppelin-solidity/v4.8.3/contracts/utils/Address.sol\":4839:4920  require(address(this).balance >= value, \"Address: insufficient balance for call\") */\n      tag_141\n      jumpi\n      mload(0x40)\n      0x08c379a000000000000000000000000000000000000000000000000000000000\n      dup2\n      mstore\n      0x04\n      add\n      tag_142\n      swap1\n      tag_143\n      jump\t// in\n    tag_142:\n      mload(0x40)\n      dup1\n      swap2\n      sub\n      swap1\n      revert\n    tag_141:\n        /* \"@chainlink/contracts@1.3.0/src/v0.8/vendor/openzeppelin-solidity/v4.8.3/contracts/utils/Address.sol\":4927:4939  bool success */\n      0x00\n        /* \"@chainlink/contracts@1.3.0/src/v0.8/vendor/openzeppelin-solidity/v4.8.3/contracts/utils/Address.sol\":4941:4964  bytes memory returndata */\n      0x00\n        /* \"@chainlink/contracts@1.3.0/src/v0.8/vendor/openzeppelin-solidity/v4.8.3/contracts/utils/Address.sol\":4968:4974  target */\n      dup7\n        /* \"@chainlink/contracts@1.3.0/src/v0.8/vendor/openzeppelin-solidity/v4.8.3/contracts/utils/Address.sol\":4968:4979  target.call */\n      0xffffffffffffffffffffffffffffffffffffffff\n      and\n        /* \"@chainlink/contracts@1.3.0/src/v0.8/vendor/openzeppelin-solidity/v4.8.3/contracts/utils/Address.sol\":4987:4992  value */\n      dup6\n        /* \"@chainlink/contracts@1.3.0/src/v0.8/vendor/openzeppelin-solidity/v4.8.3/contracts/utils/Address.sol\":4994:4998  data */\n      dup8\n        /* \"@chainlink/contracts@1.3.0/src/v0.8/vendor/openzeppelin-solidity/v4.8.3/contracts/utils/Address.sol\":4968:4999  target.call{value: value}(data) */\n      mload(0x40)\n      tag_144\n      swap2\n      swap1\n      tag_145\n      jump\t// in\n    tag_144:\n      0x00\n      mload(0x40)\n      dup1\n      dup4\n      sub\n      dup2\n      dup6\n      dup8\n      gas\n      call\n      swap3\n      pop\n      pop\n      pop\n      returndatasize\n      dup1\n      0x00\n      dup2\n      eq\n      tag_148\n      jumpi\n      mload(0x40)\n      swap2\n      pop\n      and(add(returndatasize, 0x3f), not(0x1f))\n      dup3\n      add\n      0x40\n      mstore\n      returndatasize\n      dup3\n      mstore\n      returndatasize\n      0x00\n      0x20\n      dup5\n      add\n      returndatacopy\n      jump(tag_147)\n    tag_148:\n      0x60\n      swap2\n      pop\n    tag_147:\n      pop\n        /* \"@chainlink/contracts@1.3.0/src/v0.8/vendor/openzeppelin-solidity/v4.8.3/contracts/utils/Address.sol\":4926:4999  (bool success, bytes memory returndata) = target.call{value: value}(data) */\n      swap2\n      pop\n      swap2\n      pop\n        /* \"@chainlink/contracts@1.3.0/src/v0.8/vendor/openzeppelin-solidity/v4.8.3/contracts/utils/Address.sol\":5012:5081  verifyCallResultFromTarget(target, success, returndata, errorMessage) */\n      tag_149\n        /* \"@chainlink/contracts@1.3.0/src/v0.8/vendor/openzeppelin-solidity/v4.8.3/contracts/utils/Address.sol\":5039:5045  target */\n      dup8\n        /* \"@chainlink/contracts@1.3.0/src/v0.8/vendor/openzeppelin-solidity/v4.8.3/contracts/utils/Address.sol\":5047:5054  success */\n      dup4\n        /* \"@chainlink/contracts@1.3.0/src/v0.8/vendor/openzeppelin-solidity/v4.8.3/contracts/utils/Address.sol\":5056:5066  returndata */\n      dup4\n        /* \"@chainlink/contracts@1.3.0/src/v0.8/vendor/openzeppelin-solidity/v4.8.3/contracts/utils/Address.sol\":5068:5080  errorMessage */\n      dup8\n        /* \"@chainlink/contracts@1.3.0/src/v0.8/vendor/openzeppelin-solidity/v4.8.3/contracts/utils/Address.sol\":5012:5038  verifyCallResultFromTarget */\n      tag_150\n        /* \"@chainlink/contracts@1.3.0/src/v0.8/vendor/openzeppelin-solidity/v4.8.3/contracts/utils/Address.sol\":5012:5081  verifyCallResultFromTarget(target, success, returndata, errorMessage) */\n      jump\t// in\n    tag_149:\n        /* \"@chainlink/contracts@1.3.0/src/v0.8/vendor/openzeppelin-solidity/v4.8.3/contracts/utils/Address.sol\":5005:5081  return verifyCallResultFromTarget(target, success, returndata, errorMessage) */\n      swap3\n      pop\n      pop\n      pop\n        /* \"@chainlink/contracts@1.3.0/src/v0.8/vendor/openzeppelin-solidity/v4.8.3/contracts/utils/Address.sol\":4672:5086  function functionCallWithValue(... */\n      swap5\n      swap4\n      pop\n      pop\n      pop\n      pop\n      jump\t// out\n        /* \"@chainlink/contracts@1.3.0/src/v0.8/vendor/openzeppelin-solidity/v4.8.3/contracts/utils/Address.sol\":7016:7564  function verifyCallResultFromTarget(... */\n    tag_150:\n        /* \"@chainlink/contracts@1.3.0/src/v0.8/vendor/openzeppelin-solidity/v4.8.3/contracts/utils/Address.sol\":7178:7190  bytes memory */\n      0x60\n        /* \"@chainlink/contracts@1.3.0/src/v0.8/vendor/openzeppelin-solidity/v4.8.3/contracts/utils/Address.sol\":7202:7209  success */\n      dup4\n        /* \"@chainlink/contracts@1.3.0/src/v0.8/vendor/openzeppelin-solidity/v4.8.3/contracts/utils/Address.sol\":7198:7560  if (success) {... */\n      iszero\n      tag_152\n      jumpi\n        /* \"@chainlink/contracts@1.3.0/src/v0.8/vendor/openzeppelin-solidity/v4.8.3/contracts/utils/Address.sol\":7244:7245  0 */\n      0x00\n        /* \"@chainlink/contracts@1.3.0/src/v0.8/vendor/openzeppelin-solidity/v4.8.3/contracts/utils/Address.sol\":7223:7233  returndata */\n      dup4\n        /* \"@chainlink/contracts@1.3.0/src/v0.8/vendor/openzeppelin-solidity/v4.8.3/contracts/utils/Address.sol\":7223:7240  returndata.length */\n      mload\n        /* \"@chainlink/contracts@1.3.0/src/v0.8/vendor/openzeppelin-solidity/v4.8.3/contracts/utils/Address.sol\":7223:7245  returndata.length == 0 */\n      sub\n        /* \"@chainlink/contracts@1.3.0/src/v0.8/vendor/openzeppelin-solidity/v4.8.3/contracts/utils/Address.sol\":7219:7475  if (returndata.length == 0) {... */\n      tag_153\n      jumpi\n        /* \"@chainlink/contracts@1.3.0/src/v0.8/vendor/openzeppelin-solidity/v4.8.3/contracts/utils/Address.sol\":7414:7432  isContract(target) */\n      tag_154\n        /* \"@chainlink/contracts@1.3.0/src/v0.8/vendor/openzeppelin-solidity/v4.8.3/contracts/utils/Address.sol\":7425:7431  target */\n      dup6\n        /* \"@chainlink/contracts@1.3.0/src/v0.8/vendor/openzeppelin-solidity/v4.8.3/contracts/utils/Address.sol\":7414:7424  isContract */\n      tag_155\n        /* \"@chainlink/contracts@1.3.0/src/v0.8/vendor/openzeppelin-solidity/v4.8.3/contracts/utils/Address.sol\":7414:7432  isContract(target) */\n      jump\t// in\n    tag_154:\n        /* \"@chainlink/contracts@1.3.0/src/v0.8/vendor/openzeppelin-solidity/v4.8.3/contracts/utils/Address.sol\":7406:7466  require(isContract(target), \"Address: call to non-contract\") */\n      tag_156\n      jumpi\n      mload(0x40)\n      0x08c379a000000000000000000000000000000000000000000000000000000000\n      dup2\n      mstore\n      0x04\n      add\n      tag_157\n      swap1\n      tag_158\n      jump\t// in\n    tag_157:\n      mload(0x40)\n      dup1\n      swap2\n      sub\n      swap1\n      revert\n    tag_156:\n        /* \"@chainlink/contracts@1.3.0/src/v0.8/vendor/openzeppelin-solidity/v4.8.3/contracts/utils/Address.sol\":7219:7475  if (returndata.length == 0) {... */\n    tag_153:\n        /* \"@chainlink/contracts@1.3.0/src/v0.8/vendor/openzeppelin-solidity/v4.8.3/contracts/utils/Address.sol\":7489:7499  returndata */\n      dup3\n        /* \"@chainlink/contracts@1.3.0/src/v0.8/vendor/openzeppelin-solidity/v4.8.3/contracts/utils/Address.sol\":7482:7499  return returndata */\n      swap1\n      pop\n      jump(tag_151)\n        /* \"@chainlink/contracts@1.3.0/src/v0.8/vendor/openzeppelin-solidity/v4.8.3/contracts/utils/Address.sol\":7198:7560  if (success) {... */\n    tag_152:\n        /* \"@chainlink/contracts@1.3.0/src/v0.8/vendor/openzeppelin-solidity/v4.8.3/contracts/utils/Address.sol\":7520:7553  _revert(returndata, errorMessage) */\n      tag_160\n        /* \"@chainlink/contracts@1.3.0/src/v0.8/vendor/openzeppelin-solidity/v4.8.3/contracts/utils/Address.sol\":7528:7538  returndata */\n      dup4\n        /* \"@chainlink/contracts@1.3.0/src/v0.8/vendor/openzeppelin-solidity/v4.8.3/contracts/utils/Address.sol\":7540:7552  errorMessage */\n      dup4\n        /* \"@chainlink/contracts@1.3.0/src/v0.8/vendor/openzeppelin-solidity/v4.8.3/contracts/utils/Address.sol\":7520:7527  _revert */\n      tag_161\n        /* \"@chainlink/contracts@1.3.0/src/v0.8/vendor/openzeppelin-solidity/v4.8.3/contracts/utils/Address.sol\":7520:7553  _revert(returndata, errorMessage) */\n      jump\t// in\n    tag_160:\n        /* \"@chainlink/contracts@1.3.0/src/v0.8/vendor/openzeppelin-solidity/v4.8.3/contracts/utils/Address.sol\":7016:7564  function verifyCallResultFromTarget(... */\n    tag_151:\n      swap5\n      swap4\n      pop\n      pop\n      pop\n      pop\n      jump\t// out\n        /* \"@chainlink/contracts@1.3.0/src/v0.8/vendor/openzeppelin-solidity/v4.8.3/contracts/utils/Address.sol\":1121:1423  function isContract(address account) internal view returns (bool) {... */\n    tag_155:\n        /* \"@chainlink/contracts@1.3.0/src/v0.8/vendor/openzeppelin-solidity/v4.8.3/contracts/utils/Address.sol\":1181:1185  bool */\n      0x00\n        /* \"@chainlink/contracts@1.3.0/src/v0.8/vendor/openzeppelin-solidity/v4.8.3/contracts/utils/Address.sol\":1417:1418  0 */\n      0x00\n        /* \"@chainlink/contracts@1.3.0/src/v0.8/vendor/openzeppelin-solidity/v4.8.3/contracts/utils/Address.sol\":1395:1402  account */\n      dup3\n        /* \"@chainlink/contracts@1.3.0/src/v0.8/vendor/openzeppelin-solidity/v4.8.3/contracts/utils/Address.sol\":1395:1414  account.code.length */\n      0xffffffffffffffffffffffffffffffffffffffff\n      and\n      extcodesize\n        /* \"@chainlink/contracts@1.3.0/src/v0.8/vendor/openzeppelin-solidity/v4.8.3/contracts/utils/Address.sol\":1395:1418  account.code.length > 0 */\n      gt\n        /* \"@chainlink/contracts@1.3.0/src/v0.8/vendor/openzeppelin-solidity/v4.8.3/contracts/utils/Address.sol\":1388:1418  return account.code.length > 0 */\n      swap1\n      pop\n        /* \"@chainlink/contracts@1.3.0/src/v0.8/vendor/openzeppelin-solidity/v4.8.3/contracts/utils/Address.sol\":1121:1423  function isContract(address account) internal view returns (bool) {... */\n      swap2\n      swap1\n      pop\n      jump\t// out\n        /* \"@chainlink/contracts@1.3.0/src/v0.8/vendor/openzeppelin-solidity/v4.8.3/contracts/utils/Address.sol\":8030:8506  function _revert(bytes memory returndata, string memory errorMessage) private pure {... */\n    tag_161:\n        /* \"@chainlink/contracts@1.3.0/src/v0.8/vendor/openzeppelin-solidity/v4.8.3/contracts/utils/Address.sol\":8201:8202  0 */\n      0x00\n        /* \"@chainlink/contracts@1.3.0/src/v0.8/vendor/openzeppelin-solidity/v4.8.3/contracts/utils/Address.sol\":8181:8191  returndata */\n      dup3\n        /* \"@chainlink/contracts@1.3.0/src/v0.8/vendor/openzeppelin-solidity/v4.8.3/contracts/utils/Address.sol\":8181:8198  returndata.length */\n      mload\n        /* \"@chainlink/contracts@1.3.0/src/v0.8/vendor/openzeppelin-solidity/v4.8.3/contracts/utils/Address.sol\":8181:8202  returndata.length > 0 */\n      gt\n        /* \"@chainlink/contracts@1.3.0/src/v0.8/vendor/openzeppelin-solidity/v4.8.3/contracts/utils/Address.sol\":8177:8502  if (returndata.length > 0) {... */\n      iszero\n      tag_164\n      jumpi\n        /* \"@chainlink/contracts@1.3.0/src/v0.8/vendor/openzeppelin-solidity/v4.8.3/contracts/utils/Address.sol\":8383:8393  returndata */\n      dup2\n        /* \"@chainlink/contracts@1.3.0/src/v0.8/vendor/openzeppelin-solidity/v4.8.3/contracts/utils/Address.sol\":8377:8394  mload(returndata) */\n      mload\n        /* \"@chainlink/contracts@1.3.0/src/v0.8/vendor/openzeppelin-solidity/v4.8.3/contracts/utils/Address.sol\":8431:8446  returndata_size */\n      dup1\n        /* \"@chainlink/contracts@1.3.0/src/v0.8/vendor/openzeppelin-solidity/v4.8.3/contracts/utils/Address.sol\":8418:8428  returndata */\n      dup4\n        /* \"@chainlink/contracts@1.3.0/src/v0.8/vendor/openzeppelin-solidity/v4.8.3/contracts/utils/Address.sol\":8414:8416  32 */\n      0x20\n        /* \"@chainlink/contracts@1.3.0/src/v0.8/vendor/openzeppelin-solidity/v4.8.3/contracts/utils/Address.sol\":8410:8429  add(32, returndata) */\n      add\n        /* \"@chainlink/contracts@1.3.0/src/v0.8/vendor/openzeppelin-solidity/v4.8.3/contracts/utils/Address.sol\":8403:8447  revert(add(32, returndata), returndata_size) */\n      revert\n        /* \"@chainlink/contracts@1.3.0/src/v0.8/vendor/openzeppelin-solidity/v4.8.3/contracts/utils/Address.sol\":8177:8502  if (returndata.length > 0) {... */\n    tag_164:\n        /* \"@chainlink/contracts@1.3.0/src/v0.8/vendor/openzeppelin-solidity/v4.8.3/contracts/utils/Address.sol\":8482:8494  errorMessage */\n      dup1\n        /* \"@chainlink/contracts@1.3.0/src/v0.8/vendor/openzeppelin-solidity/v4.8.3/contracts/utils/Address.sol\":8475:8495  revert(errorMessage) */\n      mload(0x40)\n      0x08c379a000000000000000000000000000000000000000000000000000000000\n      dup2\n      mstore\n      0x04\n      add\n      tag_166\n      swap2\n      swap1\n      tag_167\n      jump\t// in\n    tag_166:\n      mload(0x40)\n      dup1\n      swap2\n      sub\n      swap1\n      revert\n    tag_67:\n      mload(0x40)\n      dup1\n      0x40\n      add\n      0x40\n      mstore\n      dup1\n      and(0xffffffffffffffffffffffffffffffffffffffff, 0x00)\n      dup2\n      mstore\n      0x20\n      add\n      0x00\n      dup2\n      mstore\n      pop\n      swap1\n      jump\t// out\n        /* \"#utility.yul\":88:205   */\n    tag_169:\n        /* \"#utility.yul\":197:198   */\n      0x00\n        /* \"#utility.yul\":194:195   */\n      0x00\n        /* \"#utility.yul\":187:199   */\n      revert\n        /* \"#utility.yul\":334:460   */\n    tag_171:\n        /* \"#utility.yul\":371:378   */\n      0x00\n        /* \"#utility.yul\":411:453   */\n      0xffffffffffffffffffffffffffffffffffffffff\n        /* \"#utility.yul\":404:409   */\n      dup3\n        /* \"#utility.yul\":400:454   */\n      and\n        /* \"#utility.yul\":389:454   */\n      swap1\n      pop\n        /* \"#utility.yul\":334:460   */\n      swap2\n      swap1\n      pop\n      jump\t// out\n        /* \"#utility.yul\":466:562   */\n    tag_172:\n        /* \"#utility.yul\":503:510   */\n      0x00\n        /* \"#utility.yul\":532:556   */\n      tag_228\n        /* \"#utility.yul\":550:555   */\n      dup3\n        /* \"#utility.yul\":532:556   */\n      tag_171\n      jump\t// in\n    tag_228:\n        /* \"#utility.yul\":521:556   */\n      swap1\n      pop\n        /* \"#utility.yul\":466:562   */\n      swap2\n      swap1\n      pop\n      jump\t// out\n        /* \"#utility.yul\":568:690   */\n    tag_173:\n        /* \"#utility.yul\":641:665   */\n      tag_230\n        /* \"#utility.yul\":659:664   */\n      dup2\n        /* \"#utility.yul\":641:665   */\n      tag_172\n      jump\t// in\n    tag_230:\n        /* \"#utility.yul\":634:639   */\n      dup2\n        /* \"#utility.yul\":631:666   */\n      eq\n        /* \"#utility.yul\":621:684   */\n      tag_231\n      jumpi\n        /* \"#utility.yul\":680:681   */\n      0x00\n        /* \"#utility.yul\":677:678   */\n      0x00\n        /* \"#utility.yul\":670:682   */\n      revert\n        /* \"#utility.yul\":621:684   */\n    tag_231:\n        /* \"#utility.yul\":568:690   */\n      pop\n      jump\t// out\n        /* \"#utility.yul\":696:835   */\n    tag_174:\n        /* \"#utility.yul\":742:747   */\n      0x00\n        /* \"#utility.yul\":780:786   */\n      dup2\n        /* \"#utility.yul\":767:787   */\n      calldataload\n        /* \"#utility.yul\":758:787   */\n      swap1\n      pop\n        /* \"#utility.yul\":796:829   */\n      tag_233\n        /* \"#utility.yul\":823:828   */\n      dup2\n        /* \"#utility.yul\":796:829   */\n      tag_173\n      jump\t// in\n    tag_233:\n        /* \"#utility.yul\":696:835   */\n      swap3\n      swap2\n      pop\n      pop\n      jump\t// out\n        /* \"#utility.yul\":841:1170   */\n    tag_12:\n        /* \"#utility.yul\":900:906   */\n      0x00\n        /* \"#utility.yul\":949:951   */\n      0x20\n        /* \"#utility.yul\":937:946   */\n      dup3\n        /* \"#utility.yul\":928:935   */\n      dup5\n        /* \"#utility.yul\":924:947   */\n      sub\n        /* \"#utility.yul\":920:952   */\n      slt\n        /* \"#utility.yul\":917:1036   */\n      iszero\n      tag_235\n      jumpi\n        /* \"#utility.yul\":955:1034   */\n      tag_236\n      tag_169\n      jump\t// in\n    tag_236:\n        /* \"#utility.yul\":917:1036   */\n    tag_235:\n        /* \"#utility.yul\":1075:1076   */\n      0x00\n        /* \"#utility.yul\":1100:1153   */\n      tag_237\n        /* \"#utility.yul\":1145:1152   */\n      dup5\n        /* \"#utility.yul\":1136:1142   */\n      dup3\n        /* \"#utility.yul\":1125:1134   */\n      dup6\n        /* \"#utility.yul\":1121:1143   */\n      add\n        /* \"#utility.yul\":1100:1153   */\n      tag_174\n      jump\t// in\n    tag_237:\n        /* \"#utility.yul\":1090:1153   */\n      swap2\n      pop\n        /* \"#utility.yul\":1046:1163   */\n      pop\n        /* \"#utility.yul\":841:1170   */\n      swap3\n      swap2\n      pop\n      pop\n      jump\t// out\n        /* \"#utility.yul\":1176:1294   */\n    tag_175:\n        /* \"#utility.yul\":1263:1287   */\n      tag_239\n        /* \"#utility.yul\":1281:1286   */\n      dup2\n        /* \"#utility.yul\":1263:1287   */\n      tag_172\n      jump\t// in\n    tag_239:\n        /* \"#utility.yul\":1258:1261   */\n      dup3\n        /* \"#utility.yul\":1251:1288   */\n      mstore\n        /* \"#utility.yul\":1176:1294   */\n      pop\n      pop\n      jump\t// out\n        /* \"#utility.yul\":1300:1522   */\n    tag_17:\n        /* \"#utility.yul\":1393:1397   */\n      0x00\n        /* \"#utility.yul\":1431:1433   */\n      0x20\n        /* \"#utility.yul\":1420:1429   */\n      dup3\n        /* \"#utility.yul\":1416:1434   */\n      add\n        /* \"#utility.yul\":1408:1434   */\n      swap1\n      pop\n        /* \"#utility.yul\":1444:1515   */\n      tag_241\n        /* \"#utility.yul\":1512:1513   */\n      0x00\n        /* \"#utility.yul\":1501:1510   */\n      dup4\n        /* \"#utility.yul\":1497:1514   */\n      add\n        /* \"#utility.yul\":1488:1494   */\n      dup5\n        /* \"#utility.yul\":1444:1515   */\n      tag_175\n      jump\t// in\n    tag_241:\n        /* \"#utility.yul\":1300:1522   */\n      swap3\n      swap2\n      pop\n      pop\n      jump\t// out\n        /* \"#utility.yul\":1528:1605   */\n    tag_176:\n        /* \"#utility.yul\":1565:1572   */\n      0x00\n        /* \"#utility.yul\":1594:1599   */\n      dup2\n        /* \"#utility.yul\":1583:1599   */\n      swap1\n      pop\n        /* \"#utility.yul\":1528:1605   */\n      swap2\n      swap1\n      pop\n      jump\t// out\n        /* \"#utility.yul\":1611:1733   */\n    tag_177:\n        /* \"#utility.yul\":1684:1708   */\n      tag_244\n        /* \"#utility.yul\":1702:1707   */\n      dup2\n        /* \"#utility.yul\":1684:1708   */\n      tag_176\n      jump\t// in\n    tag_244:\n        /* \"#utility.yul\":1677:1682   */\n      dup2\n        /* \"#utility.yul\":1674:1709   */\n      eq\n        /* \"#utility.yul\":1664:1727   */\n      tag_245\n      jumpi\n        /* \"#utility.yul\":1723:1724   */\n      0x00\n        /* \"#utility.yul\":1720:1721   */\n      0x00\n        /* \"#utility.yul\":1713:1725   */\n      revert\n        /* \"#utility.yul\":1664:1727   */\n    tag_245:\n        /* \"#utility.yul\":1611:1733   */\n      pop\n      jump\t// out\n        /* \"#utility.yul\":1739:1878   */\n    tag_178:\n        /* \"#utility.yul\":1785:1790   */\n      0x00\n        /* \"#utility.yul\":1823:1829   */\n      dup2\n        /* \"#utility.yul\":1810:1830   */\n      calldataload\n        /* \"#utility.yul\":1801:1830   */\n      swap1\n      pop\n        /* \"#utility.yul\":1839:1872   */\n      tag_247\n        /* \"#utility.yul\":1866:1871   */\n      dup2\n        /* \"#utility.yul\":1839:1872   */\n      tag_177\n      jump\t// in\n    tag_247:\n        /* \"#utility.yul\":1739:1878   */\n      swap3\n      swap2\n      pop\n      pop\n      jump\t// out\n        /* \"#utility.yul\":1884:2358   */\n    tag_20:\n        /* \"#utility.yul\":1952:1958   */\n      0x00\n        /* \"#utility.yul\":1960:1966   */\n      0x00\n        /* \"#utility.yul\":2009:2011   */\n      0x40\n        /* \"#utility.yul\":1997:2006   */\n      dup4\n        /* \"#utility.yul\":1988:1995   */\n      dup6\n        /* \"#utility.yul\":1984:2007   */\n      sub\n        /* \"#utility.yul\":1980:2012   */\n      slt\n        /* \"#utility.yul\":1977:2096   */\n      iszero\n      tag_249\n      jumpi\n        /* \"#utility.yul\":2015:2094   */\n      tag_250\n      tag_169\n      jump\t// in\n    tag_250:\n        /* \"#utility.yul\":1977:2096   */\n    tag_249:\n        /* \"#utility.yul\":2135:2136   */\n      0x00\n        /* \"#utility.yul\":2160:2213   */\n      tag_251\n        /* \"#utility.yul\":2205:2212   */\n      dup6\n        /* \"#utility.yul\":2196:2202   */\n      dup3\n        /* \"#utility.yul\":2185:2194   */\n      dup7\n        /* \"#utility.yul\":2181:2203   */\n      add\n        /* \"#utility.yul\":2160:2213   */\n      tag_174\n      jump\t// in\n    tag_251:\n        /* \"#utility.yul\":2150:2213   */\n      swap3\n      pop\n        /* \"#utility.yul\":2106:2223   */\n      pop\n        /* \"#utility.yul\":2262:2264   */\n      0x20\n        /* \"#utility.yul\":2288:2341   */\n      tag_252\n        /* \"#utility.yul\":2333:2340   */\n      dup6\n        /* \"#utility.yul\":2324:2330   */\n      dup3\n        /* \"#utility.yul\":2313:2322   */\n      dup7\n        /* \"#utility.yul\":2309:2331   */\n      add\n        /* \"#utility.yul\":2288:2341   */\n      tag_178\n      jump\t// in\n    tag_252:\n        /* \"#utility.yul\":2278:2341   */\n      swap2\n      pop\n        /* \"#utility.yul\":2233:2351   */\n      pop\n        /* \"#utility.yul\":1884:2358   */\n      swap3\n      pop\n      swap3\n      swap1\n      pop\n      jump\t// out\n        /* \"#utility.yul\":2364:2441   */\n    tag_179:\n        /* \"#utility.yul\":2401:2408   */\n      0x00\n        /* \"#utility.yul\":2430:2435   */\n      dup2\n        /* \"#utility.yul\":2419:2435   */\n      swap1\n      pop\n        /* \"#utility.yul\":2364:2441   */\n      swap2\n      swap1\n      pop\n      jump\t// out\n        /* \"#utility.yul\":2447:2565   */\n    tag_180:\n        /* \"#utility.yul\":2534:2558   */\n      tag_255\n        /* \"#utility.yul\":2552:2557   */\n      dup2\n        /* \"#utility.yul\":2534:2558   */\n      tag_179\n      jump\t// in\n    tag_255:\n        /* \"#utility.yul\":2529:2532   */\n      dup3\n        /* \"#utility.yul\":2522:2559   */\n      mstore\n        /* \"#utility.yul\":2447:2565   */\n      pop\n      pop\n      jump\t// out\n        /* \"#utility.yul\":2571:2793   */\n    tag_23:\n        /* \"#utility.yul\":2664:2668   */\n      0x00\n        /* \"#utility.yul\":2702:2704   */\n      0x20\n        /* \"#utility.yul\":2691:2700   */\n      dup3\n        /* \"#utility.yul\":2687:2705   */\n      add\n        /* \"#utility.yul\":2679:2705   */\n      swap1\n      pop\n        /* \"#utility.yul\":2715:2786   */\n      tag_257\n        /* \"#utility.yul\":2783:2784   */\n      0x00\n        /* \"#utility.yul\":2772:2781   */\n      dup4\n        /* \"#utility.yul\":2768:2785   */\n      add\n        /* \"#utility.yul\":2759:2765   */\n      dup5\n        /* \"#utility.yul\":2715:2786   */\n      tag_180\n      jump\t// in\n    tag_257:\n        /* \"#utility.yul\":2571:2793   */\n      swap3\n      swap2\n      pop\n      pop\n      jump\t// out\n        /* \"#utility.yul\":2799:2942   */\n    tag_181:\n        /* \"#utility.yul\":2856:2861   */\n      0x00\n        /* \"#utility.yul\":2887:2893   */\n      dup2\n        /* \"#utility.yul\":2881:2894   */\n      mload\n        /* \"#utility.yul\":2872:2894   */\n      swap1\n      pop\n        /* \"#utility.yul\":2903:2936   */\n      tag_259\n        /* \"#utility.yul\":2930:2935   */\n      dup2\n        /* \"#utility.yul\":2903:2936   */\n      tag_177\n      jump\t// in\n    tag_259:\n        /* \"#utility.yul\":2799:2942   */\n      swap3\n      swap2\n      pop\n      pop\n      jump\t// out\n        /* \"#utility.yul\":2948:3299   */\n    tag_40:\n        /* \"#utility.yul\":3018:3024   */\n      0x00\n        /* \"#utility.yul\":3067:3069   */\n      0x20\n        /* \"#utility.yul\":3055:3064   */\n      dup3\n        /* \"#utility.yul\":3046:3053   */\n      dup5\n        /* \"#utility.yul\":3042:3065   */\n      sub\n        /* \"#utility.yul\":3038:3070   */\n      slt\n        /* \"#utility.yul\":3035:3154   */\n      iszero\n      tag_261\n      jumpi\n        /* \"#utility.yul\":3073:3152   */\n      tag_262\n      tag_169\n      jump\t// in\n    tag_262:\n        /* \"#utility.yul\":3035:3154   */\n    tag_261:\n        /* \"#utility.yul\":3193:3194   */\n      0x00\n        /* \"#utility.yul\":3218:3282   */\n      tag_263\n        /* \"#utility.yul\":3274:3281   */\n      dup5\n        /* \"#utility.yul\":3265:3271   */\n      dup3\n        /* \"#utility.yul\":3254:3263   */\n      dup6\n        /* \"#utility.yul\":3250:3272   */\n      add\n        /* \"#utility.yul\":3218:3282   */\n      tag_181\n      jump\t// in\n    tag_263:\n        /* \"#utility.yul\":3208:3282   */\n      swap2\n      pop\n        /* \"#utility.yul\":3164:3292   */\n      pop\n        /* \"#utility.yul\":2948:3299   */\n      swap3\n      swap2\n      pop\n      pop\n      jump\t// out\n        /* \"#utility.yul\":3305:3423   */\n    tag_182:\n        /* \"#utility.yul\":3392:3416   */\n      tag_265\n        /* \"#utility.yul\":3410:3415   */\n      dup2\n        /* \"#utility.yul\":3392:3416   */\n      tag_176\n      jump\t// in\n    tag_265:\n        /* \"#utility.yul\":3387:3390   */\n      dup3\n        /* \"#utility.yul\":3380:3417   */\n      mstore\n        /* \"#utility.yul\":3305:3423   */\n      pop\n      pop\n      jump\t// out\n        /* \"#utility.yul\":3429:3761   */\n    tag_43:\n        /* \"#utility.yul\":3550:3554   */\n      0x00\n        /* \"#utility.yul\":3588:3590   */\n      0x40\n        /* \"#utility.yul\":3577:3586   */\n      dup3\n        /* \"#utility.yul\":3573:3591   */\n      add\n        /* \"#utility.yul\":3565:3591   */\n      swap1\n      pop\n        /* \"#utility.yul\":3601:3672   */\n      tag_267\n        /* \"#utility.yul\":3669:3670   */\n      0x00\n        /* \"#utility.yul\":3658:3667   */\n      dup4\n        /* \"#utility.yul\":3654:3671   */\n      add\n        /* \"#utility.yul\":3645:3651   */\n      dup6\n        /* \"#utility.yul\":3601:3672   */\n      tag_175\n      jump\t// in\n    tag_267:\n        /* \"#utility.yul\":3682:3754   */\n      tag_268\n        /* \"#utility.yul\":3750:3752   */\n      0x20\n        /* \"#utility.yul\":3739:3748   */\n      dup4\n        /* \"#utility.yul\":3735:3753   */\n      add\n        /* \"#utility.yul\":3726:3732   */\n      dup5\n        /* \"#utility.yul\":3682:3754   */\n      tag_182\n      jump\t// in\n    tag_268:\n        /* \"#utility.yul\":3429:3761   */\n      swap4\n      swap3\n      pop\n      pop\n      pop\n      jump\t// out\n        /* \"#utility.yul\":3767:3857   */\n    tag_183:\n        /* \"#utility.yul\":3801:3808   */\n      0x00\n        /* \"#utility.yul\":3844:3849   */\n      dup2\n        /* \"#utility.yul\":3837:3850   */\n      iszero\n        /* \"#utility.yul\":3830:3851   */\n      iszero\n        /* \"#utility.yul\":3819:3851   */\n      swap1\n      pop\n        /* \"#utility.yul\":3767:3857   */\n      swap2\n      swap1\n      pop\n      jump\t// out\n        /* \"#utility.yul\":3863:3979   */\n    tag_184:\n        /* \"#utility.yul\":3933:3954   */\n      tag_271\n        /* \"#utility.yul\":3948:3953   */\n      dup2\n        /* \"#utility.yul\":3933:3954   */\n      tag_183\n      jump\t// in\n    tag_271:\n        /* \"#utility.yul\":3926:3931   */\n      dup2\n        /* \"#utility.yul\":3923:3955   */\n      eq\n        /* \"#utility.yul\":3913:3973   */\n      tag_272\n      jumpi\n        /* \"#utility.yul\":3969:3970   */\n      0x00\n        /* \"#utility.yul\":3966:3967   */\n      0x00\n        /* \"#utility.yul\":3959:3971   */\n      revert\n        /* \"#utility.yul\":3913:3973   */\n    tag_272:\n        /* \"#utility.yul\":3863:3979   */\n      pop\n      jump\t// out\n        /* \"#utility.yul\":3985:4122   */\n    tag_185:\n        /* \"#utility.yul\":4039:4044   */\n      0x00\n        /* \"#utility.yul\":4070:4076   */\n      dup2\n        /* \"#utility.yul\":4064:4077   */\n      mload\n        /* \"#utility.yul\":4055:4077   */\n      swap1\n      pop\n        /* \"#utility.yul\":4086:4116   */\n      tag_274\n        /* \"#utility.yul\":4110:4115   */\n      dup2\n        /* \"#utility.yul\":4086:4116   */\n      tag_184\n      jump\t// in\n    tag_274:\n        /* \"#utility.yul\":3985:4122   */\n      swap3\n      swap2\n      pop\n      pop\n      jump\t// out\n        /* \"#utility.yul\":4128:4473   */\n    tag_47:\n        /* \"#utility.yul\":4195:4201   */\n      0x00\n        /* \"#utility.yul\":4244:4246   */\n      0x20\n        /* \"#utility.yul\":4232:4241   */\n      dup3\n        /* \"#utility.yul\":4223:4230   */\n      dup5\n        /* \"#utility.yul\":4219:4242   */\n      sub\n        /* \"#utility.yul\":4215:4247   */\n      slt\n        /* \"#utility.yul\":4212:4331   */\n      iszero\n      tag_276\n      jumpi\n        /* \"#utility.yul\":4250:4329   */\n      tag_277\n      tag_169\n      jump\t// in\n    tag_277:\n        /* \"#utility.yul\":4212:4331   */\n    tag_276:\n        /* \"#utility.yul\":4370:4371   */\n      0x00\n        /* \"#utility.yul\":4395:4456   */\n      tag_278\n        /* \"#utility.yul\":4448:4455   */\n      dup5\n        /* \"#utility.yul\":4439:4445   */\n      dup3\n        /* \"#utility.yul\":4428:4437   */\n      dup6\n        /* \"#utility.yul\":4424:4446   */\n      add\n        /* \"#utility.yul\":4395:4456   */\n      tag_185\n      jump\t// in\n    tag_278:\n        /* \"#utility.yul\":4385:4456   */\n      swap2\n      pop\n        /* \"#utility.yul\":4341:4466   */\n      pop\n        /* \"#utility.yul\":4128:4473   */\n      swap3\n      swap2\n      pop\n      pop\n      jump\t// out\n        /* \"#utility.yul\":4479:4539   */\n    tag_186:\n        /* \"#utility.yul\":4507:4510   */\n      0x00\n        /* \"#utility.yul\":4528:4533   */\n      dup2\n        /* \"#utility.yul\":4521:4533   */\n      swap1\n      pop\n        /* \"#utility.yul\":4479:4539   */\n      swap2\n      swap1\n      pop\n      jump\t// out\n        /* \"#utility.yul\":4545:4687   */\n    tag_187:\n        /* \"#utility.yul\":4595:4604   */\n      0x00\n        /* \"#utility.yul\":4628:4681   */\n      tag_281\n        /* \"#utility.yul\":4646:4680   */\n      tag_282\n        /* \"#utility.yul\":4655:4679   */\n      tag_283\n        /* \"#utility.yul\":4673:4678   */\n      dup5\n        /* \"#utility.yul\":4655:4679   */\n      tag_171\n      jump\t// in\n    tag_283:\n        /* \"#utility.yul\":4646:4680   */\n      tag_186\n      jump\t// in\n    tag_282:\n        /* \"#utility.yul\":4628:4681   */\n      tag_171\n      jump\t// in\n    tag_281:\n        /* \"#utility.yul\":4615:4681   */\n      swap1\n      pop\n        /* \"#utility.yul\":4545:4687   */\n      swap2\n      swap1\n      pop\n      jump\t// out\n        /* \"#utility.yul\":4693:4819   */\n    tag_188:\n        /* \"#utility.yul\":4743:4752   */\n      0x00\n        /* \"#utility.yul\":4776:4813   */\n      tag_285\n        /* \"#utility.yul\":4807:4812   */\n      dup3\n        /* \"#utility.yul\":4776:4813   */\n      tag_187\n      jump\t// in\n    tag_285:\n        /* \"#utility.yul\":4763:4813   */\n      swap1\n      pop\n        /* \"#utility.yul\":4693:4819   */\n      swap2\n      swap1\n      pop\n      jump\t// out\n        /* \"#utility.yul\":4825:4965   */\n    tag_189:\n        /* \"#utility.yul\":4889:4898   */\n      0x00\n        /* \"#utility.yul\":4922:4959   */\n      tag_287\n        /* \"#utility.yul\":4953:4958   */\n      dup3\n        /* \"#utility.yul\":4922:4959   */\n      tag_188\n      jump\t// in\n    tag_287:\n        /* \"#utility.yul\":4909:4959   */\n      swap1\n      pop\n        /* \"#utility.yul\":4825:4965   */\n      swap2\n      swap1\n      pop\n      jump\t// out\n        /* \"#utility.yul\":4971:5130   */\n    tag_190:\n        /* \"#utility.yul\":5072:5123   */\n      tag_289\n        /* \"#utility.yul\":5117:5122   */\n      dup2\n        /* \"#utility.yul\":5072:5123   */\n      tag_189\n      jump\t// in\n    tag_289:\n        /* \"#utility.yul\":5067:5070   */\n      dup3\n        /* \"#utility.yul\":5060:5124   */\n      mstore\n        /* \"#utility.yul\":4971:5130   */\n      pop\n      pop\n      jump\t// out\n        /* \"#utility.yul\":5136:5606   */\n    tag_60:\n        /* \"#utility.yul\":5299:5303   */\n      0x00\n        /* \"#utility.yul\":5337:5339   */\n      0x60\n        /* \"#utility.yul\":5326:5335   */\n      dup3\n        /* \"#utility.yul\":5322:5340   */\n      add\n        /* \"#utility.yul\":5314:5340   */\n      swap1\n      pop\n        /* \"#utility.yul\":5350:5435   */\n      tag_291\n        /* \"#utility.yul\":5432:5433   */\n      0x00\n        /* \"#utility.yul\":5421:5430   */\n      dup4\n        /* \"#utility.yul\":5417:5434   */\n      add\n        /* \"#utility.yul\":5408:5414   */\n      dup7\n        /* \"#utility.yul\":5350:5435   */\n      tag_190\n      jump\t// in\n    tag_291:\n        /* \"#utility.yul\":5445:5517   */\n      tag_292\n        /* \"#utility.yul\":5513:5515   */\n      0x20\n        /* \"#utility.yul\":5502:5511   */\n      dup4\n        /* \"#utility.yul\":5498:5516   */\n      add\n        /* \"#utility.yul\":5489:5495   */\n      dup6\n        /* \"#utility.yul\":5445:5517   */\n      tag_182\n      jump\t// in\n    tag_292:\n        /* \"#utility.yul\":5527:5599   */\n      tag_293\n        /* \"#utility.yul\":5595:5597   */\n      0x40\n        /* \"#utility.yul\":5584:5593   */\n      dup4\n        /* \"#utility.yul\":5580:5598   */\n      add\n        /* \"#utility.yul\":5571:5577   */\n      dup5\n        /* \"#utility.yul\":5527:5599   */\n      tag_182\n      jump\t// in\n    tag_293:\n        /* \"#utility.yul\":5136:5606   */\n      swap5\n      swap4\n      pop\n      pop\n      pop\n      pop\n      jump\t// out\n        /* \"#utility.yul\":5612:5792   */\n    tag_63:\n        /* \"#utility.yul\":5660:5737   */\n      0x4e487b7100000000000000000000000000000000000000000000000000000000\n        /* \"#utility.yul\":5657:5658   */\n      0x00\n        /* \"#utility.yul\":5650:5738   */\n      mstore\n        /* \"#utility.yul\":5757:5761   */\n      0x41\n        /* \"#utility.yul\":5754:5755   */\n      0x04\n        /* \"#utility.yul\":5747:5762   */\n      mstore\n        /* \"#utility.yul\":5781:5785   */\n      0x24\n        /* \"#utility.yul\":5778:5779   */\n      0x00\n        /* \"#utility.yul\":5771:5786   */\n      revert\n        /* \"#utility.yul\":5798:5978   */\n    tag_70:\n        /* \"#utility.yul\":5846:5923   */\n      0x4e487b7100000000000000000000000000000000000000000000000000000000\n        /* \"#utility.yul\":5843:5844   */\n      0x00\n        /* \"#utility.yul\":5836:5924   */\n      mstore\n        /* \"#utility.yul\":5943:5947   */\n      0x32\n        /* \"#utility.yul\":5940:5941   */\n      0x04\n        /* \"#utility.yul\":5933:5948   */\n      mstore\n        /* \"#utility.yul\":5967:5971   */\n      0x24\n        /* \"#utility.yul\":5964:5965   */\n      0x00\n        /* \"#utility.yul\":5957:5972   */\n      revert\n        /* \"#utility.yul\":5984:6085   */\n    tag_191:\n        /* \"#utility.yul\":6020:6027   */\n      0x00\n        /* \"#utility.yul\":6060:6078   */\n      0xffffffffffffffff\n        /* \"#utility.yul\":6053:6058   */\n      dup3\n        /* \"#utility.yul\":6049:6079   */\n      and\n        /* \"#utility.yul\":6038:6079   */\n      swap1\n      pop\n        /* \"#utility.yul\":5984:6085   */\n      swap2\n      swap1\n      pop\n      jump\t// out\n        /* \"#utility.yul\":6091:6206   */\n    tag_192:\n        /* \"#utility.yul\":6176:6199   */\n      tag_298\n        /* \"#utility.yul\":6193:6198   */\n      dup2\n        /* \"#utility.yul\":6176:6199   */\n      tag_191\n      jump\t// in\n    tag_298:\n        /* \"#utility.yul\":6171:6174   */\n      dup3\n        /* \"#utility.yul\":6164:6200   */\n      mstore\n        /* \"#utility.yul\":6091:6206   */\n      pop\n      pop\n      jump\t// out\n        /* \"#utility.yul\":6212:6310   */\n    tag_193:\n        /* \"#utility.yul\":6263:6269   */\n      0x00\n        /* \"#utility.yul\":6297:6302   */\n      dup2\n        /* \"#utility.yul\":6291:6303   */\n      mload\n        /* \"#utility.yul\":6281:6303   */\n      swap1\n      pop\n        /* \"#utility.yul\":6212:6310   */\n      swap2\n      swap1\n      pop\n      jump\t// out\n        /* \"#utility.yul\":6316:6474   */\n    tag_194:\n        /* \"#utility.yul\":6389:6400   */\n      0x00\n        /* \"#utility.yul\":6423:6429   */\n      dup3\n        /* \"#utility.yul\":6418:6421   */\n      dup3\n        /* \"#utility.yul\":6411:6430   */\n      mstore\n        /* \"#utility.yul\":6463:6467   */\n      0x20\n        /* \"#utility.yul\":6458:6461   */\n      dup3\n        /* \"#utility.yul\":6454:6468   */\n      add\n        /* \"#utility.yul\":6439:6468   */\n      swap1\n      pop\n        /* \"#utility.yul\":6316:6474   */\n      swap3\n      swap2\n      pop\n      pop\n      jump\t// out\n        /* \"#utility.yul\":6480:6619   */\n    tag_195:\n        /* \"#utility.yul\":6569:6575   */\n      dup3\n        /* \"#utility.yul\":6564:6567   */\n      dup2\n        /* \"#utility.yul\":6559:6562   */\n      dup4\n        /* \"#utility.yul\":6553:6576   */\n      mcopy\n        /* \"#utility.yul\":6610:6611   */\n      0x00\n        /* \"#utility.yul\":6601:6607   */\n      dup4\n        /* \"#utility.yul\":6596:6599   */\n      dup4\n        /* \"#utility.yul\":6592:6608   */\n      add\n        /* \"#utility.yul\":6585:6612   */\n      mstore\n        /* \"#utility.yul\":6480:6619   */\n      pop\n      pop\n      pop\n      jump\t// out\n        /* \"#utility.yul\":6625:6727   */\n    tag_196:\n        /* \"#utility.yul\":6666:6672   */\n      0x00\n        /* \"#utility.yul\":6717:6719   */\n      0x1f\n        /* \"#utility.yul\":6713:6720   */\n      not\n        /* \"#utility.yul\":6708:6710   */\n      0x1f\n        /* \"#utility.yul\":6701:6706   */\n      dup4\n        /* \"#utility.yul\":6697:6711   */\n      add\n        /* \"#utility.yul\":6693:6721   */\n      and\n        /* \"#utility.yul\":6683:6721   */\n      swap1\n      pop\n        /* \"#utility.yul\":6625:6727   */\n      swap2\n      swap1\n      pop\n      jump\t// out\n        /* \"#utility.yul\":6733:7086   */\n    tag_197:\n        /* \"#utility.yul\":6809:6812   */\n      0x00\n        /* \"#utility.yul\":6837:6875   */\n      tag_304\n        /* \"#utility.yul\":6869:6874   */\n      dup3\n        /* \"#utility.yul\":6837:6875   */\n      tag_193\n      jump\t// in\n    tag_304:\n        /* \"#utility.yul\":6891:6951   */\n      tag_305\n        /* \"#utility.yul\":6944:6950   */\n      dup2\n        /* \"#utility.yul\":6939:6942   */\n      dup6\n        /* \"#utility.yul\":6891:6951   */\n      tag_194\n      jump\t// in\n    tag_305:\n        /* \"#utility.yul\":6884:6951   */\n      swap4\n      pop\n        /* \"#utility.yul\":6960:7025   */\n      tag_306\n        /* \"#utility.yul\":7018:7024   */\n      dup2\n        /* \"#utility.yul\":7013:7016   */\n      dup6\n        /* \"#utility.yul\":7006:7010   */\n      0x20\n        /* \"#utility.yul\":6999:7004   */\n      dup7\n        /* \"#utility.yul\":6995:7011   */\n      add\n        /* \"#utility.yul\":6960:7025   */\n      tag_195\n      jump\t// in\n    tag_306:\n        /* \"#utility.yul\":7050:7079   */\n      tag_307\n        /* \"#utility.yul\":7072:7078   */\n      dup2\n        /* \"#utility.yul\":7050:7079   */\n      tag_196\n      jump\t// in\n    tag_307:\n        /* \"#utility.yul\":7045:7048   */\n      dup5\n        /* \"#utility.yul\":7041:7080   */\n      add\n        /* \"#utility.yul\":7034:7080   */\n      swap2\n      pop\n        /* \"#utility.yul\":6813:7086   */\n      pop\n        /* \"#utility.yul\":6733:7086   */\n      swap3\n      swap2\n      pop\n      pop\n      jump\t// out\n        /* \"#utility.yul\":7092:7236   */\n    tag_198:\n        /* \"#utility.yul\":7189:7195   */\n      0x00\n        /* \"#utility.yul\":7223:7228   */\n      dup2\n        /* \"#utility.yul\":7217:7229   */\n      mload\n        /* \"#utility.yul\":7207:7229   */\n      swap1\n      pop\n        /* \"#utility.yul\":7092:7236   */\n      swap2\n      swap1\n      pop\n      jump\t// out\n        /* \"#utility.yul\":7242:7446   */\n    tag_199:\n        /* \"#utility.yul\":7361:7372   */\n      0x00\n        /* \"#utility.yul\":7395:7401   */\n      dup3\n        /* \"#utility.yul\":7390:7393   */\n      dup3\n        /* \"#utility.yul\":7383:7402   */\n      mstore\n        /* \"#utility.yul\":7435:7439   */\n      0x20\n        /* \"#utility.yul\":7430:7433   */\n      dup3\n        /* \"#utility.yul\":7426:7440   */\n      add\n        /* \"#utility.yul\":7411:7440   */\n      swap1\n      pop\n        /* \"#utility.yul\":7242:7446   */\n      swap3\n      swap2\n      pop\n      pop\n      jump\t// out\n        /* \"#utility.yul\":7452:7614   */\n    tag_200:\n        /* \"#utility.yul\":7549:7553   */\n      0x00\n        /* \"#utility.yul\":7572:7575   */\n      dup2\n        /* \"#utility.yul\":7564:7575   */\n      swap1\n      pop\n        /* \"#utility.yul\":7602:7606   */\n      0x20\n        /* \"#utility.yul\":7597:7600   */\n      dup3\n        /* \"#utility.yul\":7593:7607   */\n      add\n        /* \"#utility.yul\":7585:7607   */\n      swap1\n      pop\n        /* \"#utility.yul\":7452:7614   */\n      swap2\n      swap1\n      pop\n      jump\t// out\n        /* \"#utility.yul\":7620:7728   */\n    tag_201:\n        /* \"#utility.yul\":7697:7721   */\n      tag_312\n        /* \"#utility.yul\":7715:7720   */\n      dup2\n        /* \"#utility.yul\":7697:7721   */\n      tag_172\n      jump\t// in\n    tag_312:\n        /* \"#utility.yul\":7692:7695   */\n      dup3\n        /* \"#utility.yul\":7685:7722   */\n      mstore\n        /* \"#utility.yul\":7620:7728   */\n      pop\n      pop\n      jump\t// out\n        /* \"#utility.yul\":7734:7842   */\n    tag_202:\n        /* \"#utility.yul\":7811:7835   */\n      tag_314\n        /* \"#utility.yul\":7829:7834   */\n      dup2\n        /* \"#utility.yul\":7811:7835   */\n      tag_176\n      jump\t// in\n    tag_314:\n        /* \"#utility.yul\":7806:7809   */\n      dup3\n        /* \"#utility.yul\":7799:7836   */\n      mstore\n        /* \"#utility.yul\":7734:7842   */\n      pop\n      pop\n      jump\t// out\n        /* \"#utility.yul\":7916:8426   */\n    tag_203:\n        /* \"#utility.yul\":8063:8067   */\n      0x40\n        /* \"#utility.yul\":8058:8061   */\n      dup3\n        /* \"#utility.yul\":8054:8068   */\n      add\n        /* \"#utility.yul\":8151:8155   */\n      0x00\n        /* \"#utility.yul\":8144:8149   */\n      dup3\n        /* \"#utility.yul\":8140:8156   */\n      add\n        /* \"#utility.yul\":8134:8157   */\n      mload\n        /* \"#utility.yul\":8170:8233   */\n      tag_316\n        /* \"#utility.yul\":8227:8231   */\n      0x00\n        /* \"#utility.yul\":8222:8225   */\n      dup6\n        /* \"#utility.yul\":8218:8232   */\n      add\n        /* \"#utility.yul\":8204:8216   */\n      dup3\n        /* \"#utility.yul\":8170:8233   */\n      tag_201\n      jump\t// in\n    tag_316:\n        /* \"#utility.yul\":8078:8243   */\n      pop\n        /* \"#utility.yul\":8327:8331   */\n      0x20\n        /* \"#utility.yul\":8320:8325   */\n      dup3\n        /* \"#utility.yul\":8316:8332   */\n      add\n        /* \"#utility.yul\":8310:8333   */\n      mload\n        /* \"#utility.yul\":8346:8409   */\n      tag_317\n        /* \"#utility.yul\":8403:8407   */\n      0x20\n        /* \"#utility.yul\":8398:8401   */\n      dup6\n        /* \"#utility.yul\":8394:8408   */\n      add\n        /* \"#utility.yul\":8380:8392   */\n      dup3\n        /* \"#utility.yul\":8346:8409   */\n      tag_202\n      jump\t// in\n    tag_317:\n        /* \"#utility.yul\":8253:8419   */\n      pop\n        /* \"#utility.yul\":8032:8426   */\n      pop\n        /* \"#utility.yul\":7916:8426   */\n      pop\n      pop\n      jump\t// out\n        /* \"#utility.yul\":8432:8731   */\n    tag_204:\n        /* \"#utility.yul\":8561:8571   */\n      0x00\n        /* \"#utility.yul\":8582:8688   */\n      tag_319\n        /* \"#utility.yul\":8684:8687   */\n      dup4\n        /* \"#utility.yul\":8676:8682   */\n      dup4\n        /* \"#utility.yul\":8582:8688   */\n      tag_203\n      jump\t// in\n    tag_319:\n        /* \"#utility.yul\":8720:8724   */\n      0x40\n        /* \"#utility.yul\":8715:8718   */\n      dup4\n        /* \"#utility.yul\":8711:8725   */\n      add\n        /* \"#utility.yul\":8697:8725   */\n      swap1\n      pop\n        /* \"#utility.yul\":8432:8731   */\n      swap3\n      swap2\n      pop\n      pop\n      jump\t// out\n        /* \"#utility.yul\":8737:8880   */\n    tag_205:\n        /* \"#utility.yul\":8837:8841   */\n      0x00\n        /* \"#utility.yul\":8869:8873   */\n      0x20\n        /* \"#utility.yul\":8864:8867   */\n      dup3\n        /* \"#utility.yul\":8860:8874   */\n      add\n        /* \"#utility.yul\":8852:8874   */\n      swap1\n      pop\n        /* \"#utility.yul\":8737:8880   */\n      swap2\n      swap1\n      pop\n      jump\t// out\n        /* \"#utility.yul\":8958:9910   */\n    tag_206:\n        /* \"#utility.yul\":9127:9130   */\n      0x00\n        /* \"#utility.yul\":9156:9240   */\n      tag_322\n        /* \"#utility.yul\":9234:9239   */\n      dup3\n        /* \"#utility.yul\":9156:9240   */\n      tag_198\n      jump\t// in\n    tag_322:\n        /* \"#utility.yul\":9256:9362   */\n      tag_323\n        /* \"#utility.yul\":9355:9361   */\n      dup2\n        /* \"#utility.yul\":9350:9353   */\n      dup6\n        /* \"#utility.yul\":9256:9362   */\n      tag_199\n      jump\t// in\n    tag_323:\n        /* \"#utility.yul\":9249:9362   */\n      swap4\n      pop\n        /* \"#utility.yul\":9386:9472   */\n      tag_324\n        /* \"#utility.yul\":9466:9471   */\n      dup4\n        /* \"#utility.yul\":9386:9472   */\n      tag_200\n      jump\t// in\n    tag_324:\n        /* \"#utility.yul\":9495:9502   */\n      dup1\n        /* \"#utility.yul\":9526:9527   */\n      0x00\n        /* \"#utility.yul\":9511:9885   */\n    tag_325:\n        /* \"#utility.yul\":9536:9542   */\n      dup4\n        /* \"#utility.yul\":9533:9534   */\n      dup2\n        /* \"#utility.yul\":9530:9543   */\n      lt\n        /* \"#utility.yul\":9511:9885   */\n      iszero\n      tag_327\n      jumpi\n        /* \"#utility.yul\":9612:9618   */\n      dup2\n        /* \"#utility.yul\":9606:9619   */\n      mload\n        /* \"#utility.yul\":9639:9762   */\n      tag_328\n        /* \"#utility.yul\":9758:9761   */\n      dup9\n        /* \"#utility.yul\":9743:9756   */\n      dup3\n        /* \"#utility.yul\":9639:9762   */\n      tag_204\n      jump\t// in\n    tag_328:\n        /* \"#utility.yul\":9632:9762   */\n      swap8\n      pop\n        /* \"#utility.yul\":9785:9875   */\n      tag_329\n        /* \"#utility.yul\":9868:9874   */\n      dup4\n        /* \"#utility.yul\":9785:9875   */\n      tag_205\n      jump\t// in\n    tag_329:\n        /* \"#utility.yul\":9775:9875   */\n      swap3\n      pop\n        /* \"#utility.yul\":9571:9885   */\n      pop\n        /* \"#utility.yul\":9558:9559   */\n      0x01\n        /* \"#utility.yul\":9555:9556   */\n      dup2\n        /* \"#utility.yul\":9551:9560   */\n      add\n        /* \"#utility.yul\":9546:9560   */\n      swap1\n      pop\n        /* \"#utility.yul\":9511:9885   */\n      jump(tag_325)\n    tag_327:\n        /* \"#utility.yul\":9515:9529   */\n      pop\n        /* \"#utility.yul\":9901:9904   */\n      dup6\n        /* \"#utility.yul\":9894:9904   */\n      swap4\n      pop\n        /* \"#utility.yul\":9132:9910   */\n      pop\n      pop\n      pop\n        /* \"#utility.yul\":8958:9910   */\n      swap3\n      swap2\n      pop\n      pop\n      jump\t// out\n        /* \"#utility.yul\":9984:11440   */\n    tag_207:\n        /* \"#utility.yul\":10113:10116   */\n      0x00\n        /* \"#utility.yul\":10149:10153   */\n      0xa0\n        /* \"#utility.yul\":10144:10147   */\n      dup4\n        /* \"#utility.yul\":10140:10154   */\n      add\n        /* \"#utility.yul\":10240:10244   */\n      0x00\n        /* \"#utility.yul\":10233:10238   */\n      dup4\n        /* \"#utility.yul\":10229:10245   */\n      add\n        /* \"#utility.yul\":10223:10246   */\n      mload\n        /* \"#utility.yul\":10293:10296   */\n      dup5\n        /* \"#utility.yul\":10287:10291   */\n      dup3\n        /* \"#utility.yul\":10283:10297   */\n      sub\n        /* \"#utility.yul\":10276:10280   */\n      0x00\n        /* \"#utility.yul\":10271:10274   */\n      dup7\n        /* \"#utility.yul\":10267:10281   */\n      add\n        /* \"#utility.yul\":10260:10298   */\n      mstore\n        /* \"#utility.yul\":10319:10390   */\n      tag_331\n        /* \"#utility.yul\":10385:10389   */\n      dup3\n        /* \"#utility.yul\":10371:10383   */\n      dup3\n        /* \"#utility.yul\":10319:10390   */\n      tag_197\n      jump\t// in\n    tag_331:\n        /* \"#utility.yul\":10311:10390   */\n      swap2\n      pop\n        /* \"#utility.yul\":10164:10401   */\n      pop\n        /* \"#utility.yul\":10483:10487   */\n      0x20\n        /* \"#utility.yul\":10476:10481   */\n      dup4\n        /* \"#utility.yul\":10472:10488   */\n      add\n        /* \"#utility.yul\":10466:10489   */\n      mload\n        /* \"#utility.yul\":10536:10539   */\n      dup5\n        /* \"#utility.yul\":10530:10534   */\n      dup3\n        /* \"#utility.yul\":10526:10540   */\n      sub\n        /* \"#utility.yul\":10519:10523   */\n      0x20\n        /* \"#utility.yul\":10514:10517   */\n      dup7\n        /* \"#utility.yul\":10510:10524   */\n      add\n        /* \"#utility.yul\":10503:10541   */\n      mstore\n        /* \"#utility.yul\":10562:10633   */\n      tag_332\n        /* \"#utility.yul\":10628:10632   */\n      dup3\n        /* \"#utility.yul\":10614:10626   */\n      dup3\n        /* \"#utility.yul\":10562:10633   */\n      tag_197\n      jump\t// in\n    tag_332:\n        /* \"#utility.yul\":10554:10633   */\n      swap2\n      pop\n        /* \"#utility.yul\":10411:10644   */\n      pop\n        /* \"#utility.yul\":10734:10738   */\n      0x40\n        /* \"#utility.yul\":10727:10732   */\n      dup4\n        /* \"#utility.yul\":10723:10739   */\n      add\n        /* \"#utility.yul\":10717:10740   */\n      mload\n        /* \"#utility.yul\":10787:10790   */\n      dup5\n        /* \"#utility.yul\":10781:10785   */\n      dup3\n        /* \"#utility.yul\":10777:10791   */\n      sub\n        /* \"#utility.yul\":10770:10774   */\n      0x40\n        /* \"#utility.yul\":10765:10768   */\n      dup7\n        /* \"#utility.yul\":10761:10775   */\n      add\n        /* \"#utility.yul\":10754:10792   */\n      mstore\n        /* \"#utility.yul\":10813:10976   */\n      tag_333\n        /* \"#utility.yul\":10971:10975   */\n      dup3\n        /* \"#utility.yul\":10957:10969   */\n      dup3\n        /* \"#utility.yul\":10813:10976   */\n      tag_206\n      jump\t// in\n    tag_333:\n        /* \"#utility.yul\":10805:10976   */\n      swap2\n      pop\n        /* \"#utility.yul\":10654:10987   */\n      pop\n        /* \"#utility.yul\":11073:11077   */\n      0x60\n        /* \"#utility.yul\":11066:11071   */\n      dup4\n        /* \"#utility.yul\":11062:11078   */\n      add\n        /* \"#utility.yul\":11056:11079   */\n      mload\n        /* \"#utility.yul\":11092:11155   */\n      tag_334\n        /* \"#utility.yul\":11149:11153   */\n      0x60\n        /* \"#utility.yul\":11144:11147   */\n      dup7\n        /* \"#utility.yul\":11140:11154   */\n      add\n        /* \"#utility.yul\":11126:11138   */\n      dup3\n        /* \"#utility.yul\":11092:11155   */\n      tag_201\n      jump\t// in\n    tag_334:\n        /* \"#utility.yul\":10997:11165   */\n      pop\n        /* \"#utility.yul\":11252:11256   */\n      0x80\n        /* \"#utility.yul\":11245:11250   */\n      dup4\n        /* \"#utility.yul\":11241:11257   */\n      add\n        /* \"#utility.yul\":11235:11258   */\n      mload\n        /* \"#utility.yul\":11305:11308   */\n      dup5\n        /* \"#utility.yul\":11299:11303   */\n      dup3\n        /* \"#utility.yul\":11295:11309   */\n      sub\n        /* \"#utility.yul\":11288:11292   */\n      0x80\n        /* \"#utility.yul\":11283:11286   */\n      dup7\n        /* \"#utility.yul\":11279:11293   */\n      add\n        /* \"#utility.yul\":11272:11310   */\n      mstore\n        /* \"#utility.yul\":11331:11402   */\n      tag_335\n        /* \"#utility.yul\":11397:11401   */\n      dup3\n        /* \"#utility.yul\":11383:11395   */\n      dup3\n        /* \"#utility.yul\":11331:11402   */\n      tag_197\n      jump\t// in\n    tag_335:\n        /* \"#utility.yul\":11323:11402   */\n      swap2\n      pop\n        /* \"#utility.yul\":11175:11413   */\n      pop\n        /* \"#utility.yul\":11430:11434   */\n      dup1\n        /* \"#utility.yul\":11423:11434   */\n      swap2\n      pop\n        /* \"#utility.yul\":10118:11440   */\n      pop\n        /* \"#utility.yul\":9984:11440   */\n      swap3\n      swap2\n      pop\n      pop\n      jump\t// out\n        /* \"#utility.yul\":11446:11945   */\n    tag_75:\n        /* \"#utility.yul\":11625:11629   */\n      0x00\n        /* \"#utility.yul\":11663:11665   */\n      0x40\n        /* \"#utility.yul\":11652:11661   */\n      dup3\n        /* \"#utility.yul\":11648:11666   */\n      add\n        /* \"#utility.yul\":11640:11666   */\n      swap1\n      pop\n        /* \"#utility.yul\":11676:11745   */\n      tag_337\n        /* \"#utility.yul\":11742:11743   */\n      0x00\n        /* \"#utility.yul\":11731:11740   */\n      dup4\n        /* \"#utility.yul\":11727:11744   */\n      add\n        /* \"#utility.yul\":11718:11724   */\n      dup6\n        /* \"#utility.yul\":11676:11745   */\n      tag_192\n      jump\t// in\n    tag_337:\n        /* \"#utility.yul\":11792:11801   */\n      dup2\n        /* \"#utility.yul\":11786:11790   */\n      dup2\n        /* \"#utility.yul\":11782:11802   */\n      sub\n        /* \"#utility.yul\":11777:11779   */\n      0x20\n        /* \"#utility.yul\":11766:11775   */\n      dup4\n        /* \"#utility.yul\":11762:11780   */\n      add\n        /* \"#utility.yul\":11755:11803   */\n      mstore\n        /* \"#utility.yul\":11820:11938   */\n      tag_338\n        /* \"#utility.yul\":11933:11937   */\n      dup2\n        /* \"#utility.yul\":11924:11930   */\n      dup5\n        /* \"#utility.yul\":11820:11938   */\n      tag_207\n      jump\t// in\n    tag_338:\n        /* \"#utility.yul\":11812:11938   */\n      swap1\n      pop\n        /* \"#utility.yul\":11446:11945   */\n      swap4\n      swap3\n      pop\n      pop\n      pop\n      jump\t// out\n        /* \"#utility.yul\":11951:12073   */\n    tag_208:\n        /* \"#utility.yul\":12024:12048   */\n      tag_340\n        /* \"#utility.yul\":12042:12047   */\n      dup2\n        /* \"#utility.yul\":12024:12048   */\n      tag_179\n      jump\t// in\n    tag_340:\n        /* \"#utility.yul\":12017:12022   */\n      dup2\n        /* \"#utility.yul\":12014:12049   */\n      eq\n        /* \"#utility.yul\":12004:12067   */\n      tag_341\n      jumpi\n        /* \"#utility.yul\":12063:12064   */\n      0x00\n        /* \"#utility.yul\":12060:12061   */\n      0x00\n        /* \"#utility.yul\":12053:12065   */\n      revert\n        /* \"#utility.yul\":12004:12067   */\n    tag_341:\n        /* \"#utility.yul\":11951:12073   */\n      pop\n      jump\t// out\n        /* \"#utility.yul\":12079:12222   */\n    tag_209:\n        /* \"#utility.yul\":12136:12141   */\n      0x00\n        /* \"#utility.yul\":12167:12173   */\n      dup2\n        /* \"#utility.yul\":12161:12174   */\n      mload\n        /* \"#utility.yul\":12152:12174   */\n      swap1\n      pop\n        /* \"#utility.yul\":12183:12216   */\n      tag_343\n        /* \"#utility.yul\":12210:12215   */\n      dup2\n        /* \"#utility.yul\":12183:12216   */\n      tag_208\n      jump\t// in\n    tag_343:\n        /* \"#utility.yul\":12079:12222   */\n      swap3\n      swap2\n      pop\n      pop\n      jump\t// out\n        /* \"#utility.yul\":12228:12579   */\n    tag_103:\n        /* \"#utility.yul\":12298:12304   */\n      0x00\n        /* \"#utility.yul\":12347:12349   */\n      0x20\n        /* \"#utility.yul\":12335:12344   */\n      dup3\n        /* \"#utility.yul\":12326:12333   */\n      dup5\n        /* \"#utility.yul\":12322:12345   */\n      sub\n        /* \"#utility.yul\":12318:12350   */\n      slt\n        /* \"#utility.yul\":12315:12434   */\n      iszero\n      tag_345\n      jumpi\n        /* \"#utility.yul\":12353:12432   */\n      tag_346\n      tag_169\n      jump\t// in\n    tag_346:\n        /* \"#utility.yul\":12315:12434   */\n    tag_345:\n        /* \"#utility.yul\":12473:12474   */\n      0x00\n        /* \"#utility.yul\":12498:12562   */\n      tag_347\n        /* \"#utility.yul\":12554:12561   */\n      dup5\n        /* \"#utility.yul\":12545:12551   */\n      dup3\n        /* \"#utility.yul\":12534:12543   */\n      dup6\n        /* \"#utility.yul\":12530:12552   */\n      add\n        /* \"#utility.yul\":12498:12562   */\n      tag_209\n      jump\t// in\n    tag_347:\n        /* \"#utility.yul\":12488:12562   */\n      swap2\n      pop\n        /* \"#utility.yul\":12444:12572   */\n      pop\n        /* \"#utility.yul\":12228:12579   */\n      swap3\n      swap2\n      pop\n      pop\n      jump\t// out\n        /* \"#utility.yul\":12585:13027   */\n    tag_105:\n        /* \"#utility.yul\":12734:12738   */\n      0x00\n        /* \"#utility.yul\":12772:12774   */\n      0x60\n        /* \"#utility.yul\":12761:12770   */\n      dup3\n        /* \"#utility.yul\":12757:12775   */\n      add\n        /* \"#utility.yul\":12749:12775   */\n      swap1\n      pop\n        /* \"#utility.yul\":12785:12856   */\n      tag_349\n        /* \"#utility.yul\":12853:12854   */\n      0x00\n        /* \"#utility.yul\":12842:12851   */\n      dup4\n        /* \"#utility.yul\":12838:12855   */\n      add\n        /* \"#utility.yul\":12829:12835   */\n      dup7\n        /* \"#utility.yul\":12785:12856   */\n      tag_180\n      jump\t// in\n    tag_349:\n        /* \"#utility.yul\":12866:12938   */\n      tag_350\n        /* \"#utility.yul\":12934:12936   */\n      0x20\n        /* \"#utility.yul\":12923:12932   */\n      dup4\n        /* \"#utility.yul\":12919:12937   */\n      add\n        /* \"#utility.yul\":12910:12916   */\n      dup6\n        /* \"#utility.yul\":12866:12938   */\n      tag_182\n      jump\t// in\n    tag_350:\n        /* \"#utility.yul\":12948:13020   */\n      tag_351\n        /* \"#utility.yul\":13016:13018   */\n      0x40\n        /* \"#utility.yul\":13005:13014   */\n      dup4\n        /* \"#utility.yul\":13001:13019   */\n      add\n        /* \"#utility.yul\":12992:12998   */\n      dup5\n        /* \"#utility.yul\":12948:13020   */\n      tag_182\n      jump\t// in\n    tag_351:\n        /* \"#utility.yul\":12585:13027   */\n      swap5\n      swap4\n      pop\n      pop\n      pop\n      pop\n      jump\t// out\n        /* \"#utility.yul\":13101:13448   */\n    tag_210:\n        /* \"#utility.yul\":13258:13262   */\n      0x20\n        /* \"#utility.yul\":13253:13256   */\n      dup3\n        /* \"#utility.yul\":13249:13263   */\n      add\n        /* \"#utility.yul\":13349:13353   */\n      0x00\n        /* \"#utility.yul\":13342:13347   */\n      dup3\n        /* \"#utility.yul\":13338:13354   */\n      add\n        /* \"#utility.yul\":13332:13355   */\n      mload\n        /* \"#utility.yul\":13368:13431   */\n      tag_353\n        /* \"#utility.yul\":13425:13429   */\n      0x00\n        /* \"#utility.yul\":13420:13423   */\n      dup6\n        /* \"#utility.yul\":13416:13430   */\n      add\n        /* \"#utility.yul\":13402:13414   */\n      dup3\n        /* \"#utility.yul\":13368:13431   */\n      tag_202\n      jump\t// in\n    tag_353:\n        /* \"#utility.yul\":13273:13441   */\n      pop\n        /* \"#utility.yul\":13227:13448   */\n      pop\n        /* \"#utility.yul\":13101:13448   */\n      pop\n      pop\n      jump\t// out\n        /* \"#utility.yul\":13454:13796   */\n    tag_122:\n        /* \"#utility.yul\":13607:13611   */\n      0x00\n        /* \"#utility.yul\":13645:13647   */\n      0x20\n        /* \"#utility.yul\":13634:13643   */\n      dup3\n        /* \"#utility.yul\":13630:13648   */\n      add\n        /* \"#utility.yul\":13622:13648   */\n      swap1\n      pop\n        /* \"#utility.yul\":13658:13789   */\n      tag_355\n        /* \"#utility.yul\":13786:13787   */\n      0x00\n        /* \"#utility.yul\":13775:13784   */\n      dup4\n        /* \"#utility.yul\":13771:13788   */\n      add\n        /* \"#utility.yul\":13762:13768   */\n      dup5\n        /* \"#utility.yul\":13658:13789   */\n      tag_210\n      jump\t// in\n    tag_355:\n        /* \"#utility.yul\":13454:13796   */\n      swap3\n      swap2\n      pop\n      pop\n      jump\t// out\n        /* \"#utility.yul\":13802:14244   */\n    tag_126:\n        /* \"#utility.yul\":13951:13955   */\n      0x00\n        /* \"#utility.yul\":13989:13991   */\n      0x60\n        /* \"#utility.yul\":13978:13987   */\n      dup3\n        /* \"#utility.yul\":13974:13992   */\n      add\n        /* \"#utility.yul\":13966:13992   */\n      swap1\n      pop\n        /* \"#utility.yul\":14002:14073   */\n      tag_357\n        /* \"#utility.yul\":14070:14071   */\n      0x00\n        /* \"#utility.yul\":14059:14068   */\n      dup4\n        /* \"#utility.yul\":14055:14072   */\n      add\n        /* \"#utility.yul\":14046:14052   */\n      dup7\n        /* \"#utility.yul\":14002:14073   */\n      tag_175\n      jump\t// in\n    tag_357:\n        /* \"#utility.yul\":14083:14155   */\n      tag_358\n        /* \"#utility.yul\":14151:14153   */\n      0x20\n        /* \"#utility.yul\":14140:14149   */\n      dup4\n        /* \"#utility.yul\":14136:14154   */\n      add\n        /* \"#utility.yul\":14127:14133   */\n      dup6\n        /* \"#utility.yul\":14083:14155   */\n      tag_175\n      jump\t// in\n    tag_358:\n        /* \"#utility.yul\":14165:14237   */\n      tag_359\n        /* \"#utility.yul\":14233:14235   */\n      0x40\n        /* \"#utility.yul\":14222:14231   */\n      dup4\n        /* \"#utility.yul\":14218:14236   */\n      add\n        /* \"#utility.yul\":14209:14215   */\n      dup5\n        /* \"#utility.yul\":14165:14237   */\n      tag_182\n      jump\t// in\n    tag_359:\n        /* \"#utility.yul\":13802:14244   */\n      swap5\n      swap4\n      pop\n      pop\n      pop\n      pop\n      jump\t// out\n        /* \"#utility.yul\":14250:14419   */\n    tag_211:\n        /* \"#utility.yul\":14334:14345   */\n      0x00\n        /* \"#utility.yul\":14368:14374   */\n      dup3\n        /* \"#utility.yul\":14363:14366   */\n      dup3\n        /* \"#utility.yul\":14356:14375   */\n      mstore\n        /* \"#utility.yul\":14408:14412   */\n      0x20\n        /* \"#utility.yul\":14403:14406   */\n      dup3\n        /* \"#utility.yul\":14399:14413   */\n      add\n        /* \"#utility.yul\":14384:14413   */\n      swap1\n      pop\n        /* \"#utility.yul\":14250:14419   */\n      swap3\n      swap2\n      pop\n      pop\n      jump\t// out\n        /* \"#utility.yul\":14425:14654   */\n    tag_212:\n        /* \"#utility.yul\":14565:14599   */\n      0x5361666545524332303a204552433230206f7065726174696f6e20646964206e\n        /* \"#utility.yul\":14561:14562   */\n      0x00\n        /* \"#utility.yul\":14553:14559   */\n      dup3\n        /* \"#utility.yul\":14549:14563   */\n      add\n        /* \"#utility.yul\":14542:14600   */\n      mstore\n        /* \"#utility.yul\":14634:14646   */\n      0x6f74207375636365656400000000000000000000000000000000000000000000\n        /* \"#utility.yul\":14629:14631   */\n      0x20\n        /* \"#utility.yul\":14621:14627   */\n      dup3\n        /* \"#utility.yul\":14617:14632   */\n      add\n        /* \"#utility.yul\":14610:14647   */\n      mstore\n        /* \"#utility.yul\":14425:14654   */\n      pop\n      jump\t// out\n        /* \"#utility.yul\":14660:15026   */\n    tag_213:\n        /* \"#utility.yul\":14802:14805   */\n      0x00\n        /* \"#utility.yul\":14823:14890   */\n      tag_363\n        /* \"#utility.yul\":14887:14889   */\n      0x2a\n        /* \"#utility.yul\":14882:14885   */\n      dup4\n        /* \"#utility.yul\":14823:14890   */\n      tag_211\n      jump\t// in\n    tag_363:\n        /* \"#utility.yul\":14816:14890   */\n      swap2\n      pop\n        /* \"#utility.yul\":14899:14992   */\n      tag_364\n        /* \"#utility.yul\":14988:14991   */\n      dup3\n        /* \"#utility.yul\":14899:14992   */\n      tag_212\n      jump\t// in\n    tag_364:\n        /* \"#utility.yul\":15017:15019   */\n      0x40\n        /* \"#utility.yul\":15012:15015   */\n      dup3\n        /* \"#utility.yul\":15008:15020   */\n      add\n        /* \"#utility.yul\":15001:15020   */\n      swap1\n      pop\n        /* \"#utility.yul\":14660:15026   */\n      swap2\n      swap1\n      pop\n      jump\t// out\n        /* \"#utility.yul\":15032:15451   */\n    tag_136:\n        /* \"#utility.yul\":15198:15202   */\n      0x00\n        /* \"#utility.yul\":15236:15238   */\n      0x20\n        /* \"#utility.yul\":15225:15234   */\n      dup3\n        /* \"#utility.yul\":15221:15239   */\n      add\n        /* \"#utility.yul\":15213:15239   */\n      swap1\n      pop\n        /* \"#utility.yul\":15285:15294   */\n      dup2\n        /* \"#utility.yul\":15279:15283   */\n      dup2\n        /* \"#utility.yul\":15275:15295   */\n      sub\n        /* \"#utility.yul\":15271:15272   */\n      0x00\n        /* \"#utility.yul\":15260:15269   */\n      dup4\n        /* \"#utility.yul\":15256:15273   */\n      add\n        /* \"#utility.yul\":15249:15296   */\n      mstore\n        /* \"#utility.yul\":15313:15444   */\n      tag_366\n        /* \"#utility.yul\":15439:15443   */\n      dup2\n        /* \"#utility.yul\":15313:15444   */\n      tag_213\n      jump\t// in\n    tag_366:\n        /* \"#utility.yul\":15305:15444   */\n      swap1\n      pop\n        /* \"#utility.yul\":15032:15451   */\n      swap2\n      swap1\n      pop\n      jump\t// out\n        /* \"#utility.yul\":15457:15682   */\n    tag_214:\n        /* \"#utility.yul\":15597:15631   */\n      0x416464726573733a20696e73756666696369656e742062616c616e636520666f\n        /* \"#utility.yul\":15593:15594   */\n      0x00\n        /* \"#utility.yul\":15585:15591   */\n      dup3\n        /* \"#utility.yul\":15581:15595   */\n      add\n        /* \"#utility.yul\":15574:15632   */\n      mstore\n        /* \"#utility.yul\":15666:15674   */\n      0x722063616c6c0000000000000000000000000000000000000000000000000000\n        /* \"#utility.yul\":15661:15663   */\n      0x20\n        /* \"#utility.yul\":15653:15659   */\n      dup3\n        /* \"#utility.yul\":15649:15664   */\n      add\n        /* \"#utility.yul\":15642:15675   */\n      mstore\n        /* \"#utility.yul\":15457:15682   */\n      pop\n      jump\t// out\n        /* \"#utility.yul\":15688:16054   */\n    tag_215:\n        /* \"#utility.yul\":15830:15833   */\n      0x00\n        /* \"#utility.yul\":15851:15918   */\n      tag_369\n        /* \"#utility.yul\":15915:15917   */\n      0x26\n        /* \"#utility.yul\":15910:15913   */\n      dup4\n        /* \"#utility.yul\":15851:15918   */\n      tag_211\n      jump\t// in\n    tag_369:\n        /* \"#utility.yul\":15844:15918   */\n      swap2\n      pop\n        /* \"#utility.yul\":15927:16020   */\n      tag_370\n        /* \"#utility.yul\":16016:16019   */\n      dup3\n        /* \"#utility.yul\":15927:16020   */\n      tag_214\n      jump\t// in\n    tag_370:\n        /* \"#utility.yul\":16045:16047   */\n      0x40\n        /* \"#utility.yul\":16040:16043   */\n      dup3\n        /* \"#utility.yul\":16036:16048   */\n      add\n        /* \"#utility.yul\":16029:16048   */\n      swap1\n      pop\n        /* \"#utility.yul\":15688:16054   */\n      swap2\n      swap1\n      pop\n      jump\t// out\n        /* \"#utility.yul\":16060:16479   */\n    tag_143:\n        /* \"#utility.yul\":16226:16230   */\n      0x00\n        /* \"#utility.yul\":16264:16266   */\n      0x20\n        /* \"#utility.yul\":16253:16262   */\n      dup3\n        /* \"#utility.yul\":16249:16267   */\n      add\n        /* \"#utility.yul\":16241:16267   */\n      swap1\n      pop\n        /* \"#utility.yul\":16313:16322   */\n      dup2\n        /* \"#utility.yul\":16307:16311   */\n      dup2\n        /* \"#utility.yul\":16303:16323   */\n      sub\n        /* \"#utility.yul\":16299:16300   */\n      0x00\n        /* \"#utility.yul\":16288:16297   */\n      dup4\n        /* \"#utility.yul\":16284:16301   */\n      add\n        /* \"#utility.yul\":16277:16324   */\n      mstore\n        /* \"#utility.yul\":16341:16472   */\n      tag_372\n        /* \"#utility.yul\":16467:16471   */\n      dup2\n        /* \"#utility.yul\":16341:16472   */\n      tag_215\n      jump\t// in\n    tag_372:\n        /* \"#utility.yul\":16333:16472   */\n      swap1\n      pop\n        /* \"#utility.yul\":16060:16479   */\n      swap2\n      swap1\n      pop\n      jump\t// out\n        /* \"#utility.yul\":16485:16632   */\n    tag_216:\n        /* \"#utility.yul\":16586:16597   */\n      0x00\n        /* \"#utility.yul\":16623:16626   */\n      dup2\n        /* \"#utility.yul\":16608:16626   */\n      swap1\n      pop\n        /* \"#utility.yul\":16485:16632   */\n      swap3\n      swap2\n      pop\n      pop\n      jump\t// out\n        /* \"#utility.yul\":16638:17024   */\n    tag_217:\n        /* \"#utility.yul\":16742:16745   */\n      0x00\n        /* \"#utility.yul\":16770:16808   */\n      tag_375\n        /* \"#utility.yul\":16802:16807   */\n      dup3\n        /* \"#utility.yul\":16770:16808   */\n      tag_193\n      jump\t// in\n    tag_375:\n        /* \"#utility.yul\":16824:16912   */\n      tag_376\n        /* \"#utility.yul\":16905:16911   */\n      dup2\n        /* \"#utility.yul\":16900:16903   */\n      dup6\n        /* \"#utility.yul\":16824:16912   */\n      tag_216\n      jump\t// in\n    tag_376:\n        /* \"#utility.yul\":16817:16912   */\n      swap4\n      pop\n        /* \"#utility.yul\":16921:16986   */\n      tag_377\n        /* \"#utility.yul\":16979:16985   */\n      dup2\n        /* \"#utility.yul\":16974:16977   */\n      dup6\n        /* \"#utility.yul\":16967:16971   */\n      0x20\n        /* \"#utility.yul\":16960:16965   */\n      dup7\n        /* \"#utility.yul\":16956:16972   */\n      add\n        /* \"#utility.yul\":16921:16986   */\n      tag_195\n      jump\t// in\n    tag_377:\n        /* \"#utility.yul\":17011:17017   */\n      dup1\n        /* \"#utility.yul\":17006:17009   */\n      dup5\n        /* \"#utility.yul\":17002:17018   */\n      add\n        /* \"#utility.yul\":16995:17018   */\n      swap2\n      pop\n        /* \"#utility.yul\":16746:17024   */\n      pop\n        /* \"#utility.yul\":16638:17024   */\n      swap3\n      swap2\n      pop\n      pop\n      jump\t// out\n        /* \"#utility.yul\":17030:17301   */\n    tag_145:\n        /* \"#utility.yul\":17160:17163   */\n      0x00\n        /* \"#utility.yul\":17182:17275   */\n      tag_379\n        /* \"#utility.yul\":17271:17274   */\n      dup3\n        /* \"#utility.yul\":17262:17268   */\n      dup5\n        /* \"#utility.yul\":17182:17275   */\n      tag_217\n      jump\t// in\n    tag_379:\n        /* \"#utility.yul\":17175:17275   */\n      swap2\n      pop\n        /* \"#utility.yul\":17292:17295   */\n      dup2\n        /* \"#utility.yul\":17285:17295   */\n      swap1\n      pop\n        /* \"#utility.yul\":17030:17301   */\n      swap3\n      swap2\n      pop\n      pop\n      jump\t// out\n        /* \"#utility.yul\":17307:17486   */\n    tag_218:\n        /* \"#utility.yul\":17447:17478   */\n      0x416464726573733a2063616c6c20746f206e6f6e2d636f6e7472616374000000\n        /* \"#utility.yul\":17443:17444   */\n      0x00\n        /* \"#utility.yul\":17435:17441   */\n      dup3\n        /* \"#utility.yul\":17431:17445   */\n      add\n        /* \"#utility.yul\":17424:17479   */\n      mstore\n        /* \"#utility.yul\":17307:17486   */\n      pop\n      jump\t// out\n        /* \"#utility.yul\":17492:17858   */\n    tag_219:\n        /* \"#utility.yul\":17634:17637   */\n      0x00\n        /* \"#utility.yul\":17655:17722   */\n      tag_382\n        /* \"#utility.yul\":17719:17721   */\n      0x1d\n        /* \"#utility.yul\":17714:17717   */\n      dup4\n        /* \"#utility.yul\":17655:17722   */\n      tag_211\n      jump\t// in\n    tag_382:\n        /* \"#utility.yul\":17648:17722   */\n      swap2\n      pop\n        /* \"#utility.yul\":17731:17824   */\n      tag_383\n        /* \"#utility.yul\":17820:17823   */\n      dup3\n        /* \"#utility.yul\":17731:17824   */\n      tag_218\n      jump\t// in\n    tag_383:\n        /* \"#utility.yul\":17849:17851   */\n      0x20\n        /* \"#utility.yul\":17844:17847   */\n      dup3\n        /* \"#utility.yul\":17840:17852   */\n      add\n        /* \"#utility.yul\":17833:17852   */\n      swap1\n      pop\n        /* \"#utility.yul\":17492:17858   */\n      swap2\n      swap1\n      pop\n      jump\t// out\n        /* \"#utility.yul\":17864:18283   */\n    tag_158:\n        /* \"#utility.yul\":18030:18034   */\n      0x00\n        /* \"#utility.yul\":18068:18070   */\n      0x20\n        /* \"#utility.yul\":18057:18066   */\n      dup3\n        /* \"#utility.yul\":18053:18071   */\n      add\n        /* \"#utility.yul\":18045:18071   */\n      swap1\n      pop\n        /* \"#utility.yul\":18117:18126   */\n      dup2\n        /* \"#utility.yul\":18111:18115   */\n      dup2\n        /* \"#utility.yul\":18107:18127   */\n      sub\n        /* \"#utility.yul\":18103:18104   */\n      0x00\n        /* \"#utility.yul\":18092:18101   */\n      dup4\n        /* \"#utility.yul\":18088:18105   */\n      add\n        /* \"#utility.yul\":18081:18128   */\n      mstore\n        /* \"#utility.yul\":18145:18276   */\n      tag_385\n        /* \"#utility.yul\":18271:18275   */\n      dup2\n        /* \"#utility.yul\":18145:18276   */\n      tag_219\n      jump\t// in\n    tag_385:\n        /* \"#utility.yul\":18137:18276   */\n      swap1\n      pop\n        /* \"#utility.yul\":17864:18283   */\n      swap2\n      swap1\n      pop\n      jump\t// out\n        /* \"#utility.yul\":18289:18388   */\n    tag_220:\n        /* \"#utility.yul\":18341:18347   */\n      0x00\n        /* \"#utility.yul\":18375:18380   */\n      dup2\n        /* \"#utility.yul\":18369:18381   */\n      mload\n        /* \"#utility.yul\":18359:18381   */\n      swap1\n      pop\n        /* \"#utility.yul\":18289:18388   */\n      swap2\n      swap1\n      pop\n      jump\t// out\n        /* \"#utility.yul\":18394:18771   */\n    tag_221:\n        /* \"#utility.yul\":18482:18485   */\n      0x00\n        /* \"#utility.yul\":18510:18549   */\n      tag_388\n        /* \"#utility.yul\":18543:18548   */\n      dup3\n        /* \"#utility.yul\":18510:18549   */\n      tag_220\n      jump\t// in\n    tag_388:\n        /* \"#utility.yul\":18565:18636   */\n      tag_389\n        /* \"#utility.yul\":18629:18635   */\n      dup2\n        /* \"#utility.yul\":18624:18627   */\n      dup6\n        /* \"#utility.yul\":18565:18636   */\n      tag_211\n      jump\t// in\n    tag_389:\n        /* \"#utility.yul\":18558:18636   */\n      swap4\n      pop\n        /* \"#utility.yul\":18645:18710   */\n      tag_390\n        /* \"#utility.yul\":18703:18709   */\n      dup2\n        /* \"#utility.yul\":18698:18701   */\n      dup6\n        /* \"#utility.yul\":18691:18695   */\n      0x20\n        /* \"#utility.yul\":18684:18689   */\n      dup7\n        /* \"#utility.yul\":18680:18696   */\n      add\n        /* \"#utility.yul\":18645:18710   */\n      tag_195\n      jump\t// in\n    tag_390:\n        /* \"#utility.yul\":18735:18764   */\n      tag_391\n        /* \"#utility.yul\":18757:18763   */\n      dup2\n        /* \"#utility.yul\":18735:18764   */\n      tag_196\n      jump\t// in\n    tag_391:\n        /* \"#utility.yul\":18730:18733   */\n      dup5\n        /* \"#utility.yul\":18726:18765   */\n      add\n        /* \"#utility.yul\":18719:18765   */\n      swap2\n      pop\n        /* \"#utility.yul\":18486:18771   */\n      pop\n        /* \"#utility.yul\":18394:18771   */\n      swap3\n      swap2\n      pop\n      pop\n      jump\t// out\n        /* \"#utility.yul\":18777:19090   */\n    tag_167:\n        /* \"#utility.yul\":18890:18894   */\n      0x00\n        /* \"#utility.yul\":18928:18930   */\n      0x20\n        /* \"#utility.yul\":18917:18926   */\n      dup3\n        /* \"#utility.yul\":18913:18931   */\n      add\n        /* \"#utility.yul\":18905:18931   */\n      swap1\n      pop\n        /* \"#utility.yul\":18977:18986   */\n      dup2\n        /* \"#utility.yul\":18971:18975   */\n      dup2\n        /* \"#utility.yul\":18967:18987   */\n      sub\n        /* \"#utility.yul\":18963:18964   */\n      0x00\n        /* \"#utility.yul\":18952:18961   */\n      dup4\n        /* \"#utility.yul\":18948:18965   */\n      add\n        /* \"#utility.yul\":18941:18988   */\n      mstore\n        /* \"#utility.yul\":19005:19083   */\n      tag_393\n        /* \"#utility.yul\":19078:19082   */\n      dup2\n        /* \"#utility.yul\":19069:19075   */\n      dup5\n        /* \"#utility.yul\":19005:19083   */\n      tag_221\n      jump\t// in\n    tag_393:\n        /* \"#utility.yul\":18997:19083   */\n      swap1\n      pop\n        /* \"#utility.yul\":18777:19090   */\n      swap3\n      swap2\n      pop\n      pop\n      jump\t// out\n\n    auxdata: 0xa26469706673582212208dd9f3db25deaf1eefc2f3d908705f7a0a926feb0d9c3bd837cf5eb998eb941164736f6c634300081e0033\n}\n",
				"bytecode": {
					"linkReferences": {},
					"object": "608060405234801561000f575f5ffd5b50335f73ffffffffffffffffffffffffffffffffffffffff168173ffffffffffffffffffffffffffffffffffffffff1603610081575f6040517f1e4fbdf70000000000000000000000000000000000000000000000000000000081526004016100789190610196565b60405180910390fd5b6100908161009660201b60201c565b506101af565b5f5f5f9054906101000a900473ffffffffffffffffffffffffffffffffffffffff169050815f5f6101000a81548173ffffffffffffffffffffffffffffffffffffffff021916908373ffffffffffffffffffffffffffffffffffffffff1602179055508173ffffffffffffffffffffffffffffffffffffffff168173ffffffffffffffffffffffffffffffffffffffff167f8be0079c531659141344cd1fd0a4f28419497f9722a3daafe3b4186f6b6457e060405160405180910390a35050565b5f73ffffffffffffffffffffffffffffffffffffffff82169050919050565b5f61018082610157565b9050919050565b61019081610176565b82525050565b5f6020820190506101a95f830184610187565b92915050565b61180e806101bc5f395ff3fe608060405234801561000f575f5ffd5b5060043610610055575f3560e01c8063715018a61461005957806389476069146100635780638da5cb5b1461007f578063bec3fa171461009d578063f2fde38b146100cd575b5f5ffd5b6100616100e9565b005b61007d60048036038101906100789190610fb1565b6100fc565b005b610087610260565b6040516100949190610feb565b60405180910390f35b6100b760048036038101906100b29190611037565b610287565b6040516100c4919061108d565b60405180910390f35b6100e760048036038101906100e29190610fb1565b6109c0565b005b6100f1610a44565b6100fa5f610acb565b565b610104610a44565b5f731c7d4b196cb0c7b01d743fbc6116a902379c723873ffffffffffffffffffffffffffffffffffffffff166370a08231306040518263ffffffff1660e01b81526004016101529190610feb565b602060405180830381865afa15801561016d573d5f5f3e3d5ffd5b505050506040513d601f19601f8201168201806040525081019061019191906110ba565b90505f81036101cc576040517f95a6ed4000000000000000000000000000000000000000000000000000000000815260040160405180910390fd5b731c7d4b196cb0c7b01d743fbc6116a902379c723873ffffffffffffffffffffffffffffffffffffffff1663a9059cbb83836040518363ffffffff1660e01b815260040161021b9291906110f4565b6020604051808303815f875af1158015610237573d5f5f3e3d5ffd5b505050506040513d601f19601f8201168201806040525081019061025b9190611150565b505050565b5f5f5f9054906101000a900473ffffffffffffffffffffffffffffffffffffffff16905090565b5f731c7d4b196cb0c7b01d743fbc6116a902379c723873ffffffffffffffffffffffffffffffffffffffff166370a08231336040518263ffffffff1660e01b81526004016102d59190610feb565b602060405180830381865afa1580156102f0573d5f5f3e3d5ffd5b505050506040513d601f19601f8201168201806040525081019061031491906110ba565b8211156103e757731c7d4b196cb0c7b01d743fbc6116a902379c72388073ffffffffffffffffffffffffffffffffffffffff166370a08231336040518263ffffffff1660e01b81526004016103699190610feb565b602060405180830381865afa158015610384573d5f5f3e3d5ffd5b505050506040513d601f19601f820116820180604052508101906103a891906110ba565b836040517fefd3e43c0000000000000000000000000000000000000000000000000000000081526004016103de939291906111d6565b60405180910390fd5b5f600167ffffffffffffffff8111156104035761040261120b565b5b60405190808252806020026020018201604052801561043c57816020015b610429610f25565b8152602001906001900390816104215790505b5090505f6040518060400160405280731c7d4b196cb0c7b01d743fbc6116a902379c723873ffffffffffffffffffffffffffffffffffffffff16815260200185815250905080825f8151811061049557610494611238565b5b60200260200101819052505f6040518060a00160405280876040516020016104bd9190610feb565b604051602081830303815290604052815260200160405180602001604052805f815250815260200184815260200173779877a7b0d9e8603169ddbd7836e478b462478973ffffffffffffffffffffffffffffffffffffffff16815260200161053260405180602001604052805f815250610b8c565b81525090505f730bf3de8c5d3e8a2b34d2beeb17abfcebaf363a5973ffffffffffffffffffffffffffffffffffffffff166320487ded678f90b8876dee6538846040518363ffffffff1660e01b815260040161058f929190611472565b602060405180830381865afa1580156105aa573d5f5f3e3d5ffd5b505050506040513d601f19601f820116820180604052508101906105ce91906110ba565b905073779877a7b0d9e8603169ddbd7836e478b462478973ffffffffffffffffffffffffffffffffffffffff166370a08231306040518263ffffffff1660e01b815260040161061d9190610feb565b602060405180830381865afa158015610638573d5f5f3e3d5ffd5b505050506040513d601f19601f8201168201806040525081019061065c91906110ba565b81111561072f5773779877a7b0d9e8603169ddbd7836e478b46247898073ffffffffffffffffffffffffffffffffffffffff166370a08231306040518263ffffffff1660e01b81526004016106b19190610feb565b602060405180830381865afa1580156106cc573d5f5f3e3d5ffd5b505050506040513d601f19601f820116820180604052508101906106f091906110ba565b826040517fefd3e43c000000000000000000000000000000000000000000000000000000008152600401610726939291906111d6565b60405180910390fd5b73779877a7b0d9e8603169ddbd7836e478b462478973ffffffffffffffffffffffffffffffffffffffff1663095ea7b3730bf3de8c5d3e8a2b34d2beeb17abfcebaf363a59836040518363ffffffff1660e01b81526004016107929291906110f4565b6020604051808303815f875af11580156107ae573d5f5f3e3d5ffd5b505050506040513d601f19601f820116820180604052508101906107d29190611150565b50610814333088731c7d4b196cb0c7b01d743fbc6116a902379c723873ffffffffffffffffffffffffffffffffffffffff16610c0b909392919063ffffffff16565b731c7d4b196cb0c7b01d743fbc6116a902379c723873ffffffffffffffffffffffffffffffffffffffff1663095ea7b3730bf3de8c5d3e8a2b34d2beeb17abfcebaf363a59886040518363ffffffff1660e01b81526004016108779291906110f4565b6020604051808303815f875af1158015610893573d5f5f3e3d5ffd5b505050506040513d601f19601f820116820180604052508101906108b79190611150565b50730bf3de8c5d3e8a2b34d2beeb17abfcebaf363a5973ffffffffffffffffffffffffffffffffffffffff166396f4e9f9678f90b8876dee6538846040518363ffffffff1660e01b815260040161090f929190611472565b6020604051808303815f875af115801561092b573d5f5f3e3d5ffd5b505050506040513d601f19601f8201168201806040525081019061094f91906114ca565b94508673ffffffffffffffffffffffffffffffffffffffff16678f90b8876dee653867ffffffffffffffff167feca040c7df5d1a8ea4277fa1a77f55e8ef67b6fcf617a6fc6b16067f5f7547b58789856040516109ae939291906114f5565b60405180910390a35050505092915050565b6109c8610a44565b5f73ffffffffffffffffffffffffffffffffffffffff168173ffffffffffffffffffffffffffffffffffffffff1603610a38575f6040517f1e4fbdf7000000000000000000000000000000000000000000000000000000008152600401610a2f9190610feb565b60405180910390fd5b610a4181610acb565b50565b610a4c610c94565b73ffffffffffffffffffffffffffffffffffffffff16610a6a610260565b73ffffffffffffffffffffffffffffffffffffffff1614610ac957610a8d610c94565b6040517f118cdaa7000000000000000000000000000000000000000000000000000000008152600401610ac09190610feb565b60405180910390fd5b565b5f5f5f9054906101000a900473ffffffffffffffffffffffffffffffffffffffff169050815f5f6101000a81548173ffffffffffffffffffffffffffffffffffffffff021916908373ffffffffffffffffffffffffffffffffffffffff1602179055508173ffffffffffffffffffffffffffffffffffffffff168173ffffffffffffffffffffffffffffffffffffffff167f8be0079c531659141344cd1fd0a4f28419497f9722a3daafe3b4186f6b6457e060405160405180910390a35050565b60606397a657c960e01b82604051602401610ba79190611544565b604051602081830303815290604052907bffffffffffffffffffffffffffffffffffffffffffffffffffffffff19166020820180517bffffffffffffffffffffffffffffffffffffffffffffffffffffffff83818316178352505050509050919050565b610c8e846323b872dd60e01b858585604051602401610c2c9392919061155d565b604051602081830303815290604052907bffffffffffffffffffffffffffffffffffffffffffffffffffffffff19166020820180517bffffffffffffffffffffffffffffffffffffffffffffffffffffffff8381831617835250505050610c9b565b50505050565b5f33905090565b5f610cfc826040518060400160405280602081526020017f5361666545524332303a206c6f772d6c6576656c2063616c6c206661696c65648152508573ffffffffffffffffffffffffffffffffffffffff16610d609092919063ffffffff16565b90505f81511115610d5b5780806020019051810190610d1b9190611150565b610d5a576040517f08c379a0000000000000000000000000000000000000000000000000000000008152600401610d5190611612565b60405180910390fd5b5b505050565b6060610d6e84845f85610d77565b90509392505050565b606082471015610dbc576040517f08c379a0000000000000000000000000000000000000000000000000000000008152600401610db3906116a0565b60405180910390fd5b5f5f8673ffffffffffffffffffffffffffffffffffffffff168587604051610de491906116f8565b5f6040518083038185875af1925050503d805f8114610e1e576040519150601f19603f3d011682016040523d82523d5f602084013e610e23565b606091505b5091509150610e3487838387610e40565b92505050949350505050565b60608315610ea1575f835103610e9957610e5985610eb4565b610e98576040517f08c379a0000000000000000000000000000000000000000000000000000000008152600401610e8f90611758565b60405180910390fd5b5b829050610eac565b610eab8383610ed6565b5b949350505050565b5f5f8273ffffffffffffffffffffffffffffffffffffffff163b119050919050565b5f82511115610ee85781518083602001fd5b806040517f08c379a0000000000000000000000000000000000000000000000000000000008152600401610f1c91906117b8565b60405180910390fd5b60405180604001604052805f73ffffffffffffffffffffffffffffffffffffffff1681526020015f81525090565b5f5ffd5b5f73ffffffffffffffffffffffffffffffffffffffff82169050919050565b5f610f8082610f57565b9050919050565b610f9081610f76565b8114610f9a575f5ffd5b50565b5f81359050610fab81610f87565b92915050565b5f60208284031215610fc657610fc5610f53565b5b5f610fd384828501610f9d565b91505092915050565b610fe581610f76565b82525050565b5f602082019050610ffe5f830184610fdc565b92915050565b5f819050919050565b61101681611004565b8114611020575f5ffd5b50565b5f813590506110318161100d565b92915050565b5f5f6040838503121561104d5761104c610f53565b5b5f61105a85828601610f9d565b925050602061106b85828601611023565b9150509250929050565b5f819050919050565b61108781611075565b82525050565b5f6020820190506110a05f83018461107e565b92915050565b5f815190506110b48161100d565b92915050565b5f602082840312156110cf576110ce610f53565b5b5f6110dc848285016110a6565b91505092915050565b6110ee81611004565b82525050565b5f6040820190506111075f830185610fdc565b61111460208301846110e5565b9392505050565b5f8115159050919050565b61112f8161111b565b8114611139575f5ffd5b50565b5f8151905061114a81611126565b92915050565b5f6020828403121561116557611164610f53565b5b5f6111728482850161113c565b91505092915050565b5f819050919050565b5f61119e61119961119484610f57565b61117b565b610f57565b9050919050565b5f6111af82611184565b9050919050565b5f6111c0826111a5565b9050919050565b6111d0816111b6565b82525050565b5f6060820190506111e95f8301866111c7565b6111f660208301856110e5565b61120360408301846110e5565b949350505050565b7f4e487b71000000000000000000000000000000000000000000000000000000005f52604160045260245ffd5b7f4e487b71000000000000000000000000000000000000000000000000000000005f52603260045260245ffd5b5f67ffffffffffffffff82169050919050565b61128181611265565b82525050565b5f81519050919050565b5f82825260208201905092915050565b8281835e5f83830152505050565b5f601f19601f8301169050919050565b5f6112c982611287565b6112d38185611291565b93506112e38185602086016112a1565b6112ec816112af565b840191505092915050565b5f81519050919050565b5f82825260208201905092915050565b5f819050602082019050919050565b61132981610f76565b82525050565b61133881611004565b82525050565b604082015f8201516113525f850182611320565b506020820151611365602085018261132f565b50505050565b5f611376838361133e565b60408301905092915050565b5f602082019050919050565b5f611398826112f7565b6113a28185611301565b93506113ad83611311565b805f5b838110156113dd5781516113c4888261136b565b97506113cf83611382565b9250506001810190506113b0565b5085935050505092915050565b5f60a083015f8301518482035f86015261140482826112bf565b9150506020830151848203602086015261141e82826112bf565b91505060408301518482036040860152611438828261138e565b915050606083015161144d6060860182611320565b506080830151848203608086015261146582826112bf565b9150508091505092915050565b5f6040820190506114855f830185611278565b818103602083015261149781846113ea565b90509392505050565b6114a981611075565b81146114b3575f5ffd5b50565b5f815190506114c4816114a0565b92915050565b5f602082840312156114df576114de610f53565b5b5f6114ec848285016114b6565b91505092915050565b5f6060820190506115085f83018661107e565b61151560208301856110e5565b61152260408301846110e5565b949350505050565b602082015f82015161153e5f85018261132f565b50505050565b5f6020820190506115575f83018461152a565b92915050565b5f6060820190506115705f830186610fdc565b61157d6020830185610fdc565b61158a60408301846110e5565b949350505050565b5f82825260208201905092915050565b7f5361666545524332303a204552433230206f7065726174696f6e20646964206e5f8201527f6f74207375636365656400000000000000000000000000000000000000000000602082015250565b5f6115fc602a83611592565b9150611607826115a2565b604082019050919050565b5f6020820190508181035f830152611629816115f0565b9050919050565b7f416464726573733a20696e73756666696369656e742062616c616e636520666f5f8201527f722063616c6c0000000000000000000000000000000000000000000000000000602082015250565b5f61168a602683611592565b915061169582611630565b604082019050919050565b5f6020820190508181035f8301526116b78161167e565b9050919050565b5f81905092915050565b5f6116d282611287565b6116dc81856116be565b93506116ec8185602086016112a1565b80840191505092915050565b5f61170382846116c8565b915081905092915050565b7f416464726573733a2063616c6c20746f206e6f6e2d636f6e74726163740000005f82015250565b5f611742601d83611592565b915061174d8261170e565b602082019050919050565b5f6020820190508181035f83015261176f81611736565b9050919050565b5f81519050919050565b5f61178a82611776565b6117948185611592565b93506117a48185602086016112a1565b6117ad816112af565b840191505092915050565b5f6020820190508181035f8301526117d08184611780565b90509291505056fea26469706673582212208dd9f3db25deaf1eefc2f3d908705f7a0a926feb0d9c3bd837cf5eb998eb941164736f6c634300081e0033",
					"opcodes": "PUSH1 0x80 PUSH1 0x40 MSTORE CALLVALUE DUP1 ISZERO PUSH2 0xF JUMPI PUSH0 PUSH0 REVERT JUMPDEST POP CALLER PUSH0 PUSH20 0xFFFFFFFFFFFFFFFFFFFFFFFFFFFFFFFFFFFFFFFF AND DUP2 PUSH20 0xFFFFFFFFFFFFFFFFFFFFFFFFFFFFFFFFFFFFFFFF AND SUB PUSH2 0x81 JUMPI PUSH0 PUSH1 0x40 MLOAD PUSH32 0x1E4FBDF700000000000000000000000000000000000000000000000000000000 DUP2 MSTORE PUSH1 0x4 ADD PUSH2 0x78 SWAP2 SWAP1 PUSH2 0x196 JUMP JUMPDEST PUSH1 0x40 MLOAD DUP1 SWAP2 SUB SWAP1 REVERT JUMPDEST PUSH2 0x90 DUP2 PUSH2 0x96 PUSH1 0x20 SHL PUSH1 0x20 SHR JUMP JUMPDEST POP PUSH2 0x1AF JUMP JUMPDEST PUSH0 PUSH0 PUSH0 SWAP1 SLOAD SWAP1 PUSH2 0x100 EXP SWAP1 DIV PUSH20 0xFFFFFFFFFFFFFFFFFFFFFFFFFFFFFFFFFFFFFFFF AND SWAP1 POP DUP2 PUSH0 PUSH0 PUSH2 0x100 EXP DUP2 SLOAD DUP2 PUSH20 0xFFFFFFFFFFFFFFFFFFFFFFFFFFFFFFFFFFFFFFFF MUL NOT AND SWAP1 DUP4 PUSH20 0xFFFFFFFFFFFFFFFFFFFFFFFFFFFFFFFFFFFFFFFF AND MUL OR SWAP1 SSTORE POP DUP2 PUSH20 0xFFFFFFFFFFFFFFFFFFFFFFFFFFFFFFFFFFFFFFFF AND DUP2 PUSH20 0xFFFFFFFFFFFFFFFFFFFFFFFFFFFFFFFFFFFFFFFF AND PUSH32 0x8BE0079C531659141344CD1FD0A4F28419497F9722A3DAAFE3B4186F6B6457E0 PUSH1 0x40 MLOAD PUSH1 0x40 MLOAD DUP1 SWAP2 SUB SWAP1 LOG3 POP POP JUMP JUMPDEST PUSH0 PUSH20 0xFFFFFFFFFFFFFFFFFFFFFFFFFFFFFFFFFFFFFFFF DUP3 AND SWAP1 POP SWAP2 SWAP1 POP JUMP JUMPDEST PUSH0 PUSH2 0x180 DUP3 PUSH2 0x157 JUMP JUMPDEST SWAP1 POP SWAP2 SWAP1 POP JUMP JUMPDEST PUSH2 0x190 DUP2 PUSH2 0x176 JUMP JUMPDEST DUP3 MSTORE POP POP JUMP JUMPDEST PUSH0 PUSH1 0x20 DUP3 ADD SWAP1 POP PUSH2 0x1A9 PUSH0 DUP4 ADD DUP5 PUSH2 0x187 JUMP JUMPDEST SWAP3 SWAP2 POP POP JUMP JUMPDEST PUSH2 0x180E DUP1 PUSH2 0x1BC PUSH0 CODECOPY PUSH0 RETURN INVALID PUSH1 0x80 PUSH1 0x40 MSTORE CALLVALUE DUP1 ISZERO PUSH2 0xF JUMPI PUSH0 PUSH0 REVERT JUMPDEST POP PUSH1 0x4 CALLDATASIZE LT PUSH2 0x55 JUMPI PUSH0 CALLDATALOAD PUSH1 0xE0 SHR DUP1 PUSH4 0x715018A6 EQ PUSH2 0x59 JUMPI DUP1 PUSH4 0x89476069 EQ PUSH2 0x63 JUMPI DUP1 PUSH4 0x8DA5CB5B EQ PUSH2 0x7F JUMPI DUP1 PUSH4 0xBEC3FA17 EQ PUSH2 0x9D JUMPI DUP1 PUSH4 0xF2FDE38B EQ PUSH2 0xCD JUMPI JUMPDEST PUSH0 PUSH0 REVERT JUMPDEST PUSH2 0x61 PUSH2 0xE9 JUMP JUMPDEST STOP JUMPDEST PUSH2 0x7D PUSH1 0x4 DUP1 CALLDATASIZE SUB DUP2 ADD SWAP1 PUSH2 0x78 SWAP2 SWAP1 PUSH2 0xFB1 JUMP JUMPDEST PUSH2 0xFC JUMP JUMPDEST STOP JUMPDEST PUSH2 0x87 PUSH2 0x260 JUMP JUMPDEST PUSH1 0x40 MLOAD PUSH2 0x94 SWAP2 SWAP1 PUSH2 0xFEB JUMP JUMPDEST PUSH1 0x40 MLOAD DUP1 SWAP2 SUB SWAP1 RETURN JUMPDEST PUSH2 0xB7 PUSH1 0x4 DUP1 CALLDATASIZE SUB DUP2 ADD SWAP1 PUSH2 0xB2 SWAP2 SWAP1 PUSH2 0x1037 JUMP JUMPDEST PUSH2 0x287 JUMP JUMPDEST PUSH1 0x40 MLOAD PUSH2 0xC4 SWAP2 SWAP1 PUSH2 0x108D JUMP JUMPDEST PUSH1 0x40 MLOAD DUP1 SWAP2 SUB SWAP1 RETURN JUMPDEST PUSH2 0xE7 PUSH1 0x4 DUP1 CALLDATASIZE SUB DUP2 ADD SWAP1 PUSH2 0xE2 SWAP2 SWAP1 PUSH2 0xFB1 JUMP JUMPDEST PUSH2 0x9C0 JUMP JUMPDEST STOP JUMPDEST PUSH2 0xF1 PUSH2 0xA44 JUMP JUMPDEST PUSH2 0xFA PUSH0 PUSH2 0xACB JUMP JUMPDEST JUMP JUMPDEST PUSH2 0x104 PUSH2 0xA44 JUMP JUMPDEST PUSH0 PUSH20 0x1C7D4B196CB0C7B01D743FBC6116A902379C7238 PUSH20 0xFFFFFFFFFFFFFFFFFFFFFFFFFFFFFFFFFFFFFFFF AND PUSH4 0x70A08231 ADDRESS PUSH1 0x40 MLOAD DUP3 PUSH4 0xFFFFFFFF AND PUSH1 0xE0 SHL DUP2 MSTORE PUSH1 0x4 ADD PUSH2 0x152 SWAP2 SWAP1 PUSH2 0xFEB JUMP JUMPDEST PUSH1 0x20 PUSH1 0x40 MLOAD DUP1 DUP4 SUB DUP2 DUP7 GAS STATICCALL ISZERO DUP1 ISZERO PUSH2 0x16D JUMPI RETURNDATASIZE PUSH0 PUSH0 RETURNDATACOPY RETURNDATASIZE PUSH0 REVERT JUMPDEST POP POP POP POP PUSH1 0x40 MLOAD RETURNDATASIZE PUSH1 0x1F NOT PUSH1 0x1F DUP3 ADD AND DUP3 ADD DUP1 PUSH1 0x40 MSTORE POP DUP2 ADD SWAP1 PUSH2 0x191 SWAP2 SWAP1 PUSH2 0x10BA JUMP JUMPDEST SWAP1 POP PUSH0 DUP2 SUB PUSH2 0x1CC JUMPI PUSH1 0x40 MLOAD PUSH32 0x95A6ED4000000000000000000000000000000000000000000000000000000000 DUP2 MSTORE PUSH1 0x4 ADD PUSH1 0x40 MLOAD DUP1 SWAP2 SUB SWAP1 REVERT JUMPDEST PUSH20 0x1C7D4B196CB0C7B01D743FBC6116A902379C7238 PUSH20 0xFFFFFFFFFFFFFFFFFFFFFFFFFFFFFFFFFFFFFFFF AND PUSH4 0xA9059CBB DUP4 DUP4 PUSH1 0x40 MLOAD DUP4 PUSH4 0xFFFFFFFF AND PUSH1 0xE0 SHL DUP2 MSTORE PUSH1 0x4 ADD PUSH2 0x21B SWAP3 SWAP2 SWAP1 PUSH2 0x10F4 JUMP JUMPDEST PUSH1 0x20 PUSH1 0x40 MLOAD DUP1 DUP4 SUB DUP2 PUSH0 DUP8 GAS CALL ISZERO DUP1 ISZERO PUSH2 0x237 JUMPI RETURNDATASIZE PUSH0 PUSH0 RETURNDATACOPY RETURNDATASIZE PUSH0 REVERT JUMPDEST POP POP POP POP PUSH1 0x40 MLOAD RETURNDATASIZE PUSH1 0x1F NOT PUSH1 0x1F DUP3 ADD AND DUP3 ADD DUP1 PUSH1 0x40 MSTORE POP DUP2 ADD SWAP1 PUSH2 0x25B SWAP2 SWAP1 PUSH2 0x1150 JUMP JUMPDEST POP POP POP JUMP JUMPDEST PUSH0 PUSH0 PUSH0 SWAP1 SLOAD SWAP1 PUSH2 0x100 EXP SWAP1 DIV PUSH20 0xFFFFFFFFFFFFFFFFFFFFFFFFFFFFFFFFFFFFFFFF AND SWAP1 POP SWAP1 JUMP JUMPDEST PUSH0 PUSH20 0x1C7D4B196CB0C7B01D743FBC6116A902379C7238 PUSH20 0xFFFFFFFFFFFFFFFFFFFFFFFFFFFFFFFFFFFFFFFF AND PUSH4 0x70A08231 CALLER PUSH1 0x40 MLOAD DUP3 PUSH4 0xFFFFFFFF AND PUSH1 0xE0 SHL DUP2 MSTORE PUSH1 0x4 ADD PUSH2 0x2D5 SWAP2 SWAP1 PUSH2 0xFEB JUMP JUMPDEST PUSH1 0x20 PUSH1 0x40 MLOAD DUP1 DUP4 SUB DUP2 DUP7 GAS STATICCALL ISZERO DUP1 ISZERO PUSH2 0x2F0 JUMPI RETURNDATASIZE PUSH0 PUSH0 RETURNDATACOPY RETURNDATASIZE PUSH0 REVERT JUMPDEST POP POP POP POP PUSH1 0x40 MLOAD RETURNDATASIZE PUSH1 0x1F NOT PUSH1 0x1F DUP3 ADD AND DUP3 ADD DUP1 PUSH1 0x40 MSTORE POP DUP2 ADD SWAP1 PUSH2 0x314 SWAP2 SWAP1 PUSH2 0x10BA JUMP JUMPDEST DUP3 GT ISZERO PUSH2 0x3E7 JUMPI PUSH20 0x1C7D4B196CB0C7B01D743FBC6116A902379C7238 DUP1 PUSH20 0xFFFFFFFFFFFFFFFFFFFFFFFFFFFFFFFFFFFFFFFF AND PUSH4 0x70A08231 CALLER PUSH1 0x40 MLOAD DUP3 PUSH4 0xFFFFFFFF AND PUSH1 0xE0 SHL DUP2 MSTORE PUSH1 0x4 ADD PUSH2 0x369 SWAP2 SWAP1 PUSH2 0xFEB JUMP JUMPDEST PUSH1 0x20 PUSH1 0x40 MLOAD DUP1 DUP4 SUB DUP2 DUP7 GAS STATICCALL ISZERO DUP1 ISZERO PUSH2 0x384 JUMPI RETURNDATASIZE PUSH0 PUSH0 RETURNDATACOPY RETURNDATASIZE PUSH0 REVERT JUMPDEST POP POP POP POP PUSH1 0x40 MLOAD RETURNDATASIZE PUSH1 0x1F NOT PUSH1 0x1F DUP3 ADD AND DUP3 ADD DUP1 PUSH1 0x40 MSTORE POP DUP2 ADD SWAP1 PUSH2 0x3A8 SWAP2 SWAP1 PUSH2 0x10BA JUMP JUMPDEST DUP4 PUSH1 0x40 MLOAD PUSH32 0xEFD3E43C00000000000000000000000000000000000000000000000000000000 DUP2 MSTORE PUSH1 0x4 ADD PUSH2 0x3DE SWAP4 SWAP3 SWAP2 SWAP1 PUSH2 0x11D6 JUMP JUMPDEST PUSH1 0x40 MLOAD DUP1 SWAP2 SUB SWAP1 REVERT JUMPDEST PUSH0 PUSH1 0x1 PUSH8 0xFFFFFFFFFFFFFFFF DUP2 GT ISZERO PUSH2 0x403 JUMPI PUSH2 0x402 PUSH2 0x120B JUMP JUMPDEST JUMPDEST PUSH1 0x40 MLOAD SWAP1 DUP1 DUP3 MSTORE DUP1 PUSH1 0x20 MUL PUSH1 0x20 ADD DUP3 ADD PUSH1 0x40 MSTORE DUP1 ISZERO PUSH2 0x43C JUMPI DUP2 PUSH1 0x20 ADD JUMPDEST PUSH2 0x429 PUSH2 0xF25 JUMP JUMPDEST DUP2 MSTORE PUSH1 0x20 ADD SWAP1 PUSH1 0x1 SWAP1 SUB SWAP1 DUP2 PUSH2 0x421 JUMPI SWAP1 POP JUMPDEST POP SWAP1 POP PUSH0 PUSH1 0x40 MLOAD DUP1 PUSH1 0x40 ADD PUSH1 0x40 MSTORE DUP1 PUSH20 0x1C7D4B196CB0C7B01D743FBC6116A902379C7238 PUSH20 0xFFFFFFFFFFFFFFFFFFFFFFFFFFFFFFFFFFFFFFFF AND DUP2 MSTORE PUSH1 0x20 ADD DUP6 DUP2 MSTORE POP SWAP1 POP DUP1 DUP3 PUSH0 DUP2 MLOAD DUP2 LT PUSH2 0x495 JUMPI PUSH2 0x494 PUSH2 0x1238 JUMP JUMPDEST JUMPDEST PUSH1 0x20 MUL PUSH1 0x20 ADD ADD DUP2 SWAP1 MSTORE POP PUSH0 PUSH1 0x40 MLOAD DUP1 PUSH1 0xA0 ADD PUSH1 0x40 MSTORE DUP1 DUP8 PUSH1 0x40 MLOAD PUSH1 0x20 ADD PUSH2 0x4BD SWAP2 SWAP1 PUSH2 0xFEB JUMP JUMPDEST PUSH1 0x40 MLOAD PUSH1 0x20 DUP2 DUP4 SUB SUB DUP2 MSTORE SWAP1 PUSH1 0x40 MSTORE DUP2 MSTORE PUSH1 0x20 ADD PUSH1 0x40 MLOAD DUP1 PUSH1 0x20 ADD PUSH1 0x40 MSTORE DUP1 PUSH0 DUP2 MSTORE POP DUP2 MSTORE PUSH1 0x20 ADD DUP5 DUP2 MSTORE PUSH1 0x20 ADD PUSH20 0x779877A7B0D9E8603169DDBD7836E478B4624789 PUSH20 0xFFFFFFFFFFFFFFFFFFFFFFFFFFFFFFFFFFFFFFFF AND DUP2 MSTORE PUSH1 0x20 ADD PUSH2 0x532 PUSH1 0x40 MLOAD DUP1 PUSH1 0x20 ADD PUSH1 0x40 MSTORE DUP1 PUSH0 DUP2 MSTORE POP PUSH2 0xB8C JUMP JUMPDEST DUP2 MSTORE POP SWAP1 POP PUSH0 PUSH20 0xBF3DE8C5D3E8A2B34D2BEEB17ABFCEBAF363A59 PUSH20 0xFFFFFFFFFFFFFFFFFFFFFFFFFFFFFFFFFFFFFFFF AND PUSH4 0x20487DED PUSH8 0x8F90B8876DEE6538 DUP5 PUSH1 0x40 MLOAD DUP4 PUSH4 0xFFFFFFFF AND PUSH1 0xE0 SHL DUP2 MSTORE PUSH1 0x4 ADD PUSH2 0x58F SWAP3 SWAP2 SWAP1 PUSH2 0x1472 JUMP JUMPDEST PUSH1 0x20 PUSH1 0x40 MLOAD DUP1 DUP4 SUB DUP2 DUP7 GAS STATICCALL ISZERO DUP1 ISZERO PUSH2 0x5AA JUMPI RETURNDATASIZE PUSH0 PUSH0 RETURNDATACOPY RETURNDATASIZE PUSH0 REVERT JUMPDEST POP POP POP POP PUSH1 0x40 MLOAD RETURNDATASIZE PUSH1 0x1F NOT PUSH1 0x1F DUP3 ADD AND DUP3 ADD DUP1 PUSH1 0x40 MSTORE POP DUP2 ADD SWAP1 PUSH2 0x5CE SWAP2 SWAP1 PUSH2 0x10BA JUMP JUMPDEST SWAP1 POP PUSH20 0x779877A7B0D9E8603169DDBD7836E478B4624789 PUSH20 0xFFFFFFFFFFFFFFFFFFFFFFFFFFFFFFFFFFFFFFFF AND PUSH4 0x70A08231 ADDRESS PUSH1 0x40 MLOAD DUP3 PUSH4 0xFFFFFFFF AND PUSH1 0xE0 SHL DUP2 MSTORE PUSH1 0x4 ADD PUSH2 0x61D SWAP2 SWAP1 PUSH2 0xFEB JUMP JUMPDEST PUSH1 0x20 PUSH1 0x40 MLOAD DUP1 DUP4 SUB DUP2 DUP7 GAS STATICCALL ISZERO DUP1 ISZERO PUSH2 0x638 JUMPI RETURNDATASIZE PUSH0 PUSH0 RETURNDATACOPY RETURNDATASIZE PUSH0 REVERT JUMPDEST POP POP POP POP PUSH1 0x40 MLOAD RETURNDATASIZE PUSH1 0x1F NOT PUSH1 0x1F DUP3 ADD AND DUP3 ADD DUP1 PUSH1 0x40 MSTORE POP DUP2 ADD SWAP1 PUSH2 0x65C SWAP2 SWAP1 PUSH2 0x10BA JUMP JUMPDEST DUP2 GT ISZERO PUSH2 0x72F JUMPI PUSH20 0x779877A7B0D9E8603169DDBD7836E478B4624789 DUP1 PUSH20 0xFFFFFFFFFFFFFFFFFFFFFFFFFFFFFFFFFFFFFFFF AND PUSH4 0x70A08231 ADDRESS PUSH1 0x40 MLOAD DUP3 PUSH4 0xFFFFFFFF AND PUSH1 0xE0 SHL DUP2 MSTORE PUSH1 0x4 ADD PUSH2 0x6B1 SWAP2 SWAP1 PUSH2 0xFEB JUMP JUMPDEST PUSH1 0x20 PUSH1 0x40 MLOAD DUP1 DUP4 SUB DUP2 DUP7 GAS STATICCALL ISZERO DUP1 ISZERO PUSH2 0x6CC JUMPI RETURNDATASIZE PUSH0 PUSH0 RETURNDATACOPY RETURNDATASIZE PUSH0 REVERT JUMPDEST POP POP POP POP PUSH1 0x40 MLOAD RETURNDATASIZE PUSH1 0x1F NOT PUSH1 0x1F DUP3 ADD AND DUP3 ADD DUP1 PUSH1 0x40 MSTORE POP DUP2 ADD SWAP1 PUSH2 0x6F0 SWAP2 SWAP1 PUSH2 0x10BA JUMP JUMPDEST DUP3 PUSH1 0x40 MLOAD PUSH32 0xEFD3E43C00000000000000000000000000000000000000000000000000000000 DUP2 MSTORE PUSH1 0x4 ADD PUSH2 0x726 SWAP4 SWAP3 SWAP2 SWAP1 PUSH2 0x11D6 JUMP JUMPDEST PUSH1 0x40 MLOAD DUP1 SWAP2 SUB SWAP1 REVERT JUMPDEST PUSH20 0x779877A7B0D9E8603169DDBD7836E478B4624789 PUSH20 0xFFFFFFFFFFFFFFFFFFFFFFFFFFFFFFFFFFFFFFFF AND PUSH4 0x95EA7B3 PUSH20 0xBF3DE8C5D3E8A2B34D2BEEB17ABFCEBAF363A59 DUP4 PUSH1 0x40 MLOAD DUP4 PUSH4 0xFFFFFFFF AND PUSH1 0xE0 SHL DUP2 MSTORE PUSH1 0x4 ADD PUSH2 0x792 SWAP3 SWAP2 SWAP1 PUSH2 0x10F4 JUMP JUMPDEST PUSH1 0x20 PUSH1 0x40 MLOAD DUP1 DUP4 SUB DUP2 PUSH0 DUP8 GAS CALL ISZERO DUP1 ISZERO PUSH2 0x7AE JUMPI RETURNDATASIZE PUSH0 PUSH0 RETURNDATACOPY RETURNDATASIZE PUSH0 REVERT JUMPDEST POP POP POP POP PUSH1 0x40 MLOAD RETURNDATASIZE PUSH1 0x1F NOT PUSH1 0x1F DUP3 ADD AND DUP3 ADD DUP1 PUSH1 0x40 MSTORE POP DUP2 ADD SWAP1 PUSH2 0x7D2 SWAP2 SWAP1 PUSH2 0x1150 JUMP JUMPDEST POP PUSH2 0x814 CALLER ADDRESS DUP9 PUSH20 0x1C7D4B196CB0C7B01D743FBC6116A902379C7238 PUSH20 0xFFFFFFFFFFFFFFFFFFFFFFFFFFFFFFFFFFFFFFFF AND PUSH2 0xC0B SWAP1 SWAP4 SWAP3 SWAP2 SWAP1 PUSH4 0xFFFFFFFF AND JUMP JUMPDEST PUSH20 0x1C7D4B196CB0C7B01D743FBC6116A902379C7238 PUSH20 0xFFFFFFFFFFFFFFFFFFFFFFFFFFFFFFFFFFFFFFFF AND PUSH4 0x95EA7B3 PUSH20 0xBF3DE8C5D3E8A2B34D2BEEB17ABFCEBAF363A59 DUP9 PUSH1 0x40 MLOAD DUP4 PUSH4 0xFFFFFFFF AND PUSH1 0xE0 SHL DUP2 MSTORE PUSH1 0x4 ADD PUSH2 0x877 SWAP3 SWAP2 SWAP1 PUSH2 0x10F4 JUMP JUMPDEST PUSH1 0x20 PUSH1 0x40 MLOAD DUP1 DUP4 SUB DUP2 PUSH0 DUP8 GAS CALL ISZERO DUP1 ISZERO PUSH2 0x893 JUMPI RETURNDATASIZE PUSH0 PUSH0 RETURNDATACOPY RETURNDATASIZE PUSH0 REVERT JUMPDEST POP POP POP POP PUSH1 0x40 MLOAD RETURNDATASIZE PUSH1 0x1F NOT PUSH1 0x1F DUP3 ADD AND DUP3 ADD DUP1 PUSH1 0x40 MSTORE POP DUP2 ADD SWAP1 PUSH2 0x8B7 SWAP2 SWAP1 PUSH2 0x1150 JUMP JUMPDEST POP PUSH20 0xBF3DE8C5D3E8A2B34D2BEEB17ABFCEBAF363A59 PUSH20 0xFFFFFFFFFFFFFFFFFFFFFFFFFFFFFFFFFFFFFFFF AND PUSH4 0x96F4E9F9 PUSH8 0x8F90B8876DEE6538 DUP5 PUSH1 0x40 MLOAD DUP4 PUSH4 0xFFFFFFFF AND PUSH1 0xE0 SHL DUP2 MSTORE PUSH1 0x4 ADD PUSH2 0x90F SWAP3 SWAP2 SWAP1 PUSH2 0x1472 JUMP JUMPDEST PUSH1 0x20 PUSH1 0x40 MLOAD DUP1 DUP4 SUB DUP2 PUSH0 DUP8 GAS CALL ISZERO DUP1 ISZERO PUSH2 0x92B JUMPI RETURNDATASIZE PUSH0 PUSH0 RETURNDATACOPY RETURNDATASIZE PUSH0 REVERT JUMPDEST POP POP POP POP PUSH1 0x40 MLOAD RETURNDATASIZE PUSH1 0x1F NOT PUSH1 0x1F DUP3 ADD AND DUP3 ADD DUP1 PUSH1 0x40 MSTORE POP DUP2 ADD SWAP1 PUSH2 0x94F SWAP2 SWAP1 PUSH2 0x14CA JUMP JUMPDEST SWAP5 POP DUP7 PUSH20 0xFFFFFFFFFFFFFFFFFFFFFFFFFFFFFFFFFFFFFFFF AND PUSH8 0x8F90B8876DEE6538 PUSH8 0xFFFFFFFFFFFFFFFF AND PUSH32 0xECA040C7DF5D1A8EA4277FA1A77F55E8EF67B6FCF617A6FC6B16067F5F7547B5 DUP8 DUP10 DUP6 PUSH1 0x40 MLOAD PUSH2 0x9AE SWAP4 SWAP3 SWAP2 SWAP1 PUSH2 0x14F5 JUMP JUMPDEST PUSH1 0x40 MLOAD DUP1 SWAP2 SUB SWAP1 LOG3 POP POP POP POP SWAP3 SWAP2 POP POP JUMP JUMPDEST PUSH2 0x9C8 PUSH2 0xA44 JUMP JUMPDEST PUSH0 PUSH20 0xFFFFFFFFFFFFFFFFFFFFFFFFFFFFFFFFFFFFFFFF AND DUP2 PUSH20 0xFFFFFFFFFFFFFFFFFFFFFFFFFFFFFFFFFFFFFFFF AND SUB PUSH2 0xA38 JUMPI PUSH0 PUSH1 0x40 MLOAD PUSH32 0x1E4FBDF700000000000000000000000000000000000000000000000000000000 DUP2 MSTORE PUSH1 0x4 ADD PUSH2 0xA2F SWAP2 SWAP1 PUSH2 0xFEB JUMP JUMPDEST PUSH1 0x40 MLOAD DUP1 SWAP2 SUB SWAP1 REVERT JUMPDEST PUSH2 0xA41 DUP2 PUSH2 0xACB JUMP JUMPDEST POP JUMP JUMPDEST PUSH2 0xA4C PUSH2 0xC94 JUMP JUMPDEST PUSH20 0xFFFFFFFFFFFFFFFFFFFFFFFFFFFFFFFFFFFFFFFF AND PUSH2 0xA6A PUSH2 0x260 JUMP JUMPDEST PUSH20 0xFFFFFFFFFFFFFFFFFFFFFFFFFFFFFFFFFFFFFFFF AND EQ PUSH2 0xAC9 JUMPI PUSH2 0xA8D PUSH2 0xC94 JUMP JUMPDEST PUSH1 0x40 MLOAD PUSH32 0x118CDAA700000000000000000000000000000000000000000000000000000000 DUP2 MSTORE PUSH1 0x4 ADD PUSH2 0xAC0 SWAP2 SWAP1 PUSH2 0xFEB JUMP JUMPDEST PUSH1 0x40 MLOAD DUP1 SWAP2 SUB SWAP1 REVERT JUMPDEST JUMP JUMPDEST PUSH0 PUSH0 PUSH0 SWAP1 SLOAD SWAP1 PUSH2 0x100 EXP SWAP1 DIV PUSH20 0xFFFFFFFFFFFFFFFFFFFFFFFFFFFFFFFFFFFFFFFF AND SWAP1 POP DUP2 PUSH0 PUSH0 PUSH2 0x100 EXP DUP2 SLOAD DUP2 PUSH20 0xFFFFFFFFFFFFFFFFFFFFFFFFFFFFFFFFFFFFFFFF MUL NOT AND SWAP1 DUP4 PUSH20 0xFFFFFFFFFFFFFFFFFFFFFFFFFFFFFFFFFFFFFFFF AND MUL OR SWAP1 SSTORE POP DUP2 PUSH20 0xFFFFFFFFFFFFFFFFFFFFFFFFFFFFFFFFFFFFFFFF AND DUP2 PUSH20 0xFFFFFFFFFFFFFFFFFFFFFFFFFFFFFFFFFFFFFFFF AND PUSH32 0x8BE0079C531659141344CD1FD0A4F28419497F9722A3DAAFE3B4186F6B6457E0 PUSH1 0x40 MLOAD PUSH1 0x40 MLOAD DUP1 SWAP2 SUB SWAP1 LOG3 POP POP JUMP JUMPDEST PUSH1 0x60 PUSH4 0x97A657C9 PUSH1 0xE0 SHL DUP3 PUSH1 0x40 MLOAD PUSH1 0x24 ADD PUSH2 0xBA7 SWAP2 SWAP1 PUSH2 0x1544 JUMP JUMPDEST PUSH1 0x40 MLOAD PUSH1 0x20 DUP2 DUP4 SUB SUB DUP2 MSTORE SWAP1 PUSH1 0x40 MSTORE SWAP1 PUSH28 0xFFFFFFFFFFFFFFFFFFFFFFFFFFFFFFFFFFFFFFFFFFFFFFFFFFFFFFFF NOT AND PUSH1 0x20 DUP3 ADD DUP1 MLOAD PUSH28 0xFFFFFFFFFFFFFFFFFFFFFFFFFFFFFFFFFFFFFFFFFFFFFFFFFFFFFFFF DUP4 DUP2 DUP4 AND OR DUP4 MSTORE POP POP POP POP SWAP1 POP SWAP2 SWAP1 POP JUMP JUMPDEST PUSH2 0xC8E DUP5 PUSH4 0x23B872DD PUSH1 0xE0 SHL DUP6 DUP6 DUP6 PUSH1 0x40 MLOAD PUSH1 0x24 ADD PUSH2 0xC2C SWAP4 SWAP3 SWAP2 SWAP1 PUSH2 0x155D JUMP JUMPDEST PUSH1 0x40 MLOAD PUSH1 0x20 DUP2 DUP4 SUB SUB DUP2 MSTORE SWAP1 PUSH1 0x40 MSTORE SWAP1 PUSH28 0xFFFFFFFFFFFFFFFFFFFFFFFFFFFFFFFFFFFFFFFFFFFFFFFFFFFFFFFF NOT AND PUSH1 0x20 DUP3 ADD DUP1 MLOAD PUSH28 0xFFFFFFFFFFFFFFFFFFFFFFFFFFFFFFFFFFFFFFFFFFFFFFFFFFFFFFFF DUP4 DUP2 DUP4 AND OR DUP4 MSTORE POP POP POP POP PUSH2 0xC9B JUMP JUMPDEST POP POP POP POP JUMP JUMPDEST PUSH0 CALLER SWAP1 POP SWAP1 JUMP JUMPDEST PUSH0 PUSH2 0xCFC DUP3 PUSH1 0x40 MLOAD DUP1 PUSH1 0x40 ADD PUSH1 0x40 MSTORE DUP1 PUSH1 0x20 DUP2 MSTORE PUSH1 0x20 ADD PUSH32 0x5361666545524332303A206C6F772D6C6576656C2063616C6C206661696C6564 DUP2 MSTORE POP DUP6 PUSH20 0xFFFFFFFFFFFFFFFFFFFFFFFFFFFFFFFFFFFFFFFF AND PUSH2 0xD60 SWAP1 SWAP3 SWAP2 SWAP1 PUSH4 0xFFFFFFFF AND JUMP JUMPDEST SWAP1 POP PUSH0 DUP2 MLOAD GT ISZERO PUSH2 0xD5B JUMPI DUP1 DUP1 PUSH1 0x20 ADD SWAP1 MLOAD DUP2 ADD SWAP1 PUSH2 0xD1B SWAP2 SWAP1 PUSH2 0x1150 JUMP JUMPDEST PUSH2 0xD5A JUMPI PUSH1 0x40 MLOAD PUSH32 0x8C379A000000000000000000000000000000000000000000000000000000000 DUP2 MSTORE PUSH1 0x4 ADD PUSH2 0xD51 SWAP1 PUSH2 0x1612 JUMP JUMPDEST PUSH1 0x40 MLOAD DUP1 SWAP2 SUB SWAP1 REVERT JUMPDEST JUMPDEST POP POP POP JUMP JUMPDEST PUSH1 0x60 PUSH2 0xD6E DUP5 DUP5 PUSH0 DUP6 PUSH2 0xD77 JUMP JUMPDEST SWAP1 POP SWAP4 SWAP3 POP POP POP JUMP JUMPDEST PUSH1 0x60 DUP3 SELFBALANCE LT ISZERO PUSH2 0xDBC JUMPI PUSH1 0x40 MLOAD PUSH32 0x8C379A000000000000000000000000000000000000000000000000000000000 DUP2 MSTORE PUSH1 0x4 ADD PUSH2 0xDB3 SWAP1 PUSH2 0x16A0 JUMP JUMPDEST PUSH1 0x40 MLOAD DUP1 SWAP2 SUB SWAP1 REVERT JUMPDEST PUSH0 PUSH0 DUP7 PUSH20 0xFFFFFFFFFFFFFFFFFFFFFFFFFFFFFFFFFFFFFFFF AND DUP6 DUP8 PUSH1 0x40 MLOAD PUSH2 0xDE4 SWAP2 SWAP1 PUSH2 0x16F8 JUMP JUMPDEST PUSH0 PUSH1 0x40 MLOAD DUP1 DUP4 SUB DUP2 DUP6 DUP8 GAS CALL SWAP3 POP POP POP RETURNDATASIZE DUP1 PUSH0 DUP2 EQ PUSH2 0xE1E JUMPI PUSH1 0x40 MLOAD SWAP2 POP PUSH1 0x1F NOT PUSH1 0x3F RETURNDATASIZE ADD AND DUP3 ADD PUSH1 0x40 MSTORE RETURNDATASIZE DUP3 MSTORE RETURNDATASIZE PUSH0 PUSH1 0x20 DUP5 ADD RETURNDATACOPY PUSH2 0xE23 JUMP JUMPDEST PUSH1 0x60 SWAP2 POP JUMPDEST POP SWAP2 POP SWAP2 POP PUSH2 0xE34 DUP8 DUP4 DUP4 DUP8 PUSH2 0xE40 JUMP JUMPDEST SWAP3 POP POP POP SWAP5 SWAP4 POP POP POP POP JUMP JUMPDEST PUSH1 0x60 DUP4 ISZERO PUSH2 0xEA1 JUMPI PUSH0 DUP4 MLOAD SUB PUSH2 0xE99 JUMPI PUSH2 0xE59 DUP6 PUSH2 0xEB4 JUMP JUMPDEST PUSH2 0xE98 JUMPI PUSH1 0x40 MLOAD PUSH32 0x8C379A000000000000000000000000000000000000000000000000000000000 DUP2 MSTORE PUSH1 0x4 ADD PUSH2 0xE8F SWAP1 PUSH2 0x1758 JUMP JUMPDEST PUSH1 0x40 MLOAD DUP1 SWAP2 SUB SWAP1 REVERT JUMPDEST JUMPDEST DUP3 SWAP1 POP PUSH2 0xEAC JUMP JUMPDEST PUSH2 0xEAB DUP4 DUP4 PUSH2 0xED6 JUMP JUMPDEST JUMPDEST SWAP5 SWAP4 POP POP POP POP JUMP JUMPDEST PUSH0 PUSH0 DUP3 PUSH20 0xFFFFFFFFFFFFFFFFFFFFFFFFFFFFFFFFFFFFFFFF AND EXTCODESIZE GT SWAP1 POP SWAP2 SWAP1 POP JUMP JUMPDEST PUSH0 DUP3 MLOAD GT ISZERO PUSH2 0xEE8 JUMPI DUP2 MLOAD DUP1 DUP4 PUSH1 0x20 ADD REVERT JUMPDEST DUP1 PUSH1 0x40 MLOAD PUSH32 0x8C379A000000000000000000000000000000000000000000000000000000000 DUP2 MSTORE PUSH1 0x4 ADD PUSH2 0xF1C SWAP2 SWAP1 PUSH2 0x17B8 JUMP JUMPDEST PUSH1 0x40 MLOAD DUP1 SWAP2 SUB SWAP1 REVERT JUMPDEST PUSH1 0x40 MLOAD DUP1 PUSH1 0x40 ADD PUSH1 0x40 MSTORE DUP1 PUSH0 PUSH20 0xFFFFFFFFFFFFFFFFFFFFFFFFFFFFFFFFFFFFFFFF AND DUP2 MSTORE PUSH1 0x20 ADD PUSH0 DUP2 MSTORE POP SWAP1 JUMP JUMPDEST PUSH0 PUSH0 REVERT JUMPDEST PUSH0 PUSH20 0xFFFFFFFFFFFFFFFFFFFFFFFFFFFFFFFFFFFFFFFF DUP3 AND SWAP1 POP SWAP2 SWAP1 POP JUMP JUMPDEST PUSH0 PUSH2 0xF80 DUP3 PUSH2 0xF57 JUMP JUMPDEST SWAP1 POP SWAP2 SWAP1 POP JUMP JUMPDEST PUSH2 0xF90 DUP2 PUSH2 0xF76 JUMP JUMPDEST DUP2 EQ PUSH2 0xF9A JUMPI PUSH0 PUSH0 REVERT JUMPDEST POP JUMP JUMPDEST PUSH0 DUP2 CALLDATALOAD SWAP1 POP PUSH2 0xFAB DUP2 PUSH2 0xF87 JUMP JUMPDEST SWAP3 SWAP2 POP POP JUMP JUMPDEST PUSH0 PUSH1 0x20 DUP3 DUP5 SUB SLT ISZERO PUSH2 0xFC6 JUMPI PUSH2 0xFC5 PUSH2 0xF53 JUMP JUMPDEST JUMPDEST PUSH0 PUSH2 0xFD3 DUP5 DUP3 DUP6 ADD PUSH2 0xF9D JUMP JUMPDEST SWAP2 POP POP SWAP3 SWAP2 POP POP JUMP JUMPDEST PUSH2 0xFE5 DUP2 PUSH2 0xF76 JUMP JUMPDEST DUP3 MSTORE POP POP JUMP JUMPDEST PUSH0 PUSH1 0x20 DUP3 ADD SWAP1 POP PUSH2 0xFFE PUSH0 DUP4 ADD DUP5 PUSH2 0xFDC JUMP JUMPDEST SWAP3 SWAP2 POP POP JUMP JUMPDEST PUSH0 DUP2 SWAP1 POP SWAP2 SWAP1 POP JUMP JUMPDEST PUSH2 0x1016 DUP2 PUSH2 0x1004 JUMP JUMPDEST DUP2 EQ PUSH2 0x1020 JUMPI PUSH0 PUSH0 REVERT JUMPDEST POP JUMP JUMPDEST PUSH0 DUP2 CALLDATALOAD SWAP1 POP PUSH2 0x1031 DUP2 PUSH2 0x100D JUMP JUMPDEST SWAP3 SWAP2 POP POP JUMP JUMPDEST PUSH0 PUSH0 PUSH1 0x40 DUP4 DUP6 SUB SLT ISZERO PUSH2 0x104D JUMPI PUSH2 0x104C PUSH2 0xF53 JUMP JUMPDEST JUMPDEST PUSH0 PUSH2 0x105A DUP6 DUP3 DUP7 ADD PUSH2 0xF9D JUMP JUMPDEST SWAP3 POP POP PUSH1 0x20 PUSH2 0x106B DUP6 DUP3 DUP7 ADD PUSH2 0x1023 JUMP JUMPDEST SWAP2 POP POP SWAP3 POP SWAP3 SWAP1 POP JUMP JUMPDEST PUSH0 DUP2 SWAP1 POP SWAP2 SWAP1 POP JUMP JUMPDEST PUSH2 0x1087 DUP2 PUSH2 0x1075 JUMP JUMPDEST DUP3 MSTORE POP POP JUMP JUMPDEST PUSH0 PUSH1 0x20 DUP3 ADD SWAP1 POP PUSH2 0x10A0 PUSH0 DUP4 ADD DUP5 PUSH2 0x107E JUMP JUMPDEST SWAP3 SWAP2 POP POP JUMP JUMPDEST PUSH0 DUP2 MLOAD SWAP1 POP PUSH2 0x10B4 DUP2 PUSH2 0x100D JUMP JUMPDEST SWAP3 SWAP2 POP POP JUMP JUMPDEST PUSH0 PUSH1 0x20 DUP3 DUP5 SUB SLT ISZERO PUSH2 0x10CF JUMPI PUSH2 0x10CE PUSH2 0xF53 JUMP JUMPDEST JUMPDEST PUSH0 PUSH2 0x10DC DUP5 DUP3 DUP6 ADD PUSH2 0x10A6 JUMP JUMPDEST SWAP2 POP POP SWAP3 SWAP2 POP POP JUMP JUMPDEST PUSH2 0x10EE DUP2 PUSH2 0x1004 JUMP JUMPDEST DUP3 MSTORE POP POP JUMP JUMPDEST PUSH0 PUSH1 0x40 DUP3 ADD SWAP1 POP PUSH2 0x1107 PUSH0 DUP4 ADD DUP6 PUSH2 0xFDC JUMP JUMPDEST PUSH2 0x1114 PUSH1 0x20 DUP4 ADD DUP5 PUSH2 0x10E5 JUMP JUMPDEST SWAP4 SWAP3 POP POP POP JUMP JUMPDEST PUSH0 DUP2 ISZERO ISZERO SWAP1 POP SWAP2 SWAP1 POP JUMP JUMPDEST PUSH2 0x112F DUP2 PUSH2 0x111B JUMP JUMPDEST DUP2 EQ PUSH2 0x1139 JUMPI PUSH0 PUSH0 REVERT JUMPDEST POP JUMP JUMPDEST PUSH0 DUP2 MLOAD SWAP1 POP PUSH2 0x114A DUP2 PUSH2 0x1126 JUMP JUMPDEST SWAP3 SWAP2 POP POP JUMP JUMPDEST PUSH0 PUSH1 0x20 DUP3 DUP5 SUB SLT ISZERO PUSH2 0x1165 JUMPI PUSH2 0x1164 PUSH2 0xF53 JUMP JUMPDEST JUMPDEST PUSH0 PUSH2 0x1172 DUP5 DUP3 DUP6 ADD PUSH2 0x113C JUMP JUMPDEST SWAP2 POP POP SWAP3 SWAP2 POP POP JUMP JUMPDEST PUSH0 DUP2 SWAP1 POP SWAP2 SWAP1 POP JUMP JUMPDEST PUSH0 PUSH2 0x119E PUSH2 0x1199 PUSH2 0x1194 DUP5 PUSH2 0xF57 JUMP JUMPDEST PUSH2 0x117B JUMP JUMPDEST PUSH2 0xF57 JUMP JUMPDEST SWAP1 POP SWAP2 SWAP1 POP JUMP JUMPDEST PUSH0 PUSH2 0x11AF DUP3 PUSH2 0x1184 JUMP JUMPDEST SWAP1 POP SWAP2 SWAP1 POP JUMP JUMPDEST PUSH0 PUSH2 0x11C0 DUP3 PUSH2 0x11A5 JUMP JUMPDEST SWAP1 POP SWAP2 SWAP1 POP JUMP JUMPDEST PUSH2 0x11D0 DUP2 PUSH2 0x11B6 JUMP JUMPDEST DUP3 MSTORE POP POP JUMP JUMPDEST PUSH0 PUSH1 0x60 DUP3 ADD SWAP1 POP PUSH2 0x11E9 PUSH0 DUP4 ADD DUP7 PUSH2 0x11C7 JUMP JUMPDEST PUSH2 0x11F6 PUSH1 0x20 DUP4 ADD DUP6 PUSH2 0x10E5 JUMP JUMPDEST PUSH2 0x1203 PUSH1 0x40 DUP4 ADD DUP5 PUSH2 0x10E5 JUMP JUMPDEST SWAP5 SWAP4 POP POP POP POP JUMP JUMPDEST PUSH32 0x4E487B7100000000000000000000000000000000000000000000000000000000 PUSH0 MSTORE PUSH1 0x41 PUSH1 0x4 MSTORE PUSH1 0x24 PUSH0 REVERT JUMPDEST PUSH32 0x4E487B7100000000000000000000000000000000000000000000000000000000 PUSH0 MSTORE PUSH1 0x32 PUSH1 0x4 MSTORE PUSH1 0x24 PUSH0 REVERT JUMPDEST PUSH0 PUSH8 0xFFFFFFFFFFFFFFFF DUP3 AND SWAP1 POP SWAP2 SWAP1 POP JUMP JUMPDEST PUSH2 0x1281 DUP2 PUSH2 0x1265 JUMP JUMPDEST DUP3 MSTORE POP POP JUMP JUMPDEST PUSH0 DUP2 MLOAD SWAP1 POP SWAP2 SWAP1 POP JUMP JUMPDEST PUSH0 DUP3 DUP3 MSTORE PUSH1 0x20 DUP3 ADD SWAP1 POP SWAP3 SWAP2 POP POP JUMP JUMPDEST DUP3 DUP2 DUP4 MCOPY PUSH0 DUP4 DUP4 ADD MSTORE POP POP POP JUMP JUMPDEST PUSH0 PUSH1 0x1F NOT PUSH1 0x1F DUP4 ADD AND SWAP1 POP SWAP2 SWAP1 POP JUMP JUMPDEST PUSH0 PUSH2 0x12C9 DUP3 PUSH2 0x1287 JUMP JUMPDEST PUSH2 0x12D3 DUP2 DUP6 PUSH2 0x1291 JUMP JUMPDEST SWAP4 POP PUSH2 0x12E3 DUP2 DUP6 PUSH1 0x20 DUP7 ADD PUSH2 0x12A1 JUMP JUMPDEST PUSH2 0x12EC DUP2 PUSH2 0x12AF JUMP JUMPDEST DUP5 ADD SWAP2 POP POP SWAP3 SWAP2 POP POP JUMP JUMPDEST PUSH0 DUP2 MLOAD SWAP1 POP SWAP2 SWAP1 POP JUMP JUMPDEST PUSH0 DUP3 DUP3 MSTORE PUSH1 0x20 DUP3 ADD SWAP1 POP SWAP3 SWAP2 POP POP JUMP JUMPDEST PUSH0 DUP2 SWAP1 POP PUSH1 0x20 DUP3 ADD SWAP1 POP SWAP2 SWAP1 POP JUMP JUMPDEST PUSH2 0x1329 DUP2 PUSH2 0xF76 JUMP JUMPDEST DUP3 MSTORE POP POP JUMP JUMPDEST PUSH2 0x1338 DUP2 PUSH2 0x1004 JUMP JUMPDEST DUP3 MSTORE POP POP JUMP JUMPDEST PUSH1 0x40 DUP3 ADD PUSH0 DUP3 ADD MLOAD PUSH2 0x1352 PUSH0 DUP6 ADD DUP3 PUSH2 0x1320 JUMP JUMPDEST POP PUSH1 0x20 DUP3 ADD MLOAD PUSH2 0x1365 PUSH1 0x20 DUP6 ADD DUP3 PUSH2 0x132F JUMP JUMPDEST POP POP POP POP JUMP JUMPDEST PUSH0 PUSH2 0x1376 DUP4 DUP4 PUSH2 0x133E JUMP JUMPDEST PUSH1 0x40 DUP4 ADD SWAP1 POP SWAP3 SWAP2 POP POP JUMP JUMPDEST PUSH0 PUSH1 0x20 DUP3 ADD SWAP1 POP SWAP2 SWAP1 POP JUMP JUMPDEST PUSH0 PUSH2 0x1398 DUP3 PUSH2 0x12F7 JUMP JUMPDEST PUSH2 0x13A2 DUP2 DUP6 PUSH2 0x1301 JUMP JUMPDEST SWAP4 POP PUSH2 0x13AD DUP4 PUSH2 0x1311 JUMP JUMPDEST DUP1 PUSH0 JUMPDEST DUP4 DUP2 LT ISZERO PUSH2 0x13DD JUMPI DUP2 MLOAD PUSH2 0x13C4 DUP9 DUP3 PUSH2 0x136B JUMP JUMPDEST SWAP8 POP PUSH2 0x13CF DUP4 PUSH2 0x1382 JUMP JUMPDEST SWAP3 POP POP PUSH1 0x1 DUP2 ADD SWAP1 POP PUSH2 0x13B0 JUMP JUMPDEST POP DUP6 SWAP4 POP POP POP POP SWAP3 SWAP2 POP POP JUMP JUMPDEST PUSH0 PUSH1 0xA0 DUP4 ADD PUSH0 DUP4 ADD MLOAD DUP5 DUP3 SUB PUSH0 DUP7 ADD MSTORE PUSH2 0x1404 DUP3 DUP3 PUSH2 0x12BF JUMP JUMPDEST SWAP2 POP POP PUSH1 0x20 DUP4 ADD MLOAD DUP5 DUP3 SUB PUSH1 0x20 DUP7 ADD MSTORE PUSH2 0x141E DUP3 DUP3 PUSH2 0x12BF JUMP JUMPDEST SWAP2 POP POP PUSH1 0x40 DUP4 ADD MLOAD DUP5 DUP3 SUB PUSH1 0x40 DUP7 ADD MSTORE PUSH2 0x1438 DUP3 DUP3 PUSH2 0x138E JUMP JUMPDEST SWAP2 POP POP PUSH1 0x60 DUP4 ADD MLOAD PUSH2 0x144D PUSH1 0x60 DUP7 ADD DUP3 PUSH2 0x1320 JUMP JUMPDEST POP PUSH1 0x80 DUP4 ADD MLOAD DUP5 DUP3 SUB PUSH1 0x80 DUP7 ADD MSTORE PUSH2 0x1465 DUP3 DUP3 PUSH2 0x12BF JUMP JUMPDEST SWAP2 POP POP DUP1 SWAP2 POP POP SWAP3 SWAP2 POP POP JUMP JUMPDEST PUSH0 PUSH1 0x40 DUP3 ADD SWAP1 POP PUSH2 0x1485 PUSH0 DUP4 ADD DUP6 PUSH2 0x1278 JUMP JUMPDEST DUP2 DUP2 SUB PUSH1 0x20 DUP4 ADD MSTORE PUSH2 0x1497 DUP2 DUP5 PUSH2 0x13EA JUMP JUMPDEST SWAP1 POP SWAP4 SWAP3 POP POP POP JUMP JUMPDEST PUSH2 0x14A9 DUP2 PUSH2 0x1075 JUMP JUMPDEST DUP2 EQ PUSH2 0x14B3 JUMPI PUSH0 PUSH0 REVERT JUMPDEST POP JUMP JUMPDEST PUSH0 DUP2 MLOAD SWAP1 POP PUSH2 0x14C4 DUP2 PUSH2 0x14A0 JUMP JUMPDEST SWAP3 SWAP2 POP POP JUMP JUMPDEST PUSH0 PUSH1 0x20 DUP3 DUP5 SUB SLT ISZERO PUSH2 0x14DF JUMPI PUSH2 0x14DE PUSH2 0xF53 JUMP JUMPDEST JUMPDEST PUSH0 PUSH2 0x14EC DUP5 DUP3 DUP6 ADD PUSH2 0x14B6 JUMP JUMPDEST SWAP2 POP POP SWAP3 SWAP2 POP POP JUMP JUMPDEST PUSH0 PUSH1 0x60 DUP3 ADD SWAP1 POP PUSH2 0x1508 PUSH0 DUP4 ADD DUP7 PUSH2 0x107E JUMP JUMPDEST PUSH2 0x1515 PUSH1 0x20 DUP4 ADD DUP6 PUSH2 0x10E5 JUMP JUMPDEST PUSH2 0x1522 PUSH1 0x40 DUP4 ADD DUP5 PUSH2 0x10E5 JUMP JUMPDEST SWAP5 SWAP4 POP POP POP POP JUMP JUMPDEST PUSH1 0x20 DUP3 ADD PUSH0 DUP3 ADD MLOAD PUSH2 0x153E PUSH0 DUP6 ADD DUP3 PUSH2 0x132F JUMP JUMPDEST POP POP POP POP JUMP JUMPDEST PUSH0 PUSH1 0x20 DUP3 ADD SWAP1 POP PUSH2 0x1557 PUSH0 DUP4 ADD DUP5 PUSH2 0x152A JUMP JUMPDEST SWAP3 SWAP2 POP POP JUMP JUMPDEST PUSH0 PUSH1 0x60 DUP3 ADD SWAP1 POP PUSH2 0x1570 PUSH0 DUP4 ADD DUP7 PUSH2 0xFDC JUMP JUMPDEST PUSH2 0x157D PUSH1 0x20 DUP4 ADD DUP6 PUSH2 0xFDC JUMP JUMPDEST PUSH2 0x158A PUSH1 0x40 DUP4 ADD DUP5 PUSH2 0x10E5 JUMP JUMPDEST SWAP5 SWAP4 POP POP POP POP JUMP JUMPDEST PUSH0 DUP3 DUP3 MSTORE PUSH1 0x20 DUP3 ADD SWAP1 POP SWAP3 SWAP2 POP POP JUMP JUMPDEST PUSH32 0x5361666545524332303A204552433230206F7065726174696F6E20646964206E PUSH0 DUP3 ADD MSTORE PUSH32 0x6F74207375636365656400000000000000000000000000000000000000000000 PUSH1 0x20 DUP3 ADD MSTORE POP JUMP JUMPDEST PUSH0 PUSH2 0x15FC PUSH1 0x2A DUP4 PUSH2 0x1592 JUMP JUMPDEST SWAP2 POP PUSH2 0x1607 DUP3 PUSH2 0x15A2 JUMP JUMPDEST PUSH1 0x40 DUP3 ADD SWAP1 POP SWAP2 SWAP1 POP JUMP JUMPDEST PUSH0 PUSH1 0x20 DUP3 ADD SWAP1 POP DUP2 DUP2 SUB PUSH0 DUP4 ADD MSTORE PUSH2 0x1629 DUP2 PUSH2 0x15F0 JUMP JUMPDEST SWAP1 POP SWAP2 SWAP1 POP JUMP JUMPDEST PUSH32 0x416464726573733A20696E73756666696369656E742062616C616E636520666F PUSH0 DUP3 ADD MSTORE PUSH32 0x722063616C6C0000000000000000000000000000000000000000000000000000 PUSH1 0x20 DUP3 ADD MSTORE POP JUMP JUMPDEST PUSH0 PUSH2 0x168A PUSH1 0x26 DUP4 PUSH2 0x1592 JUMP JUMPDEST SWAP2 POP PUSH2 0x1695 DUP3 PUSH2 0x1630 JUMP JUMPDEST PUSH1 0x40 DUP3 ADD SWAP1 POP SWAP2 SWAP1 POP JUMP JUMPDEST PUSH0 PUSH1 0x20 DUP3 ADD SWAP1 POP DUP2 DUP2 SUB PUSH0 DUP4 ADD MSTORE PUSH2 0x16B7 DUP2 PUSH2 0x167E JUMP JUMPDEST SWAP1 POP SWAP2 SWAP1 POP JUMP JUMPDEST PUSH0 DUP2 SWAP1 POP SWAP3 SWAP2 POP POP JUMP JUMPDEST PUSH0 PUSH2 0x16D2 DUP3 PUSH2 0x1287 JUMP JUMPDEST PUSH2 0x16DC DUP2 DUP6 PUSH2 0x16BE JUMP JUMPDEST SWAP4 POP PUSH2 0x16EC DUP2 DUP6 PUSH1 0x20 DUP7 ADD PUSH2 0x12A1 JUMP JUMPDEST DUP1 DUP5 ADD SWAP2 POP POP SWAP3 SWAP2 POP POP JUMP JUMPDEST PUSH0 PUSH2 0x1703 DUP3 DUP5 PUSH2 0x16C8 JUMP JUMPDEST SWAP2 POP DUP2 SWAP1 POP SWAP3 SWAP2 POP POP JUMP JUMPDEST PUSH32 0x416464726573733A2063616C6C20746F206E6F6E2D636F6E7472616374000000 PUSH0 DUP3 ADD MSTORE POP JUMP JUMPDEST PUSH0 PUSH2 0x1742 PUSH1 0x1D DUP4 PUSH2 0x1592 JUMP JUMPDEST SWAP2 POP PUSH2 0x174D DUP3 PUSH2 0x170E JUMP JUMPDEST PUSH1 0x20 DUP3 ADD SWAP1 POP SWAP2 SWAP1 POP JUMP JUMPDEST PUSH0 PUSH1 0x20 DUP3 ADD SWAP1 POP DUP2 DUP2 SUB PUSH0 DUP4 ADD MSTORE PUSH2 0x176F DUP2 PUSH2 0x1736 JUMP JUMPDEST SWAP1 POP SWAP2 SWAP1 POP JUMP JUMPDEST PUSH0 DUP2 MLOAD SWAP1 POP SWAP2 SWAP1 POP JUMP JUMPDEST PUSH0 PUSH2 0x178A DUP3 PUSH2 0x1776 JUMP JUMPDEST PUSH2 0x1794 DUP2 DUP6 PUSH2 0x1592 JUMP JUMPDEST SWAP4 POP PUSH2 0x17A4 DUP2 DUP6 PUSH1 0x20 DUP7 ADD PUSH2 0x12A1 JUMP JUMPDEST PUSH2 0x17AD DUP2 PUSH2 0x12AF JUMP JUMPDEST DUP5 ADD SWAP2 POP POP SWAP3 SWAP2 POP POP JUMP JUMPDEST PUSH0 PUSH1 0x20 DUP3 ADD SWAP1 POP DUP2 DUP2 SUB PUSH0 DUP4 ADD MSTORE PUSH2 0x17D0 DUP2 DUP5 PUSH2 0x1780 JUMP JUMPDEST SWAP1 POP SWAP3 SWAP2 POP POP JUMP INVALID LOG2 PUSH5 0x6970667358 0x22 SLT KECCAK256 DUP14 0xD9 RETURN 0xDB 0x25 0xDE 0xAF 0x1E 0xEF 0xC2 RETURN 0xD9 ADDMOD PUSH17 0x5F7A0A926FEB0D9C3BD837CF5EB998EB94 GT PUSH5 0x736F6C6343 STOP ADDMOD 0x1E STOP CALLER "
				},
				"gasEstimates": {
					"creation": {
						"codeDepositCost": "1231600",
						"executionCost": "infinite",
						"totalCost": "infinite"
					},
					"external": {
						"owner()": "2536",
						"renounceOwnership()": "infinite",
						"transferOwnership(address)": "infinite",
						"transferTokens(address,uint256)": "infinite",
						"withdrawToken(address)": "infinite"
					}
				},
				"methodIdentifiers": {
					"owner()": "8da5cb5b",
					"renounceOwnership()": "715018a6",
					"transferOwnership(address)": "f2fde38b",
					"transferTokens(address,uint256)": "bec3fa17",
					"withdrawToken(address)": "89476069"
				}
			},
			"storageLayout": {
				"storage": [
					{
						"astId": 856,
						"contract": "CCIP/ccipTokenSender.sol:CCIPTokenSender",
						"label": "_owner",
						"offset": 0,
						"slot": "0",
						"type": "t_address"
					}
				],
				"types": {
					"t_address": {
						"encoding": "inplace",
						"label": "address",
						"numberOfBytes": "20"
					}
				}
			},
			"userdoc": {
				"kind": "user",
				"methods": {},
				"notice": "THIS IS AN EXAMPLE CONTRACT THAT USES HARDCODED VALUES FOR CLARITY. THIS IS AN EXAMPLE CONTRACT THAT USES UN-AUDITED CODE. DO NOT USE THIS CODE IN PRODUCTION.",
				"version": 1
			}
		}
	}
}